{
  "_format": "hh-sol-artifact-1",
  "contractName": "NeftyBazaar",
  "sourceName": "contracts/NeftyBazaar.sol",
  "abi": [
    {
      "inputs": [],
      "stateMutability": "nonpayable",
      "type": "constructor"
    },
    {
      "inputs": [
        {
          "internalType": "address",
          "name": "sender",
          "type": "address"
        },
        {
          "internalType": "uint256",
          "name": "tokenId",
          "type": "uint256"
        },
        {
          "internalType": "address",
          "name": "owner",
          "type": "address"
        }
      ],
      "name": "ERC721IncorrectOwner",
      "type": "error"
    },
    {
      "inputs": [
        {
          "internalType": "address",
          "name": "operator",
          "type": "address"
        },
        {
          "internalType": "uint256",
          "name": "tokenId",
          "type": "uint256"
        }
      ],
      "name": "ERC721InsufficientApproval",
      "type": "error"
    },
    {
      "inputs": [
        {
          "internalType": "address",
          "name": "approver",
          "type": "address"
        }
      ],
      "name": "ERC721InvalidApprover",
      "type": "error"
    },
    {
      "inputs": [
        {
          "internalType": "address",
          "name": "operator",
          "type": "address"
        }
      ],
      "name": "ERC721InvalidOperator",
      "type": "error"
    },
    {
      "inputs": [
        {
          "internalType": "address",
          "name": "owner",
          "type": "address"
        }
      ],
      "name": "ERC721InvalidOwner",
      "type": "error"
    },
    {
      "inputs": [
        {
          "internalType": "address",
          "name": "receiver",
          "type": "address"
        }
      ],
      "name": "ERC721InvalidReceiver",
      "type": "error"
    },
    {
      "inputs": [
        {
          "internalType": "address",
          "name": "sender",
          "type": "address"
        }
      ],
      "name": "ERC721InvalidSender",
      "type": "error"
    },
    {
      "inputs": [
        {
          "internalType": "uint256",
          "name": "tokenId",
          "type": "uint256"
        }
      ],
      "name": "ERC721NonexistentToken",
      "type": "error"
    },
    {
      "anonymous": false,
      "inputs": [
        {
          "indexed": true,
          "internalType": "address",
          "name": "owner",
          "type": "address"
        },
        {
          "indexed": true,
          "internalType": "address",
          "name": "approved",
          "type": "address"
        },
        {
          "indexed": true,
          "internalType": "uint256",
          "name": "tokenId",
          "type": "uint256"
        }
      ],
      "name": "Approval",
      "type": "event"
    },
    {
      "anonymous": false,
      "inputs": [
        {
          "indexed": true,
          "internalType": "address",
          "name": "owner",
          "type": "address"
        },
        {
          "indexed": true,
          "internalType": "address",
          "name": "operator",
          "type": "address"
        },
        {
          "indexed": false,
          "internalType": "bool",
          "name": "approved",
          "type": "bool"
        }
      ],
      "name": "ApprovalForAll",
      "type": "event"
    },
    {
      "anonymous": false,
      "inputs": [
        {
          "indexed": false,
          "internalType": "uint256",
          "name": "_fromTokenId",
          "type": "uint256"
        },
        {
          "indexed": false,
          "internalType": "uint256",
          "name": "_toTokenId",
          "type": "uint256"
        }
      ],
      "name": "BatchMetadataUpdate",
      "type": "event"
    },
    {
      "anonymous": false,
      "inputs": [
        {
          "indexed": false,
          "internalType": "uint256",
          "name": "_tokenId",
          "type": "uint256"
        }
      ],
      "name": "MetadataUpdate",
      "type": "event"
    },
    {
      "anonymous": false,
      "inputs": [
        {
          "indexed": true,
          "internalType": "address",
          "name": "from",
          "type": "address"
        },
        {
          "indexed": true,
          "internalType": "address",
          "name": "to",
          "type": "address"
        },
        {
          "indexed": true,
          "internalType": "uint256",
          "name": "tokenId",
          "type": "uint256"
        }
      ],
      "name": "Transfer",
      "type": "event"
    },
    {
      "anonymous": false,
      "inputs": [
        {
          "indexed": true,
          "internalType": "uint256",
          "name": "tokenId",
          "type": "uint256"
        },
        {
          "indexed": false,
          "internalType": "address payable",
          "name": "seller",
          "type": "address"
        },
        {
          "indexed": false,
          "internalType": "address payable",
          "name": "owner",
          "type": "address"
        },
        {
          "indexed": false,
          "internalType": "uint256",
          "name": "price",
          "type": "uint256"
        },
        {
          "indexed": false,
          "internalType": "bool",
          "name": "sold",
          "type": "bool"
        }
      ],
      "name": "idMarketItemCreated",
      "type": "event"
    },
    {
      "inputs": [
        {
          "internalType": "address",
          "name": "to",
          "type": "address"
        },
        {
          "internalType": "uint256",
          "name": "tokenId",
          "type": "uint256"
        }
      ],
      "name": "approve",
      "outputs": [],
      "stateMutability": "nonpayable",
      "type": "function"
    },
    {
      "inputs": [
        {
          "internalType": "address",
          "name": "owner",
          "type": "address"
        }
      ],
      "name": "balanceOf",
      "outputs": [
        {
          "internalType": "uint256",
          "name": "",
          "type": "uint256"
        }
      ],
      "stateMutability": "view",
      "type": "function"
    },
    {
      "inputs": [
        {
          "internalType": "uint256",
          "name": "tokenId",
          "type": "uint256"
        }
      ],
      "name": "createMarketSale",
      "outputs": [],
      "stateMutability": "payable",
      "type": "function"
    },
    {
      "inputs": [
        {
          "internalType": "string",
          "name": "tokenURI",
          "type": "string"
        },
        {
          "internalType": "uint256",
          "name": "price",
          "type": "uint256"
        }
      ],
      "name": "createToken",
      "outputs": [
        {
          "internalType": "uint256",
          "name": "",
          "type": "uint256"
        }
      ],
      "stateMutability": "payable",
      "type": "function"
    },
    {
      "inputs": [],
      "name": "fetchItemsListed",
      "outputs": [
        {
          "components": [
            {
              "internalType": "uint256",
              "name": "tokenId",
              "type": "uint256"
            },
            {
              "internalType": "address payable",
              "name": "seller",
              "type": "address"
            },
            {
              "internalType": "address payable",
              "name": "owner",
              "type": "address"
            },
            {
              "internalType": "uint256",
              "name": "price",
              "type": "uint256"
            },
            {
              "internalType": "bool",
              "name": "sold",
              "type": "bool"
            }
          ],
          "internalType": "struct NeftyBazaar.MarketItem[]",
          "name": "",
          "type": "tuple[]"
        }
      ],
      "stateMutability": "view",
      "type": "function"
    },
    {
      "inputs": [],
      "name": "fetchMarketItems",
      "outputs": [
        {
          "components": [
            {
              "internalType": "uint256",
              "name": "tokenId",
              "type": "uint256"
            },
            {
              "internalType": "address payable",
              "name": "seller",
              "type": "address"
            },
            {
              "internalType": "address payable",
              "name": "owner",
              "type": "address"
            },
            {
              "internalType": "uint256",
              "name": "price",
              "type": "uint256"
            },
            {
              "internalType": "bool",
              "name": "sold",
              "type": "bool"
            }
          ],
          "internalType": "struct NeftyBazaar.MarketItem[]",
          "name": "",
          "type": "tuple[]"
        }
      ],
      "stateMutability": "view",
      "type": "function"
    },
    {
      "inputs": [],
      "name": "fetchMyNFTs",
      "outputs": [
        {
          "components": [
            {
              "internalType": "uint256",
              "name": "tokenId",
              "type": "uint256"
            },
            {
              "internalType": "address payable",
              "name": "seller",
              "type": "address"
            },
            {
              "internalType": "address payable",
              "name": "owner",
              "type": "address"
            },
            {
              "internalType": "uint256",
              "name": "price",
              "type": "uint256"
            },
            {
              "internalType": "bool",
              "name": "sold",
              "type": "bool"
            }
          ],
          "internalType": "struct NeftyBazaar.MarketItem[]",
          "name": "",
          "type": "tuple[]"
        }
      ],
      "stateMutability": "view",
      "type": "function"
    },
    {
      "inputs": [
        {
          "internalType": "uint256",
          "name": "tokenId",
          "type": "uint256"
        }
      ],
      "name": "getApproved",
      "outputs": [
        {
          "internalType": "address",
          "name": "",
          "type": "address"
        }
      ],
      "stateMutability": "view",
      "type": "function"
    },
    {
      "inputs": [],
      "name": "getListingPrice",
      "outputs": [
        {
          "internalType": "uint256",
          "name": "",
          "type": "uint256"
        }
      ],
      "stateMutability": "view",
      "type": "function"
    },
    {
      "inputs": [
        {
          "internalType": "address",
          "name": "owner",
          "type": "address"
        },
        {
          "internalType": "address",
          "name": "operator",
          "type": "address"
        }
      ],
      "name": "isApprovedForAll",
      "outputs": [
        {
          "internalType": "bool",
          "name": "",
          "type": "bool"
        }
      ],
      "stateMutability": "view",
      "type": "function"
    },
    {
      "inputs": [],
      "name": "name",
      "outputs": [
        {
          "internalType": "string",
          "name": "",
          "type": "string"
        }
      ],
      "stateMutability": "view",
      "type": "function"
    },
    {
      "inputs": [
        {
          "internalType": "uint256",
          "name": "tokenId",
          "type": "uint256"
        }
      ],
      "name": "ownerOf",
      "outputs": [
        {
          "internalType": "address",
          "name": "",
          "type": "address"
        }
      ],
      "stateMutability": "view",
      "type": "function"
    },
    {
      "inputs": [
        {
          "internalType": "address",
          "name": "from",
          "type": "address"
        },
        {
          "internalType": "address",
          "name": "to",
          "type": "address"
        },
        {
          "internalType": "uint256",
          "name": "tokenId",
          "type": "uint256"
        }
      ],
      "name": "safeTransferFrom",
      "outputs": [],
      "stateMutability": "nonpayable",
      "type": "function"
    },
    {
      "inputs": [
        {
          "internalType": "address",
          "name": "from",
          "type": "address"
        },
        {
          "internalType": "address",
          "name": "to",
          "type": "address"
        },
        {
          "internalType": "uint256",
          "name": "tokenId",
          "type": "uint256"
        },
        {
          "internalType": "bytes",
          "name": "data",
          "type": "bytes"
        }
      ],
      "name": "safeTransferFrom",
      "outputs": [],
      "stateMutability": "nonpayable",
      "type": "function"
    },
    {
      "inputs": [
        {
          "internalType": "address",
          "name": "operator",
          "type": "address"
        },
        {
          "internalType": "bool",
          "name": "approved",
          "type": "bool"
        }
      ],
      "name": "setApprovalForAll",
      "outputs": [],
      "stateMutability": "nonpayable",
      "type": "function"
    },
    {
      "inputs": [
        {
          "internalType": "bytes4",
          "name": "interfaceId",
          "type": "bytes4"
        }
      ],
      "name": "supportsInterface",
      "outputs": [
        {
          "internalType": "bool",
          "name": "",
          "type": "bool"
        }
      ],
      "stateMutability": "view",
      "type": "function"
    },
    {
      "inputs": [],
      "name": "symbol",
      "outputs": [
        {
          "internalType": "string",
          "name": "",
          "type": "string"
        }
      ],
      "stateMutability": "view",
      "type": "function"
    },
    {
      "inputs": [
        {
          "internalType": "uint256",
          "name": "tokenId",
          "type": "uint256"
        }
      ],
      "name": "tokenURI",
      "outputs": [
        {
          "internalType": "string",
          "name": "",
          "type": "string"
        }
      ],
      "stateMutability": "view",
      "type": "function"
    },
    {
      "inputs": [
        {
          "internalType": "address",
          "name": "from",
          "type": "address"
        },
        {
          "internalType": "address",
          "name": "to",
          "type": "address"
        },
        {
          "internalType": "uint256",
          "name": "tokenId",
          "type": "uint256"
        }
      ],
      "name": "transferFrom",
      "outputs": [],
      "stateMutability": "nonpayable",
      "type": "function"
    },
    {
      "inputs": [
        {
          "internalType": "uint256",
          "name": "_listingPrice",
          "type": "uint256"
        }
      ],
      "name": "updateListingPrice",
      "outputs": [],
      "stateMutability": "payable",
      "type": "function"
    }
  ],
  "bytecode": "0x60806040526605543df729c000600a553480156200001c57600080fd5b506040518060400160405280601381526020017f4e4654204d657461566172736520546f6b656e000000000000000000000000008152506040518060400160405280600b81526020017f4e6566747942617a61617200000000000000000000000000000000000000000081525081600090816200009a919062000370565b508060019081620000ac919062000370565b50505033600960006101000a81548173ffffffffffffffffffffffffffffffffffffffff021916908373ffffffffffffffffffffffffffffffffffffffff16021790555062000457565b600081519050919050565b7f4e487b7100000000000000000000000000000000000000000000000000000000600052604160045260246000fd5b7f4e487b7100000000000000000000000000000000000000000000000000000000600052602260045260246000fd5b600060028204905060018216806200017857607f821691505b6020821081036200018e576200018d62000130565b5b50919050565b60008190508160005260206000209050919050565b60006020601f8301049050919050565b600082821b905092915050565b600060088302620001f87fffffffffffffffffffffffffffffffffffffffffffffffffffffffffffffffff82620001b9565b620002048683620001b9565b95508019841693508086168417925050509392505050565b6000819050919050565b6000819050919050565b6000620002516200024b62000245846200021c565b62000226565b6200021c565b9050919050565b6000819050919050565b6200026d8362000230565b620002856200027c8262000258565b848454620001c6565b825550505050565b600090565b6200029c6200028d565b620002a981848462000262565b505050565b5b81811015620002d157620002c560008262000292565b600181019050620002af565b5050565b601f8211156200032057620002ea8162000194565b620002f584620001a9565b8101602085101562000305578190505b6200031d6200031485620001a9565b830182620002ae565b50505b505050565b600082821c905092915050565b6000620003456000198460080262000325565b1980831691505092915050565b600062000360838362000332565b9150826002028217905092915050565b6200037b82620000f6565b67ffffffffffffffff81111562000397576200039662000101565b5b620003a382546200015f565b620003b0828285620002d5565b600060209050601f831160018114620003e85760008415620003d3578287015190505b620003df858262000352565b8655506200044f565b601f198416620003f88662000194565b60005b828110156200042257848901518255600182019150602085019450602081019050620003fb565b868310156200044257848901516200043e601f89168262000332565b8355505b6001600288020188555050505b505050505050565b6138dd80620004676000396000f3fe60806040526004361061011f5760003560e01c80636352211e116100a0578063ae677aa311610064578063ae677aa3146103ee578063b88d4fde1461040a578063be9af53614610433578063c87b56dd1461044f578063e985e9c51461048c5761011f565b80636352211e146102f057806370a082311461032d57806372b3b6201461036a57806395d89b411461039a578063a22cb465146103c55761011f565b806312e85585116100e757806312e855851461021d578063202e37401461024857806323b872dd1461027357806342842e0e1461029c57806345f8fa80146102c55761011f565b806301ffc9a71461012457806306fdde0314610161578063081812fc1461018c578063095ea7b3146101c95780630f08efe0146101f2575b600080fd5b34801561013057600080fd5b5061014b600480360381019061014691906128b0565b6104c9565b60405161015891906128f8565b60405180910390f35b34801561016d57600080fd5b5061017661052a565b60405161018391906129a3565b60405180910390f35b34801561019857600080fd5b506101b360048036038101906101ae91906129fb565b6105bc565b6040516101c09190612a69565b60405180910390f35b3480156101d557600080fd5b506101f060048036038101906101eb9190612ab0565b6105d8565b005b3480156101fe57600080fd5b506102076105ee565b6040516102149190612c46565b60405180910390f35b34801561022957600080fd5b5061023261083a565b60405161023f9190612c77565b60405180910390f35b34801561025457600080fd5b5061025d610844565b60405161026a9190612c46565b60405180910390f35b34801561027f57600080fd5b5061029a60048036038101906102959190612c92565b610b28565b005b3480156102a857600080fd5b506102c360048036038101906102be9190612c92565b610c2a565b005b3480156102d157600080fd5b506102da610c4a565b6040516102e79190612c46565b60405180910390f35b3480156102fc57600080fd5b50610317600480360381019061031291906129fb565b610f2e565b6040516103249190612a69565b60405180910390f35b34801561033957600080fd5b50610354600480360381019061034f9190612ce5565b610f40565b6040516103619190612c77565b60405180910390f35b610384600480360381019061037f9190612e47565b610ffa565b6040516103919190612c77565b60405180910390f35b3480156103a657600080fd5b506103af611043565b6040516103bc91906129a3565b60405180910390f35b3480156103d157600080fd5b506103ec60048036038101906103e79190612ecf565b6110d5565b005b610408600480360381019061040391906129fb565b6110eb565b005b34801561041657600080fd5b50610431600480360381019061042c9190612fb0565b611185565b005b61044d600480360381019061044891906129fb565b6111a2565b005b34801561045b57600080fd5b50610476600480360381019061047191906129fb565b6113e8565b60405161048391906129a3565b60405180910390f35b34801561049857600080fd5b506104b360048036038101906104ae9190613033565b6114fb565b6040516104c091906128f8565b60405180910390f35b6000634906490660e01b7bffffffffffffffffffffffffffffffffffffffffffffffffffffffff1916827bffffffffffffffffffffffffffffffffffffffffffffffffffffffff1916148061052357506105228261158f565b5b9050919050565b606060008054610539906130a2565b80601f0160208091040260200160405190810160405280929190818152602001828054610565906130a2565b80156105b25780601f10610587576101008083540402835291602001916105b2565b820191906000526020600020905b81548152906001019060200180831161059557829003601f168201915b5050505050905090565b60006105c782611671565b506105d1826116f9565b9050919050565b6105ea82826105e5611736565b61173e565b5050565b60606000600754905060006008546007546106099190613102565b90506000808267ffffffffffffffff81111561062857610627612d1c565b5b60405190808252806020026020018201604052801561066157816020015b61064e6127e7565b8152602001906001900390816106465790505b50905060005b8481101561082f573073ffffffffffffffffffffffffffffffffffffffff16600b60006001846106979190613136565b815260200190815260200160002060020160009054906101000a900473ffffffffffffffffffffffffffffffffffffffff1673ffffffffffffffffffffffffffffffffffffffff160361081c576000600b60006001846106f79190613136565b81526020019081526020016000209050806040518060a0016040529081600082015481526020016001820160009054906101000a900473ffffffffffffffffffffffffffffffffffffffff1673ffffffffffffffffffffffffffffffffffffffff1673ffffffffffffffffffffffffffffffffffffffff1681526020016002820160009054906101000a900473ffffffffffffffffffffffffffffffffffffffff1673ffffffffffffffffffffffffffffffffffffffff1673ffffffffffffffffffffffffffffffffffffffff168152602001600382015481526020016004820160009054906101000a900460ff1615151515815250508385815181106108015761080061316a565b5b6020026020010181905250838061081790613199565b945050505b808061082790613199565b915050610667565b508094505050505090565b6000600a54905090565b60606000600754905060008060005b838110156108f3573373ffffffffffffffffffffffffffffffffffffffff16600b60006001846108839190613136565b815260200190815260200160002060020160009054906101000a900473ffffffffffffffffffffffffffffffffffffffff1673ffffffffffffffffffffffffffffffffffffffff16036108e0576001836108dd9190613136565b92505b80806108eb90613199565b915050610853565b5060008267ffffffffffffffff8111156109105761090f612d1c565b5b60405190808252806020026020018201604052801561094957816020015b6109366127e7565b81526020019060019003908161092e5790505b50905060005b84811015610b1d573373ffffffffffffffffffffffffffffffffffffffff16600b600060018461097f9190613136565b815260200190815260200160002060020160009054906101000a900473ffffffffffffffffffffffffffffffffffffffff1673ffffffffffffffffffffffffffffffffffffffff1603610b0a5760006001826109db9190613136565b90506000600b60008381526020019081526020016000209050806040518060a0016040529081600082015481526020016001820160009054906101000a900473ffffffffffffffffffffffffffffffffffffffff1673ffffffffffffffffffffffffffffffffffffffff1673ffffffffffffffffffffffffffffffffffffffff1681526020016002820160009054906101000a900473ffffffffffffffffffffffffffffffffffffffff1673ffffffffffffffffffffffffffffffffffffffff1673ffffffffffffffffffffffffffffffffffffffff168152602001600382015481526020016004820160009054906101000a900460ff161515151581525050848681518110610aee57610aed61316a565b5b60200260200101819052508480610b0490613199565b95505050505b8080610b1590613199565b91505061094f565b508094505050505090565b600073ffffffffffffffffffffffffffffffffffffffff168273ffffffffffffffffffffffffffffffffffffffff1603610b9a5760006040517f64a0ae92000000000000000000000000000000000000000000000000000000008152600401610b919190612a69565b60405180910390fd5b6000610bae8383610ba9611736565b611750565b90508373ffffffffffffffffffffffffffffffffffffffff168173ffffffffffffffffffffffffffffffffffffffff1614610c24578382826040517f64283d7b000000000000000000000000000000000000000000000000000000008152600401610c1b939291906131e1565b60405180910390fd5b50505050565b610c4583838360405180602001604052806000815250611185565b505050565b60606000600754905060008060005b83811015610cf9573373ffffffffffffffffffffffffffffffffffffffff16600b6000600184610c899190613136565b815260200190815260200160002060010160009054906101000a900473ffffffffffffffffffffffffffffffffffffffff1673ffffffffffffffffffffffffffffffffffffffff1603610ce657600183610ce39190613136565b92505b8080610cf190613199565b915050610c59565b5060008267ffffffffffffffff811115610d1657610d15612d1c565b5b604051908082528060200260200182016040528015610d4f57816020015b610d3c6127e7565b815260200190600190039081610d345790505b50905060005b84811015610f23573373ffffffffffffffffffffffffffffffffffffffff16600b6000600184610d859190613136565b815260200190815260200160002060010160009054906101000a900473ffffffffffffffffffffffffffffffffffffffff1673ffffffffffffffffffffffffffffffffffffffff1603610f10576000600182610de19190613136565b90506000600b60008381526020019081526020016000209050806040518060a0016040529081600082015481526020016001820160009054906101000a900473ffffffffffffffffffffffffffffffffffffffff1673ffffffffffffffffffffffffffffffffffffffff1673ffffffffffffffffffffffffffffffffffffffff1681526020016002820160009054906101000a900473ffffffffffffffffffffffffffffffffffffffff1673ffffffffffffffffffffffffffffffffffffffff1673ffffffffffffffffffffffffffffffffffffffff168152602001600382015481526020016004820160009054906101000a900460ff161515151581525050848681518110610ef457610ef361316a565b5b60200260200101819052508480610f0a90613199565b95505050505b8080610f1b90613199565b915050610d55565b508094505050505090565b6000610f3982611671565b9050919050565b60008073ffffffffffffffffffffffffffffffffffffffff168273ffffffffffffffffffffffffffffffffffffffff1603610fb35760006040517f89c62b64000000000000000000000000000000000000000000000000000000008152600401610faa9190612a69565b60405180910390fd5b600360008373ffffffffffffffffffffffffffffffffffffffff1673ffffffffffffffffffffffffffffffffffffffff168152602001908152602001600020549050919050565b60006007600081548092919061100f90613199565b919050555060006007549050611025338261196a565b61102f8185611a63565b6110398184611abf565b8091505092915050565b606060018054611052906130a2565b80601f016020809104026020016040519081016040528092919081815260200182805461107e906130a2565b80156110cb5780601f106110a0576101008083540402835291602001916110cb565b820191906000526020600020905b8154815290600101906020018083116110ae57829003601f168201915b5050505050905090565b6110e76110e0611736565b8383611cc2565b5050565b600960009054906101000a900473ffffffffffffffffffffffffffffffffffffffff1673ffffffffffffffffffffffffffffffffffffffff163373ffffffffffffffffffffffffffffffffffffffff161461117b576040517f08c379a00000000000000000000000000000000000000000000000000000000081526004016111729061328a565b60405180910390fd5b80600a8190555050565b611190848484610b28565b61119c84848484611e31565b50505050565b6000600b60008381526020019081526020016000206003015490508034146111ff576040517f08c379a00000000000000000000000000000000000000000000000000000000081526004016111f69061331c565b60405180910390fd5b33600b600084815260200190815260200160002060020160006101000a81548173ffffffffffffffffffffffffffffffffffffffff021916908373ffffffffffffffffffffffffffffffffffffffff1602179055506001600b600084815260200190815260200160002060040160006101000a81548160ff0219169083151502179055506000600b600084815260200190815260200160002060010160006101000a81548173ffffffffffffffffffffffffffffffffffffffff021916908373ffffffffffffffffffffffffffffffffffffffff160217905550600860008154809291906112ec90613199565b91905055506112fc303384611fe8565b600960009054906101000a900473ffffffffffffffffffffffffffffffffffffffff1673ffffffffffffffffffffffffffffffffffffffff166108fc600a549081150290604051600060405180830381858888f19350505050158015611366573d6000803e3d6000fd5b50600b600083815260200190815260200160002060010160009054906101000a900473ffffffffffffffffffffffffffffffffffffffff1673ffffffffffffffffffffffffffffffffffffffff166108fc349081150290604051600060405180830381858888f193505050501580156113e3573d6000803e3d6000fd5b505050565b60606113f382611671565b506000600660008481526020019081526020016000208054611414906130a2565b80601f0160208091040260200160405190810160405280929190818152602001828054611440906130a2565b801561148d5780601f106114625761010080835404028352916020019161148d565b820191906000526020600020905b81548152906001019060200180831161147057829003601f168201915b50505050509050600061149e612155565b905060008151036114b35781925050506114f6565b6000825111156114e85780826040516020016114d0929190613378565b604051602081830303815290604052925050506114f6565b6114f18461216c565b925050505b919050565b6000600560008473ffffffffffffffffffffffffffffffffffffffff1673ffffffffffffffffffffffffffffffffffffffff16815260200190815260200160002060008373ffffffffffffffffffffffffffffffffffffffff1673ffffffffffffffffffffffffffffffffffffffff16815260200190815260200160002060009054906101000a900460ff16905092915050565b60007f80ac58cd000000000000000000000000000000000000000000000000000000007bffffffffffffffffffffffffffffffffffffffffffffffffffffffff1916827bffffffffffffffffffffffffffffffffffffffffffffffffffffffff1916148061165a57507f5b5e139f000000000000000000000000000000000000000000000000000000007bffffffffffffffffffffffffffffffffffffffffffffffffffffffff1916827bffffffffffffffffffffffffffffffffffffffffffffffffffffffff1916145b8061166a5750611669826121d5565b5b9050919050565b60008061167d8361223f565b9050600073ffffffffffffffffffffffffffffffffffffffff168173ffffffffffffffffffffffffffffffffffffffff16036116f057826040517f7e2732890000000000000000000000000000000000000000000000000000000081526004016116e79190612c77565b60405180910390fd5b80915050919050565b60006004600083815260200190815260200160002060009054906101000a900473ffffffffffffffffffffffffffffffffffffffff169050919050565b600033905090565b61174b838383600161227c565b505050565b60008061175c8461223f565b9050600073ffffffffffffffffffffffffffffffffffffffff168373ffffffffffffffffffffffffffffffffffffffff161461179e5761179d818486612441565b5b600073ffffffffffffffffffffffffffffffffffffffff168173ffffffffffffffffffffffffffffffffffffffff161461182f576117e060008560008061227c565b6001600360008373ffffffffffffffffffffffffffffffffffffffff1673ffffffffffffffffffffffffffffffffffffffff168152602001908152602001600020600082825403925050819055505b600073ffffffffffffffffffffffffffffffffffffffff168573ffffffffffffffffffffffffffffffffffffffff16146118b2576001600360008773ffffffffffffffffffffffffffffffffffffffff1673ffffffffffffffffffffffffffffffffffffffff168152602001908152602001600020600082825401925050819055505b846002600086815260200190815260200160002060006101000a81548173ffffffffffffffffffffffffffffffffffffffff021916908373ffffffffffffffffffffffffffffffffffffffff160217905550838573ffffffffffffffffffffffffffffffffffffffff168273ffffffffffffffffffffffffffffffffffffffff167fddf252ad1be2c89b69c2b068fc378daa952ba7f163c4a11628f55a4df523b3ef60405160405180910390a4809150509392505050565b600073ffffffffffffffffffffffffffffffffffffffff168273ffffffffffffffffffffffffffffffffffffffff16036119dc5760006040517f64a0ae920000000000000000000000000000000000000000000000000000000081526004016119d39190612a69565b60405180910390fd5b60006119ea83836000611750565b9050600073ffffffffffffffffffffffffffffffffffffffff168173ffffffffffffffffffffffffffffffffffffffff1614611a5e5760006040517f73c6ac6e000000000000000000000000000000000000000000000000000000008152600401611a559190612a69565b60405180910390fd5b505050565b80600660008481526020019081526020016000209081611a839190613548565b507ff8e1a15aba9398e019f0b49df1a4fde98ee17ae345cb5f6b5e2c27f5033e8ce782604051611ab39190612c77565b60405180910390a15050565b60008111611b02576040517f08c379a0000000000000000000000000000000000000000000000000000000008152600401611af990613666565b60405180910390fd5b600a543414611b46576040517f08c379a0000000000000000000000000000000000000000000000000000000008152600401611b3d906136f8565b60405180910390fd5b6040518060a001604052808381526020013373ffffffffffffffffffffffffffffffffffffffff1681526020013073ffffffffffffffffffffffffffffffffffffffff16815260200182815260200160001515815250600b60008481526020019081526020016000206000820151816000015560208201518160010160006101000a81548173ffffffffffffffffffffffffffffffffffffffff021916908373ffffffffffffffffffffffffffffffffffffffff16021790555060408201518160020160006101000a81548173ffffffffffffffffffffffffffffffffffffffff021916908373ffffffffffffffffffffffffffffffffffffffff1602179055506060820151816003015560808201518160040160006101000a81548160ff021916908315150217905550905050611c7f333084611fe8565b817fdebdb32cb5230ab727c9c361b16fdb2015df225c10e6a3e7f60ecd5dc5be45163330846000604051611cb69493929190613727565b60405180910390a25050565b600073ffffffffffffffffffffffffffffffffffffffff168273ffffffffffffffffffffffffffffffffffffffff1603611d3357816040517f5b08ba18000000000000000000000000000000000000000000000000000000008152600401611d2a9190612a69565b60405180910390fd5b80600560008573ffffffffffffffffffffffffffffffffffffffff1673ffffffffffffffffffffffffffffffffffffffff16815260200190815260200160002060008473ffffffffffffffffffffffffffffffffffffffff1673ffffffffffffffffffffffffffffffffffffffff16815260200190815260200160002060006101000a81548160ff0219169083151502179055508173ffffffffffffffffffffffffffffffffffffffff168373ffffffffffffffffffffffffffffffffffffffff167f17307eab39ab6107e8899845ad3d59bd9653f200f220920489ca2b5937696c3183604051611e2491906128f8565b60405180910390a3505050565b60008373ffffffffffffffffffffffffffffffffffffffff163b1115611fe2578273ffffffffffffffffffffffffffffffffffffffff1663150b7a02611e75611736565b8685856040518563ffffffff1660e01b8152600401611e9794939291906137c1565b6020604051808303816000875af1925050508015611ed357506040513d601f19601f82011682018060405250810190611ed09190613822565b60015b611f57573d8060008114611f03576040519150601f19603f3d011682016040523d82523d6000602084013e611f08565b606091505b506000815103611f4f57836040517f64a0ae92000000000000000000000000000000000000000000000000000000008152600401611f469190612a69565b60405180910390fd5b805181602001fd5b63150b7a0260e01b7bffffffffffffffffffffffffffffffffffffffffffffffffffffffff1916817bffffffffffffffffffffffffffffffffffffffffffffffffffffffff191614611fe057836040517f64a0ae92000000000000000000000000000000000000000000000000000000008152600401611fd79190612a69565b60405180910390fd5b505b50505050565b600073ffffffffffffffffffffffffffffffffffffffff168273ffffffffffffffffffffffffffffffffffffffff160361205a5760006040517f64a0ae920000000000000000000000000000000000000000000000000000000081526004016120519190612a69565b60405180910390fd5b600061206883836000611750565b9050600073ffffffffffffffffffffffffffffffffffffffff168173ffffffffffffffffffffffffffffffffffffffff16036120db57816040517f7e2732890000000000000000000000000000000000000000000000000000000081526004016120d29190612c77565b60405180910390fd5b8373ffffffffffffffffffffffffffffffffffffffff168173ffffffffffffffffffffffffffffffffffffffff161461214f578382826040517f64283d7b000000000000000000000000000000000000000000000000000000008152600401612146939291906131e1565b60405180910390fd5b50505050565b606060405180602001604052806000815250905090565b606061217782611671565b506000612182612155565b905060008151116121a257604051806020016040528060008152506121cd565b806121ac84612505565b6040516020016121bd929190613378565b6040516020818303038152906040525b915050919050565b60007f01ffc9a7000000000000000000000000000000000000000000000000000000007bffffffffffffffffffffffffffffffffffffffffffffffffffffffff1916827bffffffffffffffffffffffffffffffffffffffffffffffffffffffff1916149050919050565b60006002600083815260200190815260200160002060009054906101000a900473ffffffffffffffffffffffffffffffffffffffff169050919050565b80806122b55750600073ffffffffffffffffffffffffffffffffffffffff168273ffffffffffffffffffffffffffffffffffffffff1614155b156123e95760006122c584611671565b9050600073ffffffffffffffffffffffffffffffffffffffff168373ffffffffffffffffffffffffffffffffffffffff161415801561233057508273ffffffffffffffffffffffffffffffffffffffff168173ffffffffffffffffffffffffffffffffffffffff1614155b8015612343575061234181846114fb565b155b1561238557826040517fa9fbf51f00000000000000000000000000000000000000000000000000000000815260040161237c9190612a69565b60405180910390fd5b81156123e757838573ffffffffffffffffffffffffffffffffffffffff168273ffffffffffffffffffffffffffffffffffffffff167f8c5be1e5ebec7d5bd14f71427d1e84f3dd0314c0f7b2291e5b200ac8c7c3b92560405160405180910390a45b505b836004600085815260200190815260200160002060006101000a81548173ffffffffffffffffffffffffffffffffffffffff021916908373ffffffffffffffffffffffffffffffffffffffff16021790555050505050565b61244c8383836125d3565b61250057600073ffffffffffffffffffffffffffffffffffffffff168373ffffffffffffffffffffffffffffffffffffffff16036124c157806040517f7e2732890000000000000000000000000000000000000000000000000000000081526004016124b89190612c77565b60405180910390fd5b81816040517f177e802f0000000000000000000000000000000000000000000000000000000081526004016124f792919061384f565b60405180910390fd5b505050565b60606000600161251484612694565b01905060008167ffffffffffffffff81111561253357612532612d1c565b5b6040519080825280601f01601f1916602001820160405280156125655781602001600182028036833780820191505090505b509050600082602001820190505b6001156125c8578080600190039150507f3031323334353637383961626364656600000000000000000000000000000000600a86061a8153600a85816125bc576125bb613878565b5b04945060008503612573575b819350505050919050565b60008073ffffffffffffffffffffffffffffffffffffffff168373ffffffffffffffffffffffffffffffffffffffff161415801561268b57508273ffffffffffffffffffffffffffffffffffffffff168473ffffffffffffffffffffffffffffffffffffffff16148061264c575061264b84846114fb565b5b8061268a57508273ffffffffffffffffffffffffffffffffffffffff16612672836116f9565b73ffffffffffffffffffffffffffffffffffffffff16145b5b90509392505050565b600080600090507a184f03e93ff9f4daa797ed6e38ed64bf6a1f01000000000000000083106126f2577a184f03e93ff9f4daa797ed6e38ed64bf6a1f01000000000000000083816126e8576126e7613878565b5b0492506040810190505b6d04ee2d6d415b85acef8100000000831061272f576d04ee2d6d415b85acef8100000000838161272557612724613878565b5b0492506020810190505b662386f26fc10000831061275e57662386f26fc10000838161275457612753613878565b5b0492506010810190505b6305f5e1008310612787576305f5e100838161277d5761277c613878565b5b0492506008810190505b61271083106127ac5761271083816127a2576127a1613878565b5b0492506004810190505b606483106127cf57606483816127c5576127c4613878565b5b0492506002810190505b600a83106127de576001810190505b80915050919050565b6040518060a0016040528060008152602001600073ffffffffffffffffffffffffffffffffffffffff168152602001600073ffffffffffffffffffffffffffffffffffffffff168152602001600081526020016000151581525090565b6000604051905090565b600080fd5b600080fd5b60007fffffffff0000000000000000000000000000000000000000000000000000000082169050919050565b61288d81612858565b811461289857600080fd5b50565b6000813590506128aa81612884565b92915050565b6000602082840312156128c6576128c561284e565b5b60006128d48482850161289b565b91505092915050565b60008115159050919050565b6128f2816128dd565b82525050565b600060208201905061290d60008301846128e9565b92915050565b600081519050919050565b600082825260208201905092915050565b60005b8381101561294d578082015181840152602081019050612932565b60008484015250505050565b6000601f19601f8301169050919050565b600061297582612913565b61297f818561291e565b935061298f81856020860161292f565b61299881612959565b840191505092915050565b600060208201905081810360008301526129bd818461296a565b905092915050565b6000819050919050565b6129d8816129c5565b81146129e357600080fd5b50565b6000813590506129f5816129cf565b92915050565b600060208284031215612a1157612a1061284e565b5b6000612a1f848285016129e6565b91505092915050565b600073ffffffffffffffffffffffffffffffffffffffff82169050919050565b6000612a5382612a28565b9050919050565b612a6381612a48565b82525050565b6000602082019050612a7e6000830184612a5a565b92915050565b612a8d81612a48565b8114612a9857600080fd5b50565b600081359050612aaa81612a84565b92915050565b60008060408385031215612ac757612ac661284e565b5b6000612ad585828601612a9b565b9250506020612ae6858286016129e6565b9150509250929050565b600081519050919050565b600082825260208201905092915050565b6000819050602082019050919050565b612b25816129c5565b82525050565b6000612b3682612a28565b9050919050565b612b4681612b2b565b82525050565b612b55816128dd565b82525050565b60a082016000820151612b716000850182612b1c565b506020820151612b846020850182612b3d565b506040820151612b976040850182612b3d565b506060820151612baa6060850182612b1c565b506080820151612bbd6080850182612b4c565b50505050565b6000612bcf8383612b5b565b60a08301905092915050565b6000602082019050919050565b6000612bf382612af0565b612bfd8185612afb565b9350612c0883612b0c565b8060005b83811015612c39578151612c208882612bc3565b9750612c2b83612bdb565b925050600181019050612c0c565b5085935050505092915050565b60006020820190508181036000830152612c608184612be8565b905092915050565b612c71816129c5565b82525050565b6000602082019050612c8c6000830184612c68565b92915050565b600080600060608486031215612cab57612caa61284e565b5b6000612cb986828701612a9b565b9350506020612cca86828701612a9b565b9250506040612cdb868287016129e6565b9150509250925092565b600060208284031215612cfb57612cfa61284e565b5b6000612d0984828501612a9b565b91505092915050565b600080fd5b600080fd5b7f4e487b7100000000000000000000000000000000000000000000000000000000600052604160045260246000fd5b612d5482612959565b810181811067ffffffffffffffff82111715612d7357612d72612d1c565b5b80604052505050565b6000612d86612844565b9050612d928282612d4b565b919050565b600067ffffffffffffffff821115612db257612db1612d1c565b5b612dbb82612959565b9050602081019050919050565b82818337600083830152505050565b6000612dea612de584612d97565b612d7c565b905082815260208101848484011115612e0657612e05612d17565b5b612e11848285612dc8565b509392505050565b600082601f830112612e2e57612e2d612d12565b5b8135612e3e848260208601612dd7565b91505092915050565b60008060408385031215612e5e57612e5d61284e565b5b600083013567ffffffffffffffff811115612e7c57612e7b612853565b5b612e8885828601612e19565b9250506020612e99858286016129e6565b9150509250929050565b612eac816128dd565b8114612eb757600080fd5b50565b600081359050612ec981612ea3565b92915050565b60008060408385031215612ee657612ee561284e565b5b6000612ef485828601612a9b565b9250506020612f0585828601612eba565b9150509250929050565b600067ffffffffffffffff821115612f2a57612f29612d1c565b5b612f3382612959565b9050602081019050919050565b6000612f53612f4e84612f0f565b612d7c565b905082815260208101848484011115612f6f57612f6e612d17565b5b612f7a848285612dc8565b509392505050565b600082601f830112612f9757612f96612d12565b5b8135612fa7848260208601612f40565b91505092915050565b60008060008060808587031215612fca57612fc961284e565b5b6000612fd887828801612a9b565b9450506020612fe987828801612a9b565b9350506040612ffa878288016129e6565b925050606085013567ffffffffffffffff81111561301b5761301a612853565b5b61302787828801612f82565b91505092959194509250565b6000806040838503121561304a5761304961284e565b5b600061305885828601612a9b565b925050602061306985828601612a9b565b9150509250929050565b7f4e487b7100000000000000000000000000000000000000000000000000000000600052602260045260246000fd5b600060028204905060018216806130ba57607f821691505b6020821081036130cd576130cc613073565b5b50919050565b7f4e487b7100000000000000000000000000000000000000000000000000000000600052601160045260246000fd5b600061310d826129c5565b9150613118836129c5565b92508282039050818111156131305761312f6130d3565b5b92915050565b6000613141826129c5565b915061314c836129c5565b9250828201905080821115613164576131636130d3565b5b92915050565b7f4e487b7100000000000000000000000000000000000000000000000000000000600052603260045260246000fd5b60006131a4826129c5565b91507fffffffffffffffffffffffffffffffffffffffffffffffffffffffffffffffff82036131d6576131d56130d3565b5b600182019050919050565b60006060820190506131f66000830186612a5a565b6132036020830185612c68565b6132106040830184612a5a565b949350505050565b7f4f6e6c79204e6566747942617a6161722063616e20706572666f726d2074686960008201527f7320616374696f6e000000000000000000000000000000000000000000000000602082015250565b600061327460288361291e565b915061327f82613218565b604082019050919050565b600060208201905081810360008301526132a381613267565b9050919050565b7f506c65617365207375626d6974207468652061736b696e67207072696365206960008201527f6e206f7264657220746f20636f6d706c65746520746865207075726368617365602082015250565b600061330660408361291e565b9150613311826132aa565b604082019050919050565b60006020820190508181036000830152613335816132f9565b9050919050565b600081905092915050565b600061335282612913565b61335c818561333c565b935061336c81856020860161292f565b80840191505092915050565b60006133848285613347565b91506133908284613347565b91508190509392505050565b60008190508160005260206000209050919050565b60006020601f8301049050919050565b600082821b905092915050565b6000600883026133fe7fffffffffffffffffffffffffffffffffffffffffffffffffffffffffffffffff826133c1565b61340886836133c1565b95508019841693508086168417925050509392505050565b6000819050919050565b600061344561344061343b846129c5565b613420565b6129c5565b9050919050565b6000819050919050565b61345f8361342a565b61347361346b8261344c565b8484546133ce565b825550505050565b600090565b61348861347b565b613493818484613456565b505050565b5b818110156134b7576134ac600082613480565b600181019050613499565b5050565b601f8211156134fc576134cd8161339c565b6134d6846133b1565b810160208510156134e5578190505b6134f96134f1856133b1565b830182613498565b50505b505050565b600082821c905092915050565b600061351f60001984600802613501565b1980831691505092915050565b6000613538838361350e565b9150826002028217905092915050565b61355182612913565b67ffffffffffffffff81111561356a57613569612d1c565b5b61357482546130a2565b61357f8282856134bb565b600060209050601f8311600181146135b257600084156135a0578287015190505b6135aa858261352c565b865550613612565b601f1984166135c08661339c565b60005b828110156135e8578489015182556001820191506020850194506020810190506135c3565b868310156136055784890151613601601f89168261350e565b8355505b6001600288020188555050505b505050505050565b7f6e6574207072696365206d7573742062652067726561746572207468616e2030600082015250565b600061365060208361291e565b915061365b8261361a565b602082019050919050565b6000602082019050818103600083015261367f81613643565b9050919050565b7f6e6574207072696365206d75737420626520657175616c20746f206c6973746960008201527f6e67207072696365000000000000000000000000000000000000000000000000602082015250565b60006136e260288361291e565b91506136ed82613686565b604082019050919050565b60006020820190508181036000830152613711816136d5565b9050919050565b61372181612b2b565b82525050565b600060808201905061373c6000830187613718565b6137496020830186613718565b6137566040830185612c68565b61376360608301846128e9565b95945050505050565b600081519050919050565b600082825260208201905092915050565b60006137938261376c565b61379d8185613777565b93506137ad81856020860161292f565b6137b681612959565b840191505092915050565b60006080820190506137d66000830187612a5a565b6137e36020830186612a5a565b6137f06040830185612c68565b81810360608301526138028184613788565b905095945050505050565b60008151905061381c81612884565b92915050565b6000602082840312156138385761383761284e565b5b60006138468482850161380d565b91505092915050565b60006040820190506138646000830185612a5a565b6138716020830184612c68565b9392505050565b7f4e487b7100000000000000000000000000000000000000000000000000000000600052601260045260246000fdfea2646970667358221220a411109fb23ed9c59a503d0f2b188f0f82009758d0131e2f61ca3bdcbfc0208d64736f6c63430008140033",
  "linkReferences": {},
  "deployedLinkReferences": {}
}