{
  "_format": "hh-sol-artifact-1",
  "contractName": "NeftyBazaar",
  "sourceName": "contracts/NeftyBazaar.sol",
  "abi": [
    {
      "inputs": [],
      "stateMutability": "nonpayable",
      "type": "constructor"
    },
    {
      "inputs": [
        {
          "internalType": "address",
          "name": "sender",
          "type": "address"
        },
        {
          "internalType": "uint256",
          "name": "tokenId",
          "type": "uint256"
        },
        {
          "internalType": "address",
          "name": "owner",
          "type": "address"
        }
      ],
      "name": "ERC721IncorrectOwner",
      "type": "error"
    },
    {
      "inputs": [
        {
          "internalType": "address",
          "name": "operator",
          "type": "address"
        },
        {
          "internalType": "uint256",
          "name": "tokenId",
          "type": "uint256"
        }
      ],
      "name": "ERC721InsufficientApproval",
      "type": "error"
    },
    {
      "inputs": [
        {
          "internalType": "address",
          "name": "approver",
          "type": "address"
        }
      ],
      "name": "ERC721InvalidApprover",
      "type": "error"
    },
    {
      "inputs": [
        {
          "internalType": "address",
          "name": "operator",
          "type": "address"
        }
      ],
      "name": "ERC721InvalidOperator",
      "type": "error"
    },
    {
      "inputs": [
        {
          "internalType": "address",
          "name": "owner",
          "type": "address"
        }
      ],
      "name": "ERC721InvalidOwner",
      "type": "error"
    },
    {
      "inputs": [
        {
          "internalType": "address",
          "name": "receiver",
          "type": "address"
        }
      ],
      "name": "ERC721InvalidReceiver",
      "type": "error"
    },
    {
      "inputs": [
        {
          "internalType": "address",
          "name": "sender",
          "type": "address"
        }
      ],
      "name": "ERC721InvalidSender",
      "type": "error"
    },
    {
      "inputs": [
        {
          "internalType": "uint256",
          "name": "tokenId",
          "type": "uint256"
        }
      ],
      "name": "ERC721NonexistentToken",
      "type": "error"
    },
    {
      "anonymous": false,
      "inputs": [
        {
          "indexed": true,
          "internalType": "address",
          "name": "owner",
          "type": "address"
        },
        {
          "indexed": true,
          "internalType": "address",
          "name": "approved",
          "type": "address"
        },
        {
          "indexed": true,
          "internalType": "uint256",
          "name": "tokenId",
          "type": "uint256"
        }
      ],
      "name": "Approval",
      "type": "event"
    },
    {
      "anonymous": false,
      "inputs": [
        {
          "indexed": true,
          "internalType": "address",
          "name": "owner",
          "type": "address"
        },
        {
          "indexed": true,
          "internalType": "address",
          "name": "operator",
          "type": "address"
        },
        {
          "indexed": false,
          "internalType": "bool",
          "name": "approved",
          "type": "bool"
        }
      ],
      "name": "ApprovalForAll",
      "type": "event"
    },
    {
      "anonymous": false,
      "inputs": [
        {
          "indexed": false,
          "internalType": "uint256",
          "name": "_fromTokenId",
          "type": "uint256"
        },
        {
          "indexed": false,
          "internalType": "uint256",
          "name": "_toTokenId",
          "type": "uint256"
        }
      ],
      "name": "BatchMetadataUpdate",
      "type": "event"
    },
    {
      "anonymous": false,
      "inputs": [
        {
          "indexed": false,
          "internalType": "uint256",
          "name": "_tokenId",
          "type": "uint256"
        }
      ],
      "name": "MetadataUpdate",
      "type": "event"
    },
    {
      "anonymous": false,
      "inputs": [
        {
          "indexed": true,
          "internalType": "address",
          "name": "from",
          "type": "address"
        },
        {
          "indexed": true,
          "internalType": "address",
          "name": "to",
          "type": "address"
        },
        {
          "indexed": true,
          "internalType": "uint256",
          "name": "tokenId",
          "type": "uint256"
        }
      ],
      "name": "Transfer",
      "type": "event"
    },
    {
      "anonymous": false,
      "inputs": [
        {
          "indexed": true,
          "internalType": "uint256",
          "name": "tokenId",
          "type": "uint256"
        },
        {
          "indexed": false,
          "internalType": "address payable",
          "name": "seller",
          "type": "address"
        },
        {
          "indexed": false,
          "internalType": "address payable",
          "name": "owner",
          "type": "address"
        },
        {
          "indexed": false,
          "internalType": "uint256",
          "name": "price",
          "type": "uint256"
        },
        {
          "indexed": false,
          "internalType": "bool",
          "name": "sold",
          "type": "bool"
        }
      ],
      "name": "idMarketItemCreated",
      "type": "event"
    },
    {
      "inputs": [
        {
          "internalType": "address",
          "name": "to",
          "type": "address"
        },
        {
          "internalType": "uint256",
          "name": "tokenId",
          "type": "uint256"
        }
      ],
      "name": "approve",
      "outputs": [],
      "stateMutability": "nonpayable",
      "type": "function"
    },
    {
      "inputs": [
        {
          "internalType": "address",
          "name": "owner",
          "type": "address"
        }
      ],
      "name": "balanceOf",
      "outputs": [
        {
          "internalType": "uint256",
          "name": "",
          "type": "uint256"
        }
      ],
      "stateMutability": "view",
      "type": "function"
    },
    {
      "inputs": [
        {
          "internalType": "uint256",
          "name": "tokenId",
          "type": "uint256"
        }
      ],
      "name": "createMarketSale",
      "outputs": [],
      "stateMutability": "payable",
      "type": "function"
    },
    {
      "inputs": [
        {
          "internalType": "string",
          "name": "tokenURI",
          "type": "string"
        },
        {
          "internalType": "uint256",
          "name": "price",
          "type": "uint256"
        }
      ],
      "name": "createToken",
      "outputs": [
        {
          "internalType": "uint256",
          "name": "",
          "type": "uint256"
        }
      ],
      "stateMutability": "payable",
      "type": "function"
    },
    {
      "inputs": [],
      "name": "fetchItemsListed",
      "outputs": [
        {
          "components": [
            {
              "internalType": "uint256",
              "name": "tokenId",
              "type": "uint256"
            },
            {
              "internalType": "address payable",
              "name": "seller",
              "type": "address"
            },
            {
              "internalType": "address payable",
              "name": "owner",
              "type": "address"
            },
            {
              "internalType": "uint256",
              "name": "price",
              "type": "uint256"
            },
            {
              "internalType": "bool",
              "name": "sold",
              "type": "bool"
            }
          ],
          "internalType": "struct NeftyBazaar.MarketItem[]",
          "name": "",
          "type": "tuple[]"
        }
      ],
      "stateMutability": "view",
      "type": "function"
    },
    {
      "inputs": [],
      "name": "fetchMarketItem",
      "outputs": [
        {
          "components": [
            {
              "internalType": "uint256",
              "name": "tokenId",
              "type": "uint256"
            },
            {
              "internalType": "address payable",
              "name": "seller",
              "type": "address"
            },
            {
              "internalType": "address payable",
              "name": "owner",
              "type": "address"
            },
            {
              "internalType": "uint256",
              "name": "price",
              "type": "uint256"
            },
            {
              "internalType": "bool",
              "name": "sold",
              "type": "bool"
            }
          ],
          "internalType": "struct NeftyBazaar.MarketItem[]",
          "name": "",
          "type": "tuple[]"
        }
      ],
      "stateMutability": "view",
      "type": "function"
    },
    {
      "inputs": [],
      "name": "fetchMyNFTs",
      "outputs": [
        {
          "components": [
            {
              "internalType": "uint256",
              "name": "tokenId",
              "type": "uint256"
            },
            {
              "internalType": "address payable",
              "name": "seller",
              "type": "address"
            },
            {
              "internalType": "address payable",
              "name": "owner",
              "type": "address"
            },
            {
              "internalType": "uint256",
              "name": "price",
              "type": "uint256"
            },
            {
              "internalType": "bool",
              "name": "sold",
              "type": "bool"
            }
          ],
          "internalType": "struct NeftyBazaar.MarketItem[]",
          "name": "",
          "type": "tuple[]"
        }
      ],
      "stateMutability": "view",
      "type": "function"
    },
    {
      "inputs": [
        {
          "internalType": "uint256",
          "name": "tokenId",
          "type": "uint256"
        }
      ],
      "name": "getApproved",
      "outputs": [
        {
          "internalType": "address",
          "name": "",
          "type": "address"
        }
      ],
      "stateMutability": "view",
      "type": "function"
    },
    {
      "inputs": [],
      "name": "getListingPrice",
      "outputs": [
        {
          "internalType": "uint256",
          "name": "",
          "type": "uint256"
        }
      ],
      "stateMutability": "view",
      "type": "function"
    },
    {
      "inputs": [
        {
          "internalType": "address",
          "name": "owner",
          "type": "address"
        },
        {
          "internalType": "address",
          "name": "operator",
          "type": "address"
        }
      ],
      "name": "isApprovedForAll",
      "outputs": [
        {
          "internalType": "bool",
          "name": "",
          "type": "bool"
        }
      ],
      "stateMutability": "view",
      "type": "function"
    },
    {
      "inputs": [],
      "name": "name",
      "outputs": [
        {
          "internalType": "string",
          "name": "",
          "type": "string"
        }
      ],
      "stateMutability": "view",
      "type": "function"
    },
    {
      "inputs": [
        {
          "internalType": "uint256",
          "name": "tokenId",
          "type": "uint256"
        }
      ],
      "name": "ownerOf",
      "outputs": [
        {
          "internalType": "address",
          "name": "",
          "type": "address"
        }
      ],
      "stateMutability": "view",
      "type": "function"
    },
    {
      "inputs": [
        {
          "internalType": "address",
          "name": "from",
          "type": "address"
        },
        {
          "internalType": "address",
          "name": "to",
          "type": "address"
        },
        {
          "internalType": "uint256",
          "name": "tokenId",
          "type": "uint256"
        }
      ],
      "name": "safeTransferFrom",
      "outputs": [],
      "stateMutability": "nonpayable",
      "type": "function"
    },
    {
      "inputs": [
        {
          "internalType": "address",
          "name": "from",
          "type": "address"
        },
        {
          "internalType": "address",
          "name": "to",
          "type": "address"
        },
        {
          "internalType": "uint256",
          "name": "tokenId",
          "type": "uint256"
        },
        {
          "internalType": "bytes",
          "name": "data",
          "type": "bytes"
        }
      ],
      "name": "safeTransferFrom",
      "outputs": [],
      "stateMutability": "nonpayable",
      "type": "function"
    },
    {
      "inputs": [
        {
          "internalType": "address",
          "name": "operator",
          "type": "address"
        },
        {
          "internalType": "bool",
          "name": "approved",
          "type": "bool"
        }
      ],
      "name": "setApprovalForAll",
      "outputs": [],
      "stateMutability": "nonpayable",
      "type": "function"
    },
    {
      "inputs": [
        {
          "internalType": "bytes4",
          "name": "interfaceId",
          "type": "bytes4"
        }
      ],
      "name": "supportsInterface",
      "outputs": [
        {
          "internalType": "bool",
          "name": "",
          "type": "bool"
        }
      ],
      "stateMutability": "view",
      "type": "function"
    },
    {
      "inputs": [],
      "name": "symbol",
      "outputs": [
        {
          "internalType": "string",
          "name": "",
          "type": "string"
        }
      ],
      "stateMutability": "view",
      "type": "function"
    },
    {
      "inputs": [
        {
          "internalType": "uint256",
          "name": "tokenId",
          "type": "uint256"
        }
      ],
      "name": "tokenURI",
      "outputs": [
        {
          "internalType": "string",
          "name": "",
          "type": "string"
        }
      ],
      "stateMutability": "view",
      "type": "function"
    },
    {
      "inputs": [
        {
          "internalType": "address",
          "name": "from",
          "type": "address"
        },
        {
          "internalType": "address",
          "name": "to",
          "type": "address"
        },
        {
          "internalType": "uint256",
          "name": "tokenId",
          "type": "uint256"
        }
      ],
      "name": "transferFrom",
      "outputs": [],
      "stateMutability": "nonpayable",
      "type": "function"
    },
    {
      "inputs": [
        {
          "internalType": "uint256",
          "name": "_listingPrice",
          "type": "uint256"
        }
      ],
      "name": "updateListingPrice",
      "outputs": [],
      "stateMutability": "payable",
      "type": "function"
    }
  ],
  "bytecode": "0x60806040526605543df729c000600a553480156200001c57600080fd5b506040518060400160405280601381526020017f4e4654204d657461566172736520546f6b656e000000000000000000000000008152506040518060400160405280600b81526020017f4e6566747942617a61617200000000000000000000000000000000000000000081525081600090816200009a919062000370565b508060019081620000ac919062000370565b50505033600960006101000a81548173ffffffffffffffffffffffffffffffffffffffff021916908373ffffffffffffffffffffffffffffffffffffffff16021790555062000457565b600081519050919050565b7f4e487b7100000000000000000000000000000000000000000000000000000000600052604160045260246000fd5b7f4e487b7100000000000000000000000000000000000000000000000000000000600052602260045260246000fd5b600060028204905060018216806200017857607f821691505b6020821081036200018e576200018d62000130565b5b50919050565b60008190508160005260206000209050919050565b60006020601f8301049050919050565b600082821b905092915050565b600060088302620001f87fffffffffffffffffffffffffffffffffffffffffffffffffffffffffffffffff82620001b9565b620002048683620001b9565b95508019841693508086168417925050509392505050565b6000819050919050565b6000819050919050565b6000620002516200024b62000245846200021c565b62000226565b6200021c565b9050919050565b6000819050919050565b6200026d8362000230565b620002856200027c8262000258565b848454620001c6565b825550505050565b600090565b6200029c6200028d565b620002a981848462000262565b505050565b5b81811015620002d157620002c560008262000292565b600181019050620002af565b5050565b601f8211156200032057620002ea8162000194565b620002f584620001a9565b8101602085101562000305578190505b6200031d6200031485620001a9565b830182620002ae565b50505b505050565b600082821c905092915050565b6000620003456000198460080262000325565b1980831691505092915050565b600062000360838362000332565b9150826002028217905092915050565b6200037b82620000f6565b67ffffffffffffffff81111562000397576200039662000101565b5b620003a382546200015f565b620003b0828285620002d5565b600060209050601f831160018114620003e85760008415620003d3578287015190505b620003df858262000352565b8655506200044f565b601f198416620003f88662000194565b60005b828110156200042257848901518255600182019150602085019450602081019050620003fb565b868310156200044257848901516200043e601f89168262000332565b8355505b6001600288020188555050505b505050505050565b61383080620004676000396000f3fe60806040526004361061011f5760003560e01c806370a08231116100a0578063ae677aa311610064578063ae677aa3146103ee578063b88d4fde1461040a578063be9af53614610433578063c87b56dd1461044f578063e985e9c51461048c5761011f565b806370a082311461030257806372b3b6201461033f5780638fafd0211461036f57806395d89b411461039a578063a22cb465146103c55761011f565b8063202e3740116100e7578063202e37401461021d57806323b872dd1461024857806342842e0e1461027157806345f8fa801461029a5780636352211e146102c55761011f565b806301ffc9a71461012457806306fdde0314610161578063081812fc1461018c578063095ea7b3146101c957806312e85585146101f2575b600080fd5b34801561013057600080fd5b5061014b60048036038101906101469190612803565b6104c9565b604051610158919061284b565b60405180910390f35b34801561016d57600080fd5b5061017661052a565b60405161018391906128f6565b60405180910390f35b34801561019857600080fd5b506101b360048036038101906101ae919061294e565b6105bc565b6040516101c091906129bc565b60405180910390f35b3480156101d557600080fd5b506101f060048036038101906101eb9190612a03565b6105d8565b005b3480156101fe57600080fd5b506102076105ee565b6040516102149190612a52565b60405180910390f35b34801561022957600080fd5b506102326105f8565b60405161023f9190612bc3565b60405180910390f35b34801561025457600080fd5b5061026f600480360381019061026a9190612be5565b6108dc565b005b34801561027d57600080fd5b5061029860048036038101906102939190612be5565b6109de565b005b3480156102a657600080fd5b506102af6109fe565b6040516102bc9190612bc3565b60405180910390f35b3480156102d157600080fd5b506102ec60048036038101906102e7919061294e565b610c35565b6040516102f991906129bc565b60405180910390f35b34801561030e57600080fd5b5061032960048036038101906103249190612c38565b610c47565b6040516103369190612a52565b60405180910390f35b61035960048036038101906103549190612d9a565b610d01565b6040516103669190612a52565b60405180910390f35b34801561037b57600080fd5b50610384610d4a565b6040516103919190612bc3565b60405180910390f35b3480156103a657600080fd5b506103af610f96565b6040516103bc91906128f6565b60405180910390f35b3480156103d157600080fd5b506103ec60048036038101906103e79190612e22565b611028565b005b6104086004803603810190610403919061294e565b61103e565b005b34801561041657600080fd5b50610431600480360381019061042c9190612f03565b6110d8565b005b61044d6004803603810190610448919061294e565b6110f5565b005b34801561045b57600080fd5b506104766004803603810190610471919061294e565b61133b565b60405161048391906128f6565b60405180910390f35b34801561049857600080fd5b506104b360048036038101906104ae9190612f86565b61144e565b6040516104c0919061284b565b60405180910390f35b6000634906490660e01b7bffffffffffffffffffffffffffffffffffffffffffffffffffffffff1916827bffffffffffffffffffffffffffffffffffffffffffffffffffffffff191614806105235750610522826114e2565b5b9050919050565b60606000805461053990612ff5565b80601f016020809104026020016040519081016040528092919081815260200182805461056590612ff5565b80156105b25780601f10610587576101008083540402835291602001916105b2565b820191906000526020600020905b81548152906001019060200180831161059557829003601f168201915b5050505050905090565b60006105c7826115c4565b506105d18261164c565b9050919050565b6105ea82826105e5611689565b611691565b5050565b6000600a54905090565b60606000600754905060008060005b838110156106a7573373ffffffffffffffffffffffffffffffffffffffff16600b60006001846106379190613055565b815260200190815260200160002060020160009054906101000a900473ffffffffffffffffffffffffffffffffffffffff1673ffffffffffffffffffffffffffffffffffffffff1603610694576001836106919190613055565b92505b808061069f90613089565b915050610607565b5060008267ffffffffffffffff8111156106c4576106c3612c6f565b5b6040519080825280602002602001820160405280156106fd57816020015b6106ea61273a565b8152602001906001900390816106e25790505b50905060005b848110156108d1573373ffffffffffffffffffffffffffffffffffffffff16600b60006001846107339190613055565b815260200190815260200160002060020160009054906101000a900473ffffffffffffffffffffffffffffffffffffffff1673ffffffffffffffffffffffffffffffffffffffff16036108be57600060018261078f9190613055565b90506000600b60008381526020019081526020016000209050806040518060a0016040529081600082015481526020016001820160009054906101000a900473ffffffffffffffffffffffffffffffffffffffff1673ffffffffffffffffffffffffffffffffffffffff1673ffffffffffffffffffffffffffffffffffffffff1681526020016002820160009054906101000a900473ffffffffffffffffffffffffffffffffffffffff1673ffffffffffffffffffffffffffffffffffffffff1673ffffffffffffffffffffffffffffffffffffffff168152602001600382015481526020016004820160009054906101000a900460ff1615151515815250508486815181106108a2576108a16130d1565b5b602002602001018190525084806108b890613089565b95505050505b80806108c990613089565b915050610703565b508094505050505090565b600073ffffffffffffffffffffffffffffffffffffffff168273ffffffffffffffffffffffffffffffffffffffff160361094e5760006040517f64a0ae9200000000000000000000000000000000000000000000000000000000815260040161094591906129bc565b60405180910390fd5b6000610962838361095d611689565b6116a3565b90508373ffffffffffffffffffffffffffffffffffffffff168173ffffffffffffffffffffffffffffffffffffffff16146109d8578382826040517f64283d7b0000000000000000000000000000000000000000000000000000000081526004016109cf93929190613100565b60405180910390fd5b50505050565b6109f9838383604051806020016040528060008152506110d8565b505050565b6060600060075490506000808267ffffffffffffffff811115610a2457610a23612c6f565b5b604051908082528060200260200182016040528015610a5d57816020015b610a4a61273a565b815260200190600190039081610a425790505b50905060005b83811015610c2b573373ffffffffffffffffffffffffffffffffffffffff16600b6000600184610a939190613055565b815260200190815260200160002060010160009054906101000a900473ffffffffffffffffffffffffffffffffffffffff1673ffffffffffffffffffffffffffffffffffffffff1603610c18576000600b6000600184610af39190613055565b81526020019081526020016000209050806040518060a0016040529081600082015481526020016001820160009054906101000a900473ffffffffffffffffffffffffffffffffffffffff1673ffffffffffffffffffffffffffffffffffffffff1673ffffffffffffffffffffffffffffffffffffffff1681526020016002820160009054906101000a900473ffffffffffffffffffffffffffffffffffffffff1673ffffffffffffffffffffffffffffffffffffffff1673ffffffffffffffffffffffffffffffffffffffff168152602001600382015481526020016004820160009054906101000a900460ff161515151581525050838581518110610bfd57610bfc6130d1565b5b60200260200101819052508380610c1390613089565b945050505b8080610c2390613089565b915050610a63565b5080935050505090565b6000610c40826115c4565b9050919050565b60008073ffffffffffffffffffffffffffffffffffffffff168273ffffffffffffffffffffffffffffffffffffffff1603610cba5760006040517f89c62b64000000000000000000000000000000000000000000000000000000008152600401610cb191906129bc565b60405180910390fd5b600360008373ffffffffffffffffffffffffffffffffffffffff1673ffffffffffffffffffffffffffffffffffffffff168152602001908152602001600020549050919050565b600060076000815480929190610d1690613089565b919050555060006007549050610d2c33826118bd565b610d3681856119b6565b610d408184611a12565b8091505092915050565b6060600060075490506000600854600754610d659190613137565b90506000808267ffffffffffffffff811115610d8457610d83612c6f565b5b604051908082528060200260200182016040528015610dbd57816020015b610daa61273a565b815260200190600190039081610da25790505b50905060005b84811015610f8b573073ffffffffffffffffffffffffffffffffffffffff16600b6000600184610df39190613055565b815260200190815260200160002060020160009054906101000a900473ffffffffffffffffffffffffffffffffffffffff1673ffffffffffffffffffffffffffffffffffffffff1603610f78576000600b6000600184610e539190613055565b81526020019081526020016000209050806040518060a0016040529081600082015481526020016001820160009054906101000a900473ffffffffffffffffffffffffffffffffffffffff1673ffffffffffffffffffffffffffffffffffffffff1673ffffffffffffffffffffffffffffffffffffffff1681526020016002820160009054906101000a900473ffffffffffffffffffffffffffffffffffffffff1673ffffffffffffffffffffffffffffffffffffffff1673ffffffffffffffffffffffffffffffffffffffff168152602001600382015481526020016004820160009054906101000a900460ff161515151581525050838581518110610f5d57610f5c6130d1565b5b60200260200101819052508380610f7390613089565b945050505b8080610f8390613089565b915050610dc3565b508094505050505090565b606060018054610fa590612ff5565b80601f0160208091040260200160405190810160405280929190818152602001828054610fd190612ff5565b801561101e5780601f10610ff35761010080835404028352916020019161101e565b820191906000526020600020905b81548152906001019060200180831161100157829003601f168201915b5050505050905090565b61103a611033611689565b8383611c15565b5050565b600960009054906101000a900473ffffffffffffffffffffffffffffffffffffffff1673ffffffffffffffffffffffffffffffffffffffff163373ffffffffffffffffffffffffffffffffffffffff16146110ce576040517f08c379a00000000000000000000000000000000000000000000000000000000081526004016110c5906131dd565b60405180910390fd5b80600a8190555050565b6110e38484846108dc565b6110ef84848484611d84565b50505050565b6000600b6000838152602001908152602001600020600301549050803414611152576040517f08c379a00000000000000000000000000000000000000000000000000000000081526004016111499061326f565b60405180910390fd5b33600b600084815260200190815260200160002060020160006101000a81548173ffffffffffffffffffffffffffffffffffffffff021916908373ffffffffffffffffffffffffffffffffffffffff1602179055506001600b600084815260200190815260200160002060040160006101000a81548160ff0219169083151502179055506000600b600084815260200190815260200160002060010160006101000a81548173ffffffffffffffffffffffffffffffffffffffff021916908373ffffffffffffffffffffffffffffffffffffffff1602179055506008600081548092919061123f90613089565b919050555061124f303384611f3b565b600960009054906101000a900473ffffffffffffffffffffffffffffffffffffffff1673ffffffffffffffffffffffffffffffffffffffff166108fc600a549081150290604051600060405180830381858888f193505050501580156112b9573d6000803e3d6000fd5b50600b600083815260200190815260200160002060010160009054906101000a900473ffffffffffffffffffffffffffffffffffffffff1673ffffffffffffffffffffffffffffffffffffffff166108fc349081150290604051600060405180830381858888f19350505050158015611336573d6000803e3d6000fd5b505050565b6060611346826115c4565b50600060066000848152602001908152602001600020805461136790612ff5565b80601f016020809104026020016040519081016040528092919081815260200182805461139390612ff5565b80156113e05780601f106113b5576101008083540402835291602001916113e0565b820191906000526020600020905b8154815290600101906020018083116113c357829003601f168201915b5050505050905060006113f16120a8565b90506000815103611406578192505050611449565b60008251111561143b5780826040516020016114239291906132cb565b60405160208183030381529060405292505050611449565b611444846120bf565b925050505b919050565b6000600560008473ffffffffffffffffffffffffffffffffffffffff1673ffffffffffffffffffffffffffffffffffffffff16815260200190815260200160002060008373ffffffffffffffffffffffffffffffffffffffff1673ffffffffffffffffffffffffffffffffffffffff16815260200190815260200160002060009054906101000a900460ff16905092915050565b60007f80ac58cd000000000000000000000000000000000000000000000000000000007bffffffffffffffffffffffffffffffffffffffffffffffffffffffff1916827bffffffffffffffffffffffffffffffffffffffffffffffffffffffff191614806115ad57507f5b5e139f000000000000000000000000000000000000000000000000000000007bffffffffffffffffffffffffffffffffffffffffffffffffffffffff1916827bffffffffffffffffffffffffffffffffffffffffffffffffffffffff1916145b806115bd57506115bc82612128565b5b9050919050565b6000806115d083612192565b9050600073ffffffffffffffffffffffffffffffffffffffff168173ffffffffffffffffffffffffffffffffffffffff160361164357826040517f7e27328900000000000000000000000000000000000000000000000000000000815260040161163a9190612a52565b60405180910390fd5b80915050919050565b60006004600083815260200190815260200160002060009054906101000a900473ffffffffffffffffffffffffffffffffffffffff169050919050565b600033905090565b61169e83838360016121cf565b505050565b6000806116af84612192565b9050600073ffffffffffffffffffffffffffffffffffffffff168373ffffffffffffffffffffffffffffffffffffffff16146116f1576116f0818486612394565b5b600073ffffffffffffffffffffffffffffffffffffffff168173ffffffffffffffffffffffffffffffffffffffff1614611782576117336000856000806121cf565b6001600360008373ffffffffffffffffffffffffffffffffffffffff1673ffffffffffffffffffffffffffffffffffffffff168152602001908152602001600020600082825403925050819055505b600073ffffffffffffffffffffffffffffffffffffffff168573ffffffffffffffffffffffffffffffffffffffff1614611805576001600360008773ffffffffffffffffffffffffffffffffffffffff1673ffffffffffffffffffffffffffffffffffffffff168152602001908152602001600020600082825401925050819055505b846002600086815260200190815260200160002060006101000a81548173ffffffffffffffffffffffffffffffffffffffff021916908373ffffffffffffffffffffffffffffffffffffffff160217905550838573ffffffffffffffffffffffffffffffffffffffff168273ffffffffffffffffffffffffffffffffffffffff167fddf252ad1be2c89b69c2b068fc378daa952ba7f163c4a11628f55a4df523b3ef60405160405180910390a4809150509392505050565b600073ffffffffffffffffffffffffffffffffffffffff168273ffffffffffffffffffffffffffffffffffffffff160361192f5760006040517f64a0ae9200000000000000000000000000000000000000000000000000000000815260040161192691906129bc565b60405180910390fd5b600061193d838360006116a3565b9050600073ffffffffffffffffffffffffffffffffffffffff168173ffffffffffffffffffffffffffffffffffffffff16146119b15760006040517f73c6ac6e0000000000000000000000000000000000000000000000000000000081526004016119a891906129bc565b60405180910390fd5b505050565b806006600084815260200190815260200160002090816119d6919061349b565b507ff8e1a15aba9398e019f0b49df1a4fde98ee17ae345cb5f6b5e2c27f5033e8ce782604051611a069190612a52565b60405180910390a15050565b60008111611a55576040517f08c379a0000000000000000000000000000000000000000000000000000000008152600401611a4c906135b9565b60405180910390fd5b600a543414611a99576040517f08c379a0000000000000000000000000000000000000000000000000000000008152600401611a909061364b565b60405180910390fd5b6040518060a001604052808381526020013373ffffffffffffffffffffffffffffffffffffffff1681526020013073ffffffffffffffffffffffffffffffffffffffff16815260200182815260200160001515815250600b60008481526020019081526020016000206000820151816000015560208201518160010160006101000a81548173ffffffffffffffffffffffffffffffffffffffff021916908373ffffffffffffffffffffffffffffffffffffffff16021790555060408201518160020160006101000a81548173ffffffffffffffffffffffffffffffffffffffff021916908373ffffffffffffffffffffffffffffffffffffffff1602179055506060820151816003015560808201518160040160006101000a81548160ff021916908315150217905550905050611bd2333084611f3b565b817fdebdb32cb5230ab727c9c361b16fdb2015df225c10e6a3e7f60ecd5dc5be45163330846000604051611c09949392919061367a565b60405180910390a25050565b600073ffffffffffffffffffffffffffffffffffffffff168273ffffffffffffffffffffffffffffffffffffffff1603611c8657816040517f5b08ba18000000000000000000000000000000000000000000000000000000008152600401611c7d91906129bc565b60405180910390fd5b80600560008573ffffffffffffffffffffffffffffffffffffffff1673ffffffffffffffffffffffffffffffffffffffff16815260200190815260200160002060008473ffffffffffffffffffffffffffffffffffffffff1673ffffffffffffffffffffffffffffffffffffffff16815260200190815260200160002060006101000a81548160ff0219169083151502179055508173ffffffffffffffffffffffffffffffffffffffff168373ffffffffffffffffffffffffffffffffffffffff167f17307eab39ab6107e8899845ad3d59bd9653f200f220920489ca2b5937696c3183604051611d77919061284b565b60405180910390a3505050565b60008373ffffffffffffffffffffffffffffffffffffffff163b1115611f35578273ffffffffffffffffffffffffffffffffffffffff1663150b7a02611dc8611689565b8685856040518563ffffffff1660e01b8152600401611dea9493929190613714565b6020604051808303816000875af1925050508015611e2657506040513d601f19601f82011682018060405250810190611e239190613775565b60015b611eaa573d8060008114611e56576040519150601f19603f3d011682016040523d82523d6000602084013e611e5b565b606091505b506000815103611ea257836040517f64a0ae92000000000000000000000000000000000000000000000000000000008152600401611e9991906129bc565b60405180910390fd5b805181602001fd5b63150b7a0260e01b7bffffffffffffffffffffffffffffffffffffffffffffffffffffffff1916817bffffffffffffffffffffffffffffffffffffffffffffffffffffffff191614611f3357836040517f64a0ae92000000000000000000000000000000000000000000000000000000008152600401611f2a91906129bc565b60405180910390fd5b505b50505050565b600073ffffffffffffffffffffffffffffffffffffffff168273ffffffffffffffffffffffffffffffffffffffff1603611fad5760006040517f64a0ae92000000000000000000000000000000000000000000000000000000008152600401611fa491906129bc565b60405180910390fd5b6000611fbb838360006116a3565b9050600073ffffffffffffffffffffffffffffffffffffffff168173ffffffffffffffffffffffffffffffffffffffff160361202e57816040517f7e2732890000000000000000000000000000000000000000000000000000000081526004016120259190612a52565b60405180910390fd5b8373ffffffffffffffffffffffffffffffffffffffff168173ffffffffffffffffffffffffffffffffffffffff16146120a2578382826040517f64283d7b00000000000000000000000000000000000000000000000000000000815260040161209993929190613100565b60405180910390fd5b50505050565b606060405180602001604052806000815250905090565b60606120ca826115c4565b5060006120d56120a8565b905060008151116120f55760405180602001604052806000815250612120565b806120ff84612458565b6040516020016121109291906132cb565b6040516020818303038152906040525b915050919050565b60007f01ffc9a7000000000000000000000000000000000000000000000000000000007bffffffffffffffffffffffffffffffffffffffffffffffffffffffff1916827bffffffffffffffffffffffffffffffffffffffffffffffffffffffff1916149050919050565b60006002600083815260200190815260200160002060009054906101000a900473ffffffffffffffffffffffffffffffffffffffff169050919050565b80806122085750600073ffffffffffffffffffffffffffffffffffffffff168273ffffffffffffffffffffffffffffffffffffffff1614155b1561233c576000612218846115c4565b9050600073ffffffffffffffffffffffffffffffffffffffff168373ffffffffffffffffffffffffffffffffffffffff161415801561228357508273ffffffffffffffffffffffffffffffffffffffff168173ffffffffffffffffffffffffffffffffffffffff1614155b80156122965750612294818461144e565b155b156122d857826040517fa9fbf51f0000000000000000000000000000000000000000000000000000000081526004016122cf91906129bc565b60405180910390fd5b811561233a57838573ffffffffffffffffffffffffffffffffffffffff168273ffffffffffffffffffffffffffffffffffffffff167f8c5be1e5ebec7d5bd14f71427d1e84f3dd0314c0f7b2291e5b200ac8c7c3b92560405160405180910390a45b505b836004600085815260200190815260200160002060006101000a81548173ffffffffffffffffffffffffffffffffffffffff021916908373ffffffffffffffffffffffffffffffffffffffff16021790555050505050565b61239f838383612526565b61245357600073ffffffffffffffffffffffffffffffffffffffff168373ffffffffffffffffffffffffffffffffffffffff160361241457806040517f7e27328900000000000000000000000000000000000000000000000000000000815260040161240b9190612a52565b60405180910390fd5b81816040517f177e802f00000000000000000000000000000000000000000000000000000000815260040161244a9291906137a2565b60405180910390fd5b505050565b606060006001612467846125e7565b01905060008167ffffffffffffffff81111561248657612485612c6f565b5b6040519080825280601f01601f1916602001820160405280156124b85781602001600182028036833780820191505090505b509050600082602001820190505b60011561251b578080600190039150507f3031323334353637383961626364656600000000000000000000000000000000600a86061a8153600a858161250f5761250e6137cb565b5b049450600085036124c6575b819350505050919050565b60008073ffffffffffffffffffffffffffffffffffffffff168373ffffffffffffffffffffffffffffffffffffffff16141580156125de57508273ffffffffffffffffffffffffffffffffffffffff168473ffffffffffffffffffffffffffffffffffffffff16148061259f575061259e848461144e565b5b806125dd57508273ffffffffffffffffffffffffffffffffffffffff166125c58361164c565b73ffffffffffffffffffffffffffffffffffffffff16145b5b90509392505050565b600080600090507a184f03e93ff9f4daa797ed6e38ed64bf6a1f0100000000000000008310612645577a184f03e93ff9f4daa797ed6e38ed64bf6a1f010000000000000000838161263b5761263a6137cb565b5b0492506040810190505b6d04ee2d6d415b85acef81000000008310612682576d04ee2d6d415b85acef81000000008381612678576126776137cb565b5b0492506020810190505b662386f26fc1000083106126b157662386f26fc1000083816126a7576126a66137cb565b5b0492506010810190505b6305f5e10083106126da576305f5e10083816126d0576126cf6137cb565b5b0492506008810190505b61271083106126ff5761271083816126f5576126f46137cb565b5b0492506004810190505b606483106127225760648381612718576127176137cb565b5b0492506002810190505b600a8310612731576001810190505b80915050919050565b6040518060a0016040528060008152602001600073ffffffffffffffffffffffffffffffffffffffff168152602001600073ffffffffffffffffffffffffffffffffffffffff168152602001600081526020016000151581525090565b6000604051905090565b600080fd5b600080fd5b60007fffffffff0000000000000000000000000000000000000000000000000000000082169050919050565b6127e0816127ab565b81146127eb57600080fd5b50565b6000813590506127fd816127d7565b92915050565b600060208284031215612819576128186127a1565b5b6000612827848285016127ee565b91505092915050565b60008115159050919050565b61284581612830565b82525050565b6000602082019050612860600083018461283c565b92915050565b600081519050919050565b600082825260208201905092915050565b60005b838110156128a0578082015181840152602081019050612885565b60008484015250505050565b6000601f19601f8301169050919050565b60006128c882612866565b6128d28185612871565b93506128e2818560208601612882565b6128eb816128ac565b840191505092915050565b6000602082019050818103600083015261291081846128bd565b905092915050565b6000819050919050565b61292b81612918565b811461293657600080fd5b50565b60008135905061294881612922565b92915050565b600060208284031215612964576129636127a1565b5b600061297284828501612939565b91505092915050565b600073ffffffffffffffffffffffffffffffffffffffff82169050919050565b60006129a68261297b565b9050919050565b6129b68161299b565b82525050565b60006020820190506129d160008301846129ad565b92915050565b6129e08161299b565b81146129eb57600080fd5b50565b6000813590506129fd816129d7565b92915050565b60008060408385031215612a1a57612a196127a1565b5b6000612a28858286016129ee565b9250506020612a3985828601612939565b9150509250929050565b612a4c81612918565b82525050565b6000602082019050612a676000830184612a43565b92915050565b600081519050919050565b600082825260208201905092915050565b6000819050602082019050919050565b612aa281612918565b82525050565b6000612ab38261297b565b9050919050565b612ac381612aa8565b82525050565b612ad281612830565b82525050565b60a082016000820151612aee6000850182612a99565b506020820151612b016020850182612aba565b506040820151612b146040850182612aba565b506060820151612b276060850182612a99565b506080820151612b3a6080850182612ac9565b50505050565b6000612b4c8383612ad8565b60a08301905092915050565b6000602082019050919050565b6000612b7082612a6d565b612b7a8185612a78565b9350612b8583612a89565b8060005b83811015612bb6578151612b9d8882612b40565b9750612ba883612b58565b925050600181019050612b89565b5085935050505092915050565b60006020820190508181036000830152612bdd8184612b65565b905092915050565b600080600060608486031215612bfe57612bfd6127a1565b5b6000612c0c868287016129ee565b9350506020612c1d868287016129ee565b9250506040612c2e86828701612939565b9150509250925092565b600060208284031215612c4e57612c4d6127a1565b5b6000612c5c848285016129ee565b91505092915050565b600080fd5b600080fd5b7f4e487b7100000000000000000000000000000000000000000000000000000000600052604160045260246000fd5b612ca7826128ac565b810181811067ffffffffffffffff82111715612cc657612cc5612c6f565b5b80604052505050565b6000612cd9612797565b9050612ce58282612c9e565b919050565b600067ffffffffffffffff821115612d0557612d04612c6f565b5b612d0e826128ac565b9050602081019050919050565b82818337600083830152505050565b6000612d3d612d3884612cea565b612ccf565b905082815260208101848484011115612d5957612d58612c6a565b5b612d64848285612d1b565b509392505050565b600082601f830112612d8157612d80612c65565b5b8135612d91848260208601612d2a565b91505092915050565b60008060408385031215612db157612db06127a1565b5b600083013567ffffffffffffffff811115612dcf57612dce6127a6565b5b612ddb85828601612d6c565b9250506020612dec85828601612939565b9150509250929050565b612dff81612830565b8114612e0a57600080fd5b50565b600081359050612e1c81612df6565b92915050565b60008060408385031215612e3957612e386127a1565b5b6000612e47858286016129ee565b9250506020612e5885828601612e0d565b9150509250929050565b600067ffffffffffffffff821115612e7d57612e7c612c6f565b5b612e86826128ac565b9050602081019050919050565b6000612ea6612ea184612e62565b612ccf565b905082815260208101848484011115612ec257612ec1612c6a565b5b612ecd848285612d1b565b509392505050565b600082601f830112612eea57612ee9612c65565b5b8135612efa848260208601612e93565b91505092915050565b60008060008060808587031215612f1d57612f1c6127a1565b5b6000612f2b878288016129ee565b9450506020612f3c878288016129ee565b9350506040612f4d87828801612939565b925050606085013567ffffffffffffffff811115612f6e57612f6d6127a6565b5b612f7a87828801612ed5565b91505092959194509250565b60008060408385031215612f9d57612f9c6127a1565b5b6000612fab858286016129ee565b9250506020612fbc858286016129ee565b9150509250929050565b7f4e487b7100000000000000000000000000000000000000000000000000000000600052602260045260246000fd5b6000600282049050600182168061300d57607f821691505b6020821081036130205761301f612fc6565b5b50919050565b7f4e487b7100000000000000000000000000000000000000000000000000000000600052601160045260246000fd5b600061306082612918565b915061306b83612918565b925082820190508082111561308357613082613026565b5b92915050565b600061309482612918565b91507fffffffffffffffffffffffffffffffffffffffffffffffffffffffffffffffff82036130c6576130c5613026565b5b600182019050919050565b7f4e487b7100000000000000000000000000000000000000000000000000000000600052603260045260246000fd5b600060608201905061311560008301866129ad565b6131226020830185612a43565b61312f60408301846129ad565b949350505050565b600061314282612918565b915061314d83612918565b925082820390508181111561316557613164613026565b5b92915050565b7f4f6e6c79204e6566747942617a6161722063616e20706572666f726d2074686960008201527f7320616374696f6e000000000000000000000000000000000000000000000000602082015250565b60006131c7602883612871565b91506131d28261316b565b604082019050919050565b600060208201905081810360008301526131f6816131ba565b9050919050565b7f506c65617365207375626d6974207468652061736b696e67207072696365206960008201527f6e206f7264657220746f20636f6d706c65746520746865207075726368617365602082015250565b6000613259604083612871565b9150613264826131fd565b604082019050919050565b600060208201905081810360008301526132888161324c565b9050919050565b600081905092915050565b60006132a582612866565b6132af818561328f565b93506132bf818560208601612882565b80840191505092915050565b60006132d7828561329a565b91506132e3828461329a565b91508190509392505050565b60008190508160005260206000209050919050565b60006020601f8301049050919050565b600082821b905092915050565b6000600883026133517fffffffffffffffffffffffffffffffffffffffffffffffffffffffffffffffff82613314565b61335b8683613314565b95508019841693508086168417925050509392505050565b6000819050919050565b600061339861339361338e84612918565b613373565b612918565b9050919050565b6000819050919050565b6133b28361337d565b6133c66133be8261339f565b848454613321565b825550505050565b600090565b6133db6133ce565b6133e68184846133a9565b505050565b5b8181101561340a576133ff6000826133d3565b6001810190506133ec565b5050565b601f82111561344f57613420816132ef565b61342984613304565b81016020851015613438578190505b61344c61344485613304565b8301826133eb565b50505b505050565b600082821c905092915050565b600061347260001984600802613454565b1980831691505092915050565b600061348b8383613461565b9150826002028217905092915050565b6134a482612866565b67ffffffffffffffff8111156134bd576134bc612c6f565b5b6134c78254612ff5565b6134d282828561340e565b600060209050601f83116001811461350557600084156134f3578287015190505b6134fd858261347f565b865550613565565b601f198416613513866132ef565b60005b8281101561353b57848901518255600182019150602085019450602081019050613516565b868310156135585784890151613554601f891682613461565b8355505b6001600288020188555050505b505050505050565b7f6e6574207072696365206d7573742062652067726561746572207468616e2030600082015250565b60006135a3602083612871565b91506135ae8261356d565b602082019050919050565b600060208201905081810360008301526135d281613596565b9050919050565b7f6e6574207072696365206d75737420626520657175616c20746f206c6973746960008201527f6e67207072696365000000000000000000000000000000000000000000000000602082015250565b6000613635602883612871565b9150613640826135d9565b604082019050919050565b6000602082019050818103600083015261366481613628565b9050919050565b61367481612aa8565b82525050565b600060808201905061368f600083018761366b565b61369c602083018661366b565b6136a96040830185612a43565b6136b6606083018461283c565b95945050505050565b600081519050919050565b600082825260208201905092915050565b60006136e6826136bf565b6136f081856136ca565b9350613700818560208601612882565b613709816128ac565b840191505092915050565b600060808201905061372960008301876129ad565b61373660208301866129ad565b6137436040830185612a43565b818103606083015261375581846136db565b905095945050505050565b60008151905061376f816127d7565b92915050565b60006020828403121561378b5761378a6127a1565b5b600061379984828501613760565b91505092915050565b60006040820190506137b760008301856129ad565b6137c46020830184612a43565b9392505050565b7f4e487b7100000000000000000000000000000000000000000000000000000000600052601260045260246000fdfea2646970667358221220e164e0368470a18a443df0cf0652da28f97395f58c42c87e4a86028933cdabce64736f6c63430008140033",
  "linkReferences": {},
  "deployedLinkReferences": {}
}