{
  "_format": "hh-sol-artifact-1",
  "contractName": "NeftyBazaar",
  "sourceName": "contracts/NeftyBazaar.sol",
  "abi": [
    {
      "inputs": [],
      "stateMutability": "nonpayable",
      "type": "constructor"
    },
    {
      "inputs": [
        {
          "internalType": "address",
          "name": "sender",
          "type": "address"
        },
        {
          "internalType": "uint256",
          "name": "tokenId",
          "type": "uint256"
        },
        {
          "internalType": "address",
          "name": "owner",
          "type": "address"
        }
      ],
      "name": "ERC721IncorrectOwner",
      "type": "error"
    },
    {
      "inputs": [
        {
          "internalType": "address",
          "name": "operator",
          "type": "address"
        },
        {
          "internalType": "uint256",
          "name": "tokenId",
          "type": "uint256"
        }
      ],
      "name": "ERC721InsufficientApproval",
      "type": "error"
    },
    {
      "inputs": [
        {
          "internalType": "address",
          "name": "approver",
          "type": "address"
        }
      ],
      "name": "ERC721InvalidApprover",
      "type": "error"
    },
    {
      "inputs": [
        {
          "internalType": "address",
          "name": "operator",
          "type": "address"
        }
      ],
      "name": "ERC721InvalidOperator",
      "type": "error"
    },
    {
      "inputs": [
        {
          "internalType": "address",
          "name": "owner",
          "type": "address"
        }
      ],
      "name": "ERC721InvalidOwner",
      "type": "error"
    },
    {
      "inputs": [
        {
          "internalType": "address",
          "name": "receiver",
          "type": "address"
        }
      ],
      "name": "ERC721InvalidReceiver",
      "type": "error"
    },
    {
      "inputs": [
        {
          "internalType": "address",
          "name": "sender",
          "type": "address"
        }
      ],
      "name": "ERC721InvalidSender",
      "type": "error"
    },
    {
      "inputs": [
        {
          "internalType": "uint256",
          "name": "tokenId",
          "type": "uint256"
        }
      ],
      "name": "ERC721NonexistentToken",
      "type": "error"
    },
    {
      "anonymous": false,
      "inputs": [
        {
          "indexed": true,
          "internalType": "address",
          "name": "owner",
          "type": "address"
        },
        {
          "indexed": true,
          "internalType": "address",
          "name": "approved",
          "type": "address"
        },
        {
          "indexed": true,
          "internalType": "uint256",
          "name": "tokenId",
          "type": "uint256"
        }
      ],
      "name": "Approval",
      "type": "event"
    },
    {
      "anonymous": false,
      "inputs": [
        {
          "indexed": true,
          "internalType": "address",
          "name": "owner",
          "type": "address"
        },
        {
          "indexed": true,
          "internalType": "address",
          "name": "operator",
          "type": "address"
        },
        {
          "indexed": false,
          "internalType": "bool",
          "name": "approved",
          "type": "bool"
        }
      ],
      "name": "ApprovalForAll",
      "type": "event"
    },
    {
      "anonymous": false,
      "inputs": [
        {
          "indexed": false,
          "internalType": "uint256",
          "name": "_fromTokenId",
          "type": "uint256"
        },
        {
          "indexed": false,
          "internalType": "uint256",
          "name": "_toTokenId",
          "type": "uint256"
        }
      ],
      "name": "BatchMetadataUpdate",
      "type": "event"
    },
    {
      "anonymous": false,
      "inputs": [
        {
          "indexed": false,
          "internalType": "uint256",
          "name": "_tokenId",
          "type": "uint256"
        }
      ],
      "name": "MetadataUpdate",
      "type": "event"
    },
    {
      "anonymous": false,
      "inputs": [
        {
          "indexed": true,
          "internalType": "address",
          "name": "from",
          "type": "address"
        },
        {
          "indexed": true,
          "internalType": "address",
          "name": "to",
          "type": "address"
        },
        {
          "indexed": true,
          "internalType": "uint256",
          "name": "tokenId",
          "type": "uint256"
        }
      ],
      "name": "Transfer",
      "type": "event"
    },
    {
      "anonymous": false,
      "inputs": [
        {
          "indexed": true,
          "internalType": "uint256",
          "name": "tokenId",
          "type": "uint256"
        },
        {
          "indexed": false,
          "internalType": "address payable",
          "name": "seller",
          "type": "address"
        },
        {
          "indexed": false,
          "internalType": "address payable",
          "name": "owner",
          "type": "address"
        },
        {
          "indexed": false,
          "internalType": "uint256",
          "name": "price",
          "type": "uint256"
        },
        {
          "indexed": false,
          "internalType": "bool",
          "name": "sold",
          "type": "bool"
        }
      ],
      "name": "idMarketItemCreated",
      "type": "event"
    },
    {
      "inputs": [
        {
          "internalType": "address",
          "name": "to",
          "type": "address"
        },
        {
          "internalType": "uint256",
          "name": "tokenId",
          "type": "uint256"
        }
      ],
      "name": "approve",
      "outputs": [],
      "stateMutability": "nonpayable",
      "type": "function"
    },
    {
      "inputs": [
        {
          "internalType": "address",
          "name": "owner",
          "type": "address"
        }
      ],
      "name": "balanceOf",
      "outputs": [
        {
          "internalType": "uint256",
          "name": "",
          "type": "uint256"
        }
      ],
      "stateMutability": "view",
      "type": "function"
    },
    {
      "inputs": [
        {
          "internalType": "uint256",
          "name": "tokenId",
          "type": "uint256"
        }
      ],
      "name": "createMarketSale",
      "outputs": [],
      "stateMutability": "payable",
      "type": "function"
    },
    {
      "inputs": [
        {
          "internalType": "string",
          "name": "tokenURI",
          "type": "string"
        },
        {
          "internalType": "uint256",
          "name": "price",
          "type": "uint256"
        }
      ],
      "name": "createToken",
      "outputs": [
        {
          "internalType": "uint256",
          "name": "",
          "type": "uint256"
        }
      ],
      "stateMutability": "payable",
      "type": "function"
    },
    {
      "inputs": [],
      "name": "fetchMarketItem",
      "outputs": [
        {
          "components": [
            {
              "internalType": "uint256",
              "name": "tokenId",
              "type": "uint256"
            },
            {
              "internalType": "address payable",
              "name": "seller",
              "type": "address"
            },
            {
              "internalType": "address payable",
              "name": "owner",
              "type": "address"
            },
            {
              "internalType": "uint256",
              "name": "price",
              "type": "uint256"
            },
            {
              "internalType": "bool",
              "name": "sold",
              "type": "bool"
            }
          ],
          "internalType": "struct NeftyBazaar.MarketItem[]",
          "name": "",
          "type": "tuple[]"
        }
      ],
      "stateMutability": "view",
      "type": "function"
    },
    {
      "inputs": [],
      "name": "fetchMyNFTs",
      "outputs": [
        {
          "components": [
            {
              "internalType": "uint256",
              "name": "tokenId",
              "type": "uint256"
            },
            {
              "internalType": "address payable",
              "name": "seller",
              "type": "address"
            },
            {
              "internalType": "address payable",
              "name": "owner",
              "type": "address"
            },
            {
              "internalType": "uint256",
              "name": "price",
              "type": "uint256"
            },
            {
              "internalType": "bool",
              "name": "sold",
              "type": "bool"
            }
          ],
          "internalType": "struct NeftyBazaar.MarketItem[]",
          "name": "",
          "type": "tuple[]"
        }
      ],
      "stateMutability": "view",
      "type": "function"
    },
    {
      "inputs": [
        {
          "internalType": "uint256",
          "name": "tokenId",
          "type": "uint256"
        }
      ],
      "name": "getApproved",
      "outputs": [
        {
          "internalType": "address",
          "name": "",
          "type": "address"
        }
      ],
      "stateMutability": "view",
      "type": "function"
    },
    {
      "inputs": [],
      "name": "getListingPrice",
      "outputs": [
        {
          "internalType": "uint256",
          "name": "",
          "type": "uint256"
        }
      ],
      "stateMutability": "view",
      "type": "function"
    },
    {
      "inputs": [
        {
          "internalType": "address",
          "name": "owner",
          "type": "address"
        },
        {
          "internalType": "address",
          "name": "operator",
          "type": "address"
        }
      ],
      "name": "isApprovedForAll",
      "outputs": [
        {
          "internalType": "bool",
          "name": "",
          "type": "bool"
        }
      ],
      "stateMutability": "view",
      "type": "function"
    },
    {
      "inputs": [],
      "name": "name",
      "outputs": [
        {
          "internalType": "string",
          "name": "",
          "type": "string"
        }
      ],
      "stateMutability": "view",
      "type": "function"
    },
    {
      "inputs": [
        {
          "internalType": "uint256",
          "name": "tokenId",
          "type": "uint256"
        }
      ],
      "name": "ownerOf",
      "outputs": [
        {
          "internalType": "address",
          "name": "",
          "type": "address"
        }
      ],
      "stateMutability": "view",
      "type": "function"
    },
    {
      "inputs": [
        {
          "internalType": "uint256",
          "name": "tokenId",
          "type": "uint256"
        },
        {
          "internalType": "uint256",
          "name": "price",
          "type": "uint256"
        }
      ],
      "name": "reSaleToken",
      "outputs": [],
      "stateMutability": "payable",
      "type": "function"
    },
    {
      "inputs": [
        {
          "internalType": "address",
          "name": "from",
          "type": "address"
        },
        {
          "internalType": "address",
          "name": "to",
          "type": "address"
        },
        {
          "internalType": "uint256",
          "name": "tokenId",
          "type": "uint256"
        }
      ],
      "name": "safeTransferFrom",
      "outputs": [],
      "stateMutability": "nonpayable",
      "type": "function"
    },
    {
      "inputs": [
        {
          "internalType": "address",
          "name": "from",
          "type": "address"
        },
        {
          "internalType": "address",
          "name": "to",
          "type": "address"
        },
        {
          "internalType": "uint256",
          "name": "tokenId",
          "type": "uint256"
        },
        {
          "internalType": "bytes",
          "name": "data",
          "type": "bytes"
        }
      ],
      "name": "safeTransferFrom",
      "outputs": [],
      "stateMutability": "nonpayable",
      "type": "function"
    },
    {
      "inputs": [
        {
          "internalType": "address",
          "name": "operator",
          "type": "address"
        },
        {
          "internalType": "bool",
          "name": "approved",
          "type": "bool"
        }
      ],
      "name": "setApprovalForAll",
      "outputs": [],
      "stateMutability": "nonpayable",
      "type": "function"
    },
    {
      "inputs": [
        {
          "internalType": "bytes4",
          "name": "interfaceId",
          "type": "bytes4"
        }
      ],
      "name": "supportsInterface",
      "outputs": [
        {
          "internalType": "bool",
          "name": "",
          "type": "bool"
        }
      ],
      "stateMutability": "view",
      "type": "function"
    },
    {
      "inputs": [],
      "name": "symbol",
      "outputs": [
        {
          "internalType": "string",
          "name": "",
          "type": "string"
        }
      ],
      "stateMutability": "view",
      "type": "function"
    },
    {
      "inputs": [
        {
          "internalType": "uint256",
          "name": "tokenId",
          "type": "uint256"
        }
      ],
      "name": "tokenURI",
      "outputs": [
        {
          "internalType": "string",
          "name": "",
          "type": "string"
        }
      ],
      "stateMutability": "view",
      "type": "function"
    },
    {
      "inputs": [
        {
          "internalType": "address",
          "name": "from",
          "type": "address"
        },
        {
          "internalType": "address",
          "name": "to",
          "type": "address"
        },
        {
          "internalType": "uint256",
          "name": "tokenId",
          "type": "uint256"
        }
      ],
      "name": "transferFrom",
      "outputs": [],
      "stateMutability": "nonpayable",
      "type": "function"
    },
    {
      "inputs": [
        {
          "internalType": "uint256",
          "name": "_listingPrice",
          "type": "uint256"
        }
      ],
      "name": "updateListingPrice",
      "outputs": [],
      "stateMutability": "payable",
      "type": "function"
    }
  ],
  "bytecode": "0x60806040526605543df729c000600a553480156200001c57600080fd5b506040518060400160405280601381526020017f4e4654204d657461566172736520546f6b656e000000000000000000000000008152506040518060400160405280600b81526020017f4e6566747942617a61617200000000000000000000000000000000000000000081525081600090816200009a919062000370565b508060019081620000ac919062000370565b50505033600960006101000a81548173ffffffffffffffffffffffffffffffffffffffff021916908373ffffffffffffffffffffffffffffffffffffffff16021790555062000457565b600081519050919050565b7f4e487b7100000000000000000000000000000000000000000000000000000000600052604160045260246000fd5b7f4e487b7100000000000000000000000000000000000000000000000000000000600052602260045260246000fd5b600060028204905060018216806200017857607f821691505b6020821081036200018e576200018d62000130565b5b50919050565b60008190508160005260206000209050919050565b60006020601f8301049050919050565b600082821b905092915050565b600060088302620001f87fffffffffffffffffffffffffffffffffffffffffffffffffffffffffffffffff82620001b9565b620002048683620001b9565b95508019841693508086168417925050509392505050565b6000819050919050565b6000819050919050565b6000620002516200024b62000245846200021c565b62000226565b6200021c565b9050919050565b6000819050919050565b6200026d8362000230565b620002856200027c8262000258565b848454620001c6565b825550505050565b600090565b6200029c6200028d565b620002a981848462000262565b505050565b5b81811015620002d157620002c560008262000292565b600181019050620002af565b5050565b601f8211156200032057620002ea8162000194565b620002f584620001a9565b8101602085101562000305578190505b6200031d6200031485620001a9565b830182620002ae565b50505b505050565b600082821c905092915050565b6000620003456000198460080262000325565b1980831691505092915050565b600062000360838362000332565b9150826002028217905092915050565b6200037b82620000f6565b67ffffffffffffffff81111562000397576200039662000101565b5b620003a382546200015f565b620003b0828285620002d5565b600060209050601f831160018114620003e85760008415620003d3578287015190505b620003df858262000352565b8655506200044f565b601f198416620003f88662000194565b60005b828110156200042257848901518255600182019150602085019450602081019050620003fb565b868310156200044257848901516200043e601f89168262000332565b8355505b6001600288020188555050505b505050505050565b6138f080620004676000396000f3fe60806040526004361061011f5760003560e01c806370a08231116100a0578063ae677aa311610064578063ae677aa3146103df578063b88d4fde146103fb578063be9af53614610424578063c87b56dd14610440578063e985e9c51461047d5761011f565b806370a08231146102f357806372b3b620146103305780638fafd0211461036057806395d89b411461038b578063a22cb465146103b65761011f565b8063202e3740116100e7578063202e37401461021d57806323b872dd146102485780633aa15f311461027157806342842e0e1461028d5780636352211e146102b65761011f565b806301ffc9a71461012457806306fdde0314610161578063081812fc1461018c578063095ea7b3146101c957806312e85585146101f2575b600080fd5b34801561013057600080fd5b5061014b600480360381019061014691906127c8565b6104ba565b6040516101589190612810565b60405180910390f35b34801561016d57600080fd5b5061017661051b565b60405161018391906128bb565b60405180910390f35b34801561019857600080fd5b506101b360048036038101906101ae9190612913565b6105ad565b6040516101c09190612981565b60405180910390f35b3480156101d557600080fd5b506101f060048036038101906101eb91906129c8565b6105c9565b005b3480156101fe57600080fd5b506102076105df565b6040516102149190612a17565b60405180910390f35b34801561022957600080fd5b506102326105e9565b60405161023f9190612b88565b60405180910390f35b34801561025457600080fd5b5061026f600480360381019061026a9190612baa565b6108ce565b005b61028b60048036038101906102869190612bfd565b6109d0565b005b34801561029957600080fd5b506102b460048036038101906102af9190612baa565b610bd3565b005b3480156102c257600080fd5b506102dd60048036038101906102d89190612913565b610bf3565b6040516102ea9190612981565b60405180910390f35b3480156102ff57600080fd5b5061031a60048036038101906103159190612c3d565b610c05565b6040516103279190612a17565b60405180910390f35b61034a60048036038101906103459190612d9f565b610cbf565b6040516103579190612a17565b60405180910390f35b34801561036c57600080fd5b50610375610d09565b6040516103829190612b88565b60405180910390f35b34801561039757600080fd5b506103a0610f5b565b6040516103ad91906128bb565b60405180910390f35b3480156103c257600080fd5b506103dd60048036038101906103d89190612e27565b610fed565b005b6103f960048036038101906103f49190612913565b611003565b005b34801561040757600080fd5b50610422600480360381019061041d9190612f08565b61109d565b005b61043e60048036038101906104399190612913565b6110ba565b005b34801561044c57600080fd5b5061046760048036038101906104629190612913565b611300565b60405161047491906128bb565b60405180910390f35b34801561048957600080fd5b506104a4600480360381019061049f9190612f8b565b611413565b6040516104b19190612810565b60405180910390f35b6000634906490660e01b7bffffffffffffffffffffffffffffffffffffffffffffffffffffffff1916827bffffffffffffffffffffffffffffffffffffffffffffffffffffffff191614806105145750610513826114a7565b5b9050919050565b60606000805461052a90612ffa565b80601f016020809104026020016040519081016040528092919081815260200182805461055690612ffa565b80156105a35780601f10610578576101008083540402835291602001916105a3565b820191906000526020600020905b81548152906001019060200180831161058657829003601f168201915b5050505050905090565b60006105b882611589565b506105c282611611565b9050919050565b6105db82826105d661164e565b611656565b5050565b6000600a54905090565b60606000600754905060008060005b83811015610698573373ffffffffffffffffffffffffffffffffffffffff16600b6000600184610628919061305a565b815260200190815260200160002060020160009054906101000a900473ffffffffffffffffffffffffffffffffffffffff1673ffffffffffffffffffffffffffffffffffffffff160361068557600183610682919061305a565b92505b80806106909061308e565b9150506105f8565b5060008267ffffffffffffffff8111156106b5576106b4612c74565b5b6040519080825280602002602001820160405280156106ee57816020015b6106db6126ff565b8152602001906001900390816106d35790505b50905060005b848110156108c3573373ffffffffffffffffffffffffffffffffffffffff16600b6000600184610724919061305a565b815260200190815260200160002060020160009054906101000a900473ffffffffffffffffffffffffffffffffffffffff1673ffffffffffffffffffffffffffffffffffffffff16036108b0576000600182610780919061305a565b90506000600b60008381526020019081526020016000209050806040518060a0016040529081600082015481526020016001820160009054906101000a900473ffffffffffffffffffffffffffffffffffffffff1673ffffffffffffffffffffffffffffffffffffffff1673ffffffffffffffffffffffffffffffffffffffff1681526020016002820160009054906101000a900473ffffffffffffffffffffffffffffffffffffffff1673ffffffffffffffffffffffffffffffffffffffff1673ffffffffffffffffffffffffffffffffffffffff168152602001600382015481526020016004820160009054906101000a900460ff161515151581525050848681518110610893576108926130d6565b5b60200260200101819052506001856108ab919061305a565b945050505b80806108bb9061308e565b9150506106f4565b508094505050505090565b600073ffffffffffffffffffffffffffffffffffffffff168273ffffffffffffffffffffffffffffffffffffffff16036109405760006040517f64a0ae920000000000000000000000000000000000000000000000000000000081526004016109379190612981565b60405180910390fd5b6000610954838361094f61164e565b611668565b90508373ffffffffffffffffffffffffffffffffffffffff168173ffffffffffffffffffffffffffffffffffffffff16146109ca578382826040517f64283d7b0000000000000000000000000000000000000000000000000000000081526004016109c193929190613105565b60405180910390fd5b50505050565b3373ffffffffffffffffffffffffffffffffffffffff16600b600084815260200190815260200160002060020160009054906101000a900473ffffffffffffffffffffffffffffffffffffffff1673ffffffffffffffffffffffffffffffffffffffff1614610a74576040517f08c379a0000000000000000000000000000000000000000000000000000000008152600401610a6b906131ae565b60405180910390fd5b600a543411610ab8576040517f08c379a0000000000000000000000000000000000000000000000000000000008152600401610aaf90613240565b60405180910390fd5b6000600b600084815260200190815260200160002060040160006101000a81548160ff02191690831515021790555080600b60008481526020019081526020016000206003018190555033600b600084815260200190815260200160002060010160006101000a81548173ffffffffffffffffffffffffffffffffffffffff021916908373ffffffffffffffffffffffffffffffffffffffff16021790555030600b600084815260200190815260200160002060020160006101000a81548173ffffffffffffffffffffffffffffffffffffffff021916908373ffffffffffffffffffffffffffffffffffffffff16021790555060086000815480929190610bbf90613260565b9190505550610bcf333084611882565b5050565b610bee8383836040518060200160405280600081525061109d565b505050565b6000610bfe82611589565b9050919050565b60008073ffffffffffffffffffffffffffffffffffffffff168273ffffffffffffffffffffffffffffffffffffffff1603610c785760006040517f89c62b64000000000000000000000000000000000000000000000000000000008152600401610c6f9190612981565b60405180910390fd5b600360008373ffffffffffffffffffffffffffffffffffffffff1673ffffffffffffffffffffffffffffffffffffffff168152602001908152602001600020549050919050565b6000806007549050610cd133826119ef565b610cdb8185611ae8565b600160076000828254610cee919061305a565b92505081905550610cff8184611b44565b8091505092915050565b6060600060075490506000600854600754610d249190613289565b90506000808267ffffffffffffffff811115610d4357610d42612c74565b5b604051908082528060200260200182016040528015610d7c57816020015b610d696126ff565b815260200190600190039081610d615790505b50905060005b84811015610f50573073ffffffffffffffffffffffffffffffffffffffff16600b6000600184610db2919061305a565b815260200190815260200160002060020160009054906101000a900473ffffffffffffffffffffffffffffffffffffffff1673ffffffffffffffffffffffffffffffffffffffff1603610f3d576000600182610e0e919061305a565b90506000600b60008381526020019081526020016000209050806040518060a0016040529081600082015481526020016001820160009054906101000a900473ffffffffffffffffffffffffffffffffffffffff1673ffffffffffffffffffffffffffffffffffffffff1673ffffffffffffffffffffffffffffffffffffffff1681526020016002820160009054906101000a900473ffffffffffffffffffffffffffffffffffffffff1673ffffffffffffffffffffffffffffffffffffffff1673ffffffffffffffffffffffffffffffffffffffff168152602001600382015481526020016004820160009054906101000a900460ff161515151581525050848681518110610f2157610f206130d6565b5b60200260200101819052508480610f379061308e565b95505050505b8080610f489061308e565b915050610d82565b508094505050505090565b606060018054610f6a90612ffa565b80601f0160208091040260200160405190810160405280929190818152602001828054610f9690612ffa565b8015610fe35780601f10610fb857610100808354040283529160200191610fe3565b820191906000526020600020905b815481529060010190602001808311610fc657829003601f168201915b5050505050905090565b610fff610ff861164e565b8383611d47565b5050565b600960009054906101000a900473ffffffffffffffffffffffffffffffffffffffff1673ffffffffffffffffffffffffffffffffffffffff163373ffffffffffffffffffffffffffffffffffffffff1614611093576040517f08c379a000000000000000000000000000000000000000000000000000000000815260040161108a9061332f565b60405180910390fd5b80600a8190555050565b6110a88484846108ce565b6110b484848484611eb6565b50505050565b6000600b6000838152602001908152602001600020600301549050803414611117576040517f08c379a000000000000000000000000000000000000000000000000000000000815260040161110e906133c1565b60405180910390fd5b33600b600084815260200190815260200160002060020160006101000a81548173ffffffffffffffffffffffffffffffffffffffff021916908373ffffffffffffffffffffffffffffffffffffffff1602179055506001600b600084815260200190815260200160002060040160006101000a81548160ff0219169083151502179055506000600b600084815260200190815260200160002060020160006101000a81548173ffffffffffffffffffffffffffffffffffffffff021916908373ffffffffffffffffffffffffffffffffffffffff160217905550600860008154809291906112049061308e565b9190505550611214303384611882565b600960009054906101000a900473ffffffffffffffffffffffffffffffffffffffff1673ffffffffffffffffffffffffffffffffffffffff166108fc600a549081150290604051600060405180830381858888f1935050505015801561127e573d6000803e3d6000fd5b50600b600083815260200190815260200160002060010160009054906101000a900473ffffffffffffffffffffffffffffffffffffffff1673ffffffffffffffffffffffffffffffffffffffff166108fc349081150290604051600060405180830381858888f193505050501580156112fb573d6000803e3d6000fd5b505050565b606061130b82611589565b50600060066000848152602001908152602001600020805461132c90612ffa565b80601f016020809104026020016040519081016040528092919081815260200182805461135890612ffa565b80156113a55780601f1061137a576101008083540402835291602001916113a5565b820191906000526020600020905b81548152906001019060200180831161138857829003601f168201915b5050505050905060006113b661206d565b905060008151036113cb57819250505061140e565b6000825111156114005780826040516020016113e892919061341d565b6040516020818303038152906040529250505061140e565b61140984612084565b925050505b919050565b6000600560008473ffffffffffffffffffffffffffffffffffffffff1673ffffffffffffffffffffffffffffffffffffffff16815260200190815260200160002060008373ffffffffffffffffffffffffffffffffffffffff1673ffffffffffffffffffffffffffffffffffffffff16815260200190815260200160002060009054906101000a900460ff16905092915050565b60007f80ac58cd000000000000000000000000000000000000000000000000000000007bffffffffffffffffffffffffffffffffffffffffffffffffffffffff1916827bffffffffffffffffffffffffffffffffffffffffffffffffffffffff1916148061157257507f5b5e139f000000000000000000000000000000000000000000000000000000007bffffffffffffffffffffffffffffffffffffffffffffffffffffffff1916827bffffffffffffffffffffffffffffffffffffffffffffffffffffffff1916145b806115825750611581826120ed565b5b9050919050565b60008061159583612157565b9050600073ffffffffffffffffffffffffffffffffffffffff168173ffffffffffffffffffffffffffffffffffffffff160361160857826040517f7e2732890000000000000000000000000000000000000000000000000000000081526004016115ff9190612a17565b60405180910390fd5b80915050919050565b60006004600083815260200190815260200160002060009054906101000a900473ffffffffffffffffffffffffffffffffffffffff169050919050565b600033905090565b6116638383836001612194565b505050565b60008061167484612157565b9050600073ffffffffffffffffffffffffffffffffffffffff168373ffffffffffffffffffffffffffffffffffffffff16146116b6576116b5818486612359565b5b600073ffffffffffffffffffffffffffffffffffffffff168173ffffffffffffffffffffffffffffffffffffffff1614611747576116f8600085600080612194565b6001600360008373ffffffffffffffffffffffffffffffffffffffff1673ffffffffffffffffffffffffffffffffffffffff168152602001908152602001600020600082825403925050819055505b600073ffffffffffffffffffffffffffffffffffffffff168573ffffffffffffffffffffffffffffffffffffffff16146117ca576001600360008773ffffffffffffffffffffffffffffffffffffffff1673ffffffffffffffffffffffffffffffffffffffff168152602001908152602001600020600082825401925050819055505b846002600086815260200190815260200160002060006101000a81548173ffffffffffffffffffffffffffffffffffffffff021916908373ffffffffffffffffffffffffffffffffffffffff160217905550838573ffffffffffffffffffffffffffffffffffffffff168273ffffffffffffffffffffffffffffffffffffffff167fddf252ad1be2c89b69c2b068fc378daa952ba7f163c4a11628f55a4df523b3ef60405160405180910390a4809150509392505050565b600073ffffffffffffffffffffffffffffffffffffffff168273ffffffffffffffffffffffffffffffffffffffff16036118f45760006040517f64a0ae920000000000000000000000000000000000000000000000000000000081526004016118eb9190612981565b60405180910390fd5b600061190283836000611668565b9050600073ffffffffffffffffffffffffffffffffffffffff168173ffffffffffffffffffffffffffffffffffffffff160361197557816040517f7e27328900000000000000000000000000000000000000000000000000000000815260040161196c9190612a17565b60405180910390fd5b8373ffffffffffffffffffffffffffffffffffffffff168173ffffffffffffffffffffffffffffffffffffffff16146119e9578382826040517f64283d7b0000000000000000000000000000000000000000000000000000000081526004016119e093929190613105565b60405180910390fd5b50505050565b600073ffffffffffffffffffffffffffffffffffffffff168273ffffffffffffffffffffffffffffffffffffffff1603611a615760006040517f64a0ae92000000000000000000000000000000000000000000000000000000008152600401611a589190612981565b60405180910390fd5b6000611a6f83836000611668565b9050600073ffffffffffffffffffffffffffffffffffffffff168173ffffffffffffffffffffffffffffffffffffffff1614611ae35760006040517f73c6ac6e000000000000000000000000000000000000000000000000000000008152600401611ada9190612981565b60405180910390fd5b505050565b80600660008481526020019081526020016000209081611b0891906135ed565b507ff8e1a15aba9398e019f0b49df1a4fde98ee17ae345cb5f6b5e2c27f5033e8ce782604051611b389190612a17565b60405180910390a15050565b60008111611b87576040517f08c379a0000000000000000000000000000000000000000000000000000000008152600401611b7e9061370b565b60405180910390fd5b600a543411611bcb576040517f08c379a0000000000000000000000000000000000000000000000000000000008152600401611bc290613240565b60405180910390fd5b6040518060a001604052808381526020013373ffffffffffffffffffffffffffffffffffffffff1681526020013073ffffffffffffffffffffffffffffffffffffffff16815260200182815260200160001515815250600b60008481526020019081526020016000206000820151816000015560208201518160010160006101000a81548173ffffffffffffffffffffffffffffffffffffffff021916908373ffffffffffffffffffffffffffffffffffffffff16021790555060408201518160020160006101000a81548173ffffffffffffffffffffffffffffffffffffffff021916908373ffffffffffffffffffffffffffffffffffffffff1602179055506060820151816003015560808201518160040160006101000a81548160ff021916908315150217905550905050611d04333084611882565b817fdebdb32cb5230ab727c9c361b16fdb2015df225c10e6a3e7f60ecd5dc5be45163330846000604051611d3b949392919061373a565b60405180910390a25050565b600073ffffffffffffffffffffffffffffffffffffffff168273ffffffffffffffffffffffffffffffffffffffff1603611db857816040517f5b08ba18000000000000000000000000000000000000000000000000000000008152600401611daf9190612981565b60405180910390fd5b80600560008573ffffffffffffffffffffffffffffffffffffffff1673ffffffffffffffffffffffffffffffffffffffff16815260200190815260200160002060008473ffffffffffffffffffffffffffffffffffffffff1673ffffffffffffffffffffffffffffffffffffffff16815260200190815260200160002060006101000a81548160ff0219169083151502179055508173ffffffffffffffffffffffffffffffffffffffff168373ffffffffffffffffffffffffffffffffffffffff167f17307eab39ab6107e8899845ad3d59bd9653f200f220920489ca2b5937696c3183604051611ea99190612810565b60405180910390a3505050565b60008373ffffffffffffffffffffffffffffffffffffffff163b1115612067578273ffffffffffffffffffffffffffffffffffffffff1663150b7a02611efa61164e565b8685856040518563ffffffff1660e01b8152600401611f1c94939291906137d4565b6020604051808303816000875af1925050508015611f5857506040513d601f19601f82011682018060405250810190611f559190613835565b60015b611fdc573d8060008114611f88576040519150601f19603f3d011682016040523d82523d6000602084013e611f8d565b606091505b506000815103611fd457836040517f64a0ae92000000000000000000000000000000000000000000000000000000008152600401611fcb9190612981565b60405180910390fd5b805181602001fd5b63150b7a0260e01b7bffffffffffffffffffffffffffffffffffffffffffffffffffffffff1916817bffffffffffffffffffffffffffffffffffffffffffffffffffffffff19161461206557836040517f64a0ae9200000000000000000000000000000000000000000000000000000000815260040161205c9190612981565b60405180910390fd5b505b50505050565b606060405180602001604052806000815250905090565b606061208f82611589565b50600061209a61206d565b905060008151116120ba57604051806020016040528060008152506120e5565b806120c48461241d565b6040516020016120d592919061341d565b6040516020818303038152906040525b915050919050565b60007f01ffc9a7000000000000000000000000000000000000000000000000000000007bffffffffffffffffffffffffffffffffffffffffffffffffffffffff1916827bffffffffffffffffffffffffffffffffffffffffffffffffffffffff1916149050919050565b60006002600083815260200190815260200160002060009054906101000a900473ffffffffffffffffffffffffffffffffffffffff169050919050565b80806121cd5750600073ffffffffffffffffffffffffffffffffffffffff168273ffffffffffffffffffffffffffffffffffffffff1614155b156123015760006121dd84611589565b9050600073ffffffffffffffffffffffffffffffffffffffff168373ffffffffffffffffffffffffffffffffffffffff161415801561224857508273ffffffffffffffffffffffffffffffffffffffff168173ffffffffffffffffffffffffffffffffffffffff1614155b801561225b57506122598184611413565b155b1561229d57826040517fa9fbf51f0000000000000000000000000000000000000000000000000000000081526004016122949190612981565b60405180910390fd5b81156122ff57838573ffffffffffffffffffffffffffffffffffffffff168273ffffffffffffffffffffffffffffffffffffffff167f8c5be1e5ebec7d5bd14f71427d1e84f3dd0314c0f7b2291e5b200ac8c7c3b92560405160405180910390a45b505b836004600085815260200190815260200160002060006101000a81548173ffffffffffffffffffffffffffffffffffffffff021916908373ffffffffffffffffffffffffffffffffffffffff16021790555050505050565b6123648383836124eb565b61241857600073ffffffffffffffffffffffffffffffffffffffff168373ffffffffffffffffffffffffffffffffffffffff16036123d957806040517f7e2732890000000000000000000000000000000000000000000000000000000081526004016123d09190612a17565b60405180910390fd5b81816040517f177e802f00000000000000000000000000000000000000000000000000000000815260040161240f929190613862565b60405180910390fd5b505050565b60606000600161242c846125ac565b01905060008167ffffffffffffffff81111561244b5761244a612c74565b5b6040519080825280601f01601f19166020018201604052801561247d5781602001600182028036833780820191505090505b509050600082602001820190505b6001156124e0578080600190039150507f3031323334353637383961626364656600000000000000000000000000000000600a86061a8153600a85816124d4576124d361388b565b5b0494506000850361248b575b819350505050919050565b60008073ffffffffffffffffffffffffffffffffffffffff168373ffffffffffffffffffffffffffffffffffffffff16141580156125a357508273ffffffffffffffffffffffffffffffffffffffff168473ffffffffffffffffffffffffffffffffffffffff16148061256457506125638484611413565b5b806125a257508273ffffffffffffffffffffffffffffffffffffffff1661258a83611611565b73ffffffffffffffffffffffffffffffffffffffff16145b5b90509392505050565b600080600090507a184f03e93ff9f4daa797ed6e38ed64bf6a1f010000000000000000831061260a577a184f03e93ff9f4daa797ed6e38ed64bf6a1f0100000000000000008381612600576125ff61388b565b5b0492506040810190505b6d04ee2d6d415b85acef81000000008310612647576d04ee2d6d415b85acef8100000000838161263d5761263c61388b565b5b0492506020810190505b662386f26fc10000831061267657662386f26fc10000838161266c5761266b61388b565b5b0492506010810190505b6305f5e100831061269f576305f5e10083816126955761269461388b565b5b0492506008810190505b61271083106126c45761271083816126ba576126b961388b565b5b0492506004810190505b606483106126e757606483816126dd576126dc61388b565b5b0492506002810190505b600a83106126f6576001810190505b80915050919050565b6040518060a0016040528060008152602001600073ffffffffffffffffffffffffffffffffffffffff168152602001600073ffffffffffffffffffffffffffffffffffffffff168152602001600081526020016000151581525090565b6000604051905090565b600080fd5b600080fd5b60007fffffffff0000000000000000000000000000000000000000000000000000000082169050919050565b6127a581612770565b81146127b057600080fd5b50565b6000813590506127c28161279c565b92915050565b6000602082840312156127de576127dd612766565b5b60006127ec848285016127b3565b91505092915050565b60008115159050919050565b61280a816127f5565b82525050565b60006020820190506128256000830184612801565b92915050565b600081519050919050565b600082825260208201905092915050565b60005b8381101561286557808201518184015260208101905061284a565b60008484015250505050565b6000601f19601f8301169050919050565b600061288d8261282b565b6128978185612836565b93506128a7818560208601612847565b6128b081612871565b840191505092915050565b600060208201905081810360008301526128d58184612882565b905092915050565b6000819050919050565b6128f0816128dd565b81146128fb57600080fd5b50565b60008135905061290d816128e7565b92915050565b60006020828403121561292957612928612766565b5b6000612937848285016128fe565b91505092915050565b600073ffffffffffffffffffffffffffffffffffffffff82169050919050565b600061296b82612940565b9050919050565b61297b81612960565b82525050565b60006020820190506129966000830184612972565b92915050565b6129a581612960565b81146129b057600080fd5b50565b6000813590506129c28161299c565b92915050565b600080604083850312156129df576129de612766565b5b60006129ed858286016129b3565b92505060206129fe858286016128fe565b9150509250929050565b612a11816128dd565b82525050565b6000602082019050612a2c6000830184612a08565b92915050565b600081519050919050565b600082825260208201905092915050565b6000819050602082019050919050565b612a67816128dd565b82525050565b6000612a7882612940565b9050919050565b612a8881612a6d565b82525050565b612a97816127f5565b82525050565b60a082016000820151612ab36000850182612a5e565b506020820151612ac66020850182612a7f565b506040820151612ad96040850182612a7f565b506060820151612aec6060850182612a5e565b506080820151612aff6080850182612a8e565b50505050565b6000612b118383612a9d565b60a08301905092915050565b6000602082019050919050565b6000612b3582612a32565b612b3f8185612a3d565b9350612b4a83612a4e565b8060005b83811015612b7b578151612b628882612b05565b9750612b6d83612b1d565b925050600181019050612b4e565b5085935050505092915050565b60006020820190508181036000830152612ba28184612b2a565b905092915050565b600080600060608486031215612bc357612bc2612766565b5b6000612bd1868287016129b3565b9350506020612be2868287016129b3565b9250506040612bf3868287016128fe565b9150509250925092565b60008060408385031215612c1457612c13612766565b5b6000612c22858286016128fe565b9250506020612c33858286016128fe565b9150509250929050565b600060208284031215612c5357612c52612766565b5b6000612c61848285016129b3565b91505092915050565b600080fd5b600080fd5b7f4e487b7100000000000000000000000000000000000000000000000000000000600052604160045260246000fd5b612cac82612871565b810181811067ffffffffffffffff82111715612ccb57612cca612c74565b5b80604052505050565b6000612cde61275c565b9050612cea8282612ca3565b919050565b600067ffffffffffffffff821115612d0a57612d09612c74565b5b612d1382612871565b9050602081019050919050565b82818337600083830152505050565b6000612d42612d3d84612cef565b612cd4565b905082815260208101848484011115612d5e57612d5d612c6f565b5b612d69848285612d20565b509392505050565b600082601f830112612d8657612d85612c6a565b5b8135612d96848260208601612d2f565b91505092915050565b60008060408385031215612db657612db5612766565b5b600083013567ffffffffffffffff811115612dd457612dd361276b565b5b612de085828601612d71565b9250506020612df1858286016128fe565b9150509250929050565b612e04816127f5565b8114612e0f57600080fd5b50565b600081359050612e2181612dfb565b92915050565b60008060408385031215612e3e57612e3d612766565b5b6000612e4c858286016129b3565b9250506020612e5d85828601612e12565b9150509250929050565b600067ffffffffffffffff821115612e8257612e81612c74565b5b612e8b82612871565b9050602081019050919050565b6000612eab612ea684612e67565b612cd4565b905082815260208101848484011115612ec757612ec6612c6f565b5b612ed2848285612d20565b509392505050565b600082601f830112612eef57612eee612c6a565b5b8135612eff848260208601612e98565b91505092915050565b60008060008060808587031215612f2257612f21612766565b5b6000612f30878288016129b3565b9450506020612f41878288016129b3565b9350506040612f52878288016128fe565b925050606085013567ffffffffffffffff811115612f7357612f7261276b565b5b612f7f87828801612eda565b91505092959194509250565b60008060408385031215612fa257612fa1612766565b5b6000612fb0858286016129b3565b9250506020612fc1858286016129b3565b9150509250929050565b7f4e487b7100000000000000000000000000000000000000000000000000000000600052602260045260246000fd5b6000600282049050600182168061301257607f821691505b60208210810361302557613024612fcb565b5b50919050565b7f4e487b7100000000000000000000000000000000000000000000000000000000600052601160045260246000fd5b6000613065826128dd565b9150613070836128dd565b92508282019050808211156130885761308761302b565b5b92915050565b6000613099826128dd565b91507fffffffffffffffffffffffffffffffffffffffffffffffffffffffffffffffff82036130cb576130ca61302b565b5b600182019050919050565b7f4e487b7100000000000000000000000000000000000000000000000000000000600052603260045260246000fd5b600060608201905061311a6000830186612972565b6131276020830185612a08565b6131346040830184612972565b949350505050565b7f4f6e6c79206974656d206f776e65722063616e20706572666f726d207468697360008201527f20616374696f6e20000000000000000000000000000000000000000000000000602082015250565b6000613198602883612836565b91506131a38261313c565b604082019050919050565b600060208201905081810360008301526131c78161318b565b9050919050565b7f6e6574207072696365206d7573742062652067726561746572207468616e204c60008201527f697374696e672050726963650000000000000000000000000000000000000000602082015250565b600061322a602c83612836565b9150613235826131ce565b604082019050919050565b600060208201905081810360008301526132598161321d565b9050919050565b600061326b826128dd565b91506000820361327e5761327d61302b565b5b600182039050919050565b6000613294826128dd565b915061329f836128dd565b92508282039050818111156132b7576132b661302b565b5b92915050565b7f4f6e6c79204e6566747942617a6161722063616e20706572666f726d2074686960008201527f7320616374696f6e000000000000000000000000000000000000000000000000602082015250565b6000613319602883612836565b9150613324826132bd565b604082019050919050565b600060208201905081810360008301526133488161330c565b9050919050565b7f506c657365205375626d6974207468652061736b696e6720707269636520696e60008201527f206f7264657220746f20636f6d706c6574652074686520707572636865730000602082015250565b60006133ab603e83612836565b91506133b68261334f565b604082019050919050565b600060208201905081810360008301526133da8161339e565b9050919050565b600081905092915050565b60006133f78261282b565b61340181856133e1565b9350613411818560208601612847565b80840191505092915050565b600061342982856133ec565b915061343582846133ec565b91508190509392505050565b60008190508160005260206000209050919050565b60006020601f8301049050919050565b600082821b905092915050565b6000600883026134a37fffffffffffffffffffffffffffffffffffffffffffffffffffffffffffffffff82613466565b6134ad8683613466565b95508019841693508086168417925050509392505050565b6000819050919050565b60006134ea6134e56134e0846128dd565b6134c5565b6128dd565b9050919050565b6000819050919050565b613504836134cf565b613518613510826134f1565b848454613473565b825550505050565b600090565b61352d613520565b6135388184846134fb565b505050565b5b8181101561355c57613551600082613525565b60018101905061353e565b5050565b601f8211156135a15761357281613441565b61357b84613456565b8101602085101561358a578190505b61359e61359685613456565b83018261353d565b50505b505050565b600082821c905092915050565b60006135c4600019846008026135a6565b1980831691505092915050565b60006135dd83836135b3565b9150826002028217905092915050565b6135f68261282b565b67ffffffffffffffff81111561360f5761360e612c74565b5b6136198254612ffa565b613624828285613560565b600060209050601f8311600181146136575760008415613645578287015190505b61364f85826135d1565b8655506136b7565b601f19841661366586613441565b60005b8281101561368d57848901518255600182019150602085019450602081019050613668565b868310156136aa57848901516136a6601f8916826135b3565b8355505b6001600288020188555050505b505050505050565b7f6e6574207072696365206d7573742062652067726561746572207468616e2030600082015250565b60006136f5602083612836565b9150613700826136bf565b602082019050919050565b60006020820190508181036000830152613724816136e8565b9050919050565b61373481612a6d565b82525050565b600060808201905061374f600083018761372b565b61375c602083018661372b565b6137696040830185612a08565b6137766060830184612801565b95945050505050565b600081519050919050565b600082825260208201905092915050565b60006137a68261377f565b6137b0818561378a565b93506137c0818560208601612847565b6137c981612871565b840191505092915050565b60006080820190506137e96000830187612972565b6137f66020830186612972565b6138036040830185612a08565b8181036060830152613815818461379b565b905095945050505050565b60008151905061382f8161279c565b92915050565b60006020828403121561384b5761384a612766565b5b600061385984828501613820565b91505092915050565b60006040820190506138776000830185612972565b6138846020830184612a08565b9392505050565b7f4e487b7100000000000000000000000000000000000000000000000000000000600052601260045260246000fdfea264697066735822122098a8ed7f6da529f16e314389a92b69ef2f7f5573acb7cd9932f81ce9210e24fc64736f6c63430008140033",
  "linkReferences": {},
  "deployedLinkReferences": {}
}