{
  "_format": "hh-sol-artifact-1",
  "contractName": "NeftyBazaar",
  "sourceName": "contracts/NeftyBazaar.sol",
  "abi": [
    {
      "inputs": [],
      "stateMutability": "nonpayable",
      "type": "constructor"
    },
    {
      "inputs": [
        {
          "internalType": "address",
          "name": "sender",
          "type": "address"
        },
        {
          "internalType": "uint256",
          "name": "tokenId",
          "type": "uint256"
        },
        {
          "internalType": "address",
          "name": "owner",
          "type": "address"
        }
      ],
      "name": "ERC721IncorrectOwner",
      "type": "error"
    },
    {
      "inputs": [
        {
          "internalType": "address",
          "name": "operator",
          "type": "address"
        },
        {
          "internalType": "uint256",
          "name": "tokenId",
          "type": "uint256"
        }
      ],
      "name": "ERC721InsufficientApproval",
      "type": "error"
    },
    {
      "inputs": [
        {
          "internalType": "address",
          "name": "approver",
          "type": "address"
        }
      ],
      "name": "ERC721InvalidApprover",
      "type": "error"
    },
    {
      "inputs": [
        {
          "internalType": "address",
          "name": "operator",
          "type": "address"
        }
      ],
      "name": "ERC721InvalidOperator",
      "type": "error"
    },
    {
      "inputs": [
        {
          "internalType": "address",
          "name": "owner",
          "type": "address"
        }
      ],
      "name": "ERC721InvalidOwner",
      "type": "error"
    },
    {
      "inputs": [
        {
          "internalType": "address",
          "name": "receiver",
          "type": "address"
        }
      ],
      "name": "ERC721InvalidReceiver",
      "type": "error"
    },
    {
      "inputs": [
        {
          "internalType": "address",
          "name": "sender",
          "type": "address"
        }
      ],
      "name": "ERC721InvalidSender",
      "type": "error"
    },
    {
      "inputs": [
        {
          "internalType": "uint256",
          "name": "tokenId",
          "type": "uint256"
        }
      ],
      "name": "ERC721NonexistentToken",
      "type": "error"
    },
    {
      "anonymous": false,
      "inputs": [
        {
          "indexed": true,
          "internalType": "address",
          "name": "owner",
          "type": "address"
        },
        {
          "indexed": true,
          "internalType": "address",
          "name": "approved",
          "type": "address"
        },
        {
          "indexed": true,
          "internalType": "uint256",
          "name": "tokenId",
          "type": "uint256"
        }
      ],
      "name": "Approval",
      "type": "event"
    },
    {
      "anonymous": false,
      "inputs": [
        {
          "indexed": true,
          "internalType": "address",
          "name": "owner",
          "type": "address"
        },
        {
          "indexed": true,
          "internalType": "address",
          "name": "operator",
          "type": "address"
        },
        {
          "indexed": false,
          "internalType": "bool",
          "name": "approved",
          "type": "bool"
        }
      ],
      "name": "ApprovalForAll",
      "type": "event"
    },
    {
      "anonymous": false,
      "inputs": [
        {
          "indexed": false,
          "internalType": "uint256",
          "name": "_fromTokenId",
          "type": "uint256"
        },
        {
          "indexed": false,
          "internalType": "uint256",
          "name": "_toTokenId",
          "type": "uint256"
        }
      ],
      "name": "BatchMetadataUpdate",
      "type": "event"
    },
    {
      "anonymous": false,
      "inputs": [
        {
          "indexed": false,
          "internalType": "uint256",
          "name": "_tokenId",
          "type": "uint256"
        }
      ],
      "name": "MetadataUpdate",
      "type": "event"
    },
    {
      "anonymous": false,
      "inputs": [
        {
          "indexed": true,
          "internalType": "address",
          "name": "from",
          "type": "address"
        },
        {
          "indexed": true,
          "internalType": "address",
          "name": "to",
          "type": "address"
        },
        {
          "indexed": true,
          "internalType": "uint256",
          "name": "tokenId",
          "type": "uint256"
        }
      ],
      "name": "Transfer",
      "type": "event"
    },
    {
      "anonymous": false,
      "inputs": [
        {
          "indexed": true,
          "internalType": "uint256",
          "name": "tokenId",
          "type": "uint256"
        },
        {
          "indexed": false,
          "internalType": "address payable",
          "name": "seller",
          "type": "address"
        },
        {
          "indexed": false,
          "internalType": "address payable",
          "name": "owner",
          "type": "address"
        },
        {
          "indexed": false,
          "internalType": "uint256",
          "name": "price",
          "type": "uint256"
        },
        {
          "indexed": false,
          "internalType": "bool",
          "name": "sold",
          "type": "bool"
        }
      ],
      "name": "idMarketItemCreated",
      "type": "event"
    },
    {
      "inputs": [
        {
          "internalType": "address",
          "name": "to",
          "type": "address"
        },
        {
          "internalType": "uint256",
          "name": "tokenId",
          "type": "uint256"
        }
      ],
      "name": "approve",
      "outputs": [],
      "stateMutability": "nonpayable",
      "type": "function"
    },
    {
      "inputs": [
        {
          "internalType": "address",
          "name": "owner",
          "type": "address"
        }
      ],
      "name": "balanceOf",
      "outputs": [
        {
          "internalType": "uint256",
          "name": "",
          "type": "uint256"
        }
      ],
      "stateMutability": "view",
      "type": "function"
    },
    {
      "inputs": [
        {
          "internalType": "uint256",
          "name": "tokenId",
          "type": "uint256"
        }
      ],
      "name": "createMarketSale",
      "outputs": [],
      "stateMutability": "payable",
      "type": "function"
    },
    {
      "inputs": [
        {
          "internalType": "string",
          "name": "tokenURI",
          "type": "string"
        },
        {
          "internalType": "uint256",
          "name": "price",
          "type": "uint256"
        }
      ],
      "name": "createToken",
      "outputs": [
        {
          "internalType": "uint256",
          "name": "",
          "type": "uint256"
        }
      ],
      "stateMutability": "payable",
      "type": "function"
    },
    {
      "inputs": [],
      "name": "fetchItemsListed",
      "outputs": [
        {
          "components": [
            {
              "internalType": "uint256",
              "name": "tokenId",
              "type": "uint256"
            },
            {
              "internalType": "address payable",
              "name": "seller",
              "type": "address"
            },
            {
              "internalType": "address payable",
              "name": "owner",
              "type": "address"
            },
            {
              "internalType": "uint256",
              "name": "price",
              "type": "uint256"
            },
            {
              "internalType": "bool",
              "name": "sold",
              "type": "bool"
            }
          ],
          "internalType": "struct NeftyBazaar.MarketItem[]",
          "name": "",
          "type": "tuple[]"
        }
      ],
      "stateMutability": "view",
      "type": "function"
    },
    {
      "inputs": [],
      "name": "fetchMarketItem",
      "outputs": [
        {
          "components": [
            {
              "internalType": "uint256",
              "name": "tokenId",
              "type": "uint256"
            },
            {
              "internalType": "address payable",
              "name": "seller",
              "type": "address"
            },
            {
              "internalType": "address payable",
              "name": "owner",
              "type": "address"
            },
            {
              "internalType": "uint256",
              "name": "price",
              "type": "uint256"
            },
            {
              "internalType": "bool",
              "name": "sold",
              "type": "bool"
            }
          ],
          "internalType": "struct NeftyBazaar.MarketItem[]",
          "name": "",
          "type": "tuple[]"
        }
      ],
      "stateMutability": "view",
      "type": "function"
    },
    {
      "inputs": [],
      "name": "fetchMyNFTs",
      "outputs": [
        {
          "components": [
            {
              "internalType": "uint256",
              "name": "tokenId",
              "type": "uint256"
            },
            {
              "internalType": "address payable",
              "name": "seller",
              "type": "address"
            },
            {
              "internalType": "address payable",
              "name": "owner",
              "type": "address"
            },
            {
              "internalType": "uint256",
              "name": "price",
              "type": "uint256"
            },
            {
              "internalType": "bool",
              "name": "sold",
              "type": "bool"
            }
          ],
          "internalType": "struct NeftyBazaar.MarketItem[]",
          "name": "",
          "type": "tuple[]"
        }
      ],
      "stateMutability": "view",
      "type": "function"
    },
    {
      "inputs": [
        {
          "internalType": "uint256",
          "name": "tokenId",
          "type": "uint256"
        }
      ],
      "name": "getApproved",
      "outputs": [
        {
          "internalType": "address",
          "name": "",
          "type": "address"
        }
      ],
      "stateMutability": "view",
      "type": "function"
    },
    {
      "inputs": [],
      "name": "getListingPrice",
      "outputs": [
        {
          "internalType": "uint256",
          "name": "",
          "type": "uint256"
        }
      ],
      "stateMutability": "view",
      "type": "function"
    },
    {
      "inputs": [
        {
          "internalType": "address",
          "name": "owner",
          "type": "address"
        },
        {
          "internalType": "address",
          "name": "operator",
          "type": "address"
        }
      ],
      "name": "isApprovedForAll",
      "outputs": [
        {
          "internalType": "bool",
          "name": "",
          "type": "bool"
        }
      ],
      "stateMutability": "view",
      "type": "function"
    },
    {
      "inputs": [],
      "name": "name",
      "outputs": [
        {
          "internalType": "string",
          "name": "",
          "type": "string"
        }
      ],
      "stateMutability": "view",
      "type": "function"
    },
    {
      "inputs": [
        {
          "internalType": "uint256",
          "name": "tokenId",
          "type": "uint256"
        }
      ],
      "name": "ownerOf",
      "outputs": [
        {
          "internalType": "address",
          "name": "",
          "type": "address"
        }
      ],
      "stateMutability": "view",
      "type": "function"
    },
    {
      "inputs": [
        {
          "internalType": "address",
          "name": "from",
          "type": "address"
        },
        {
          "internalType": "address",
          "name": "to",
          "type": "address"
        },
        {
          "internalType": "uint256",
          "name": "tokenId",
          "type": "uint256"
        }
      ],
      "name": "safeTransferFrom",
      "outputs": [],
      "stateMutability": "nonpayable",
      "type": "function"
    },
    {
      "inputs": [
        {
          "internalType": "address",
          "name": "from",
          "type": "address"
        },
        {
          "internalType": "address",
          "name": "to",
          "type": "address"
        },
        {
          "internalType": "uint256",
          "name": "tokenId",
          "type": "uint256"
        },
        {
          "internalType": "bytes",
          "name": "data",
          "type": "bytes"
        }
      ],
      "name": "safeTransferFrom",
      "outputs": [],
      "stateMutability": "nonpayable",
      "type": "function"
    },
    {
      "inputs": [
        {
          "internalType": "address",
          "name": "operator",
          "type": "address"
        },
        {
          "internalType": "bool",
          "name": "approved",
          "type": "bool"
        }
      ],
      "name": "setApprovalForAll",
      "outputs": [],
      "stateMutability": "nonpayable",
      "type": "function"
    },
    {
      "inputs": [
        {
          "internalType": "bytes4",
          "name": "interfaceId",
          "type": "bytes4"
        }
      ],
      "name": "supportsInterface",
      "outputs": [
        {
          "internalType": "bool",
          "name": "",
          "type": "bool"
        }
      ],
      "stateMutability": "view",
      "type": "function"
    },
    {
      "inputs": [],
      "name": "symbol",
      "outputs": [
        {
          "internalType": "string",
          "name": "",
          "type": "string"
        }
      ],
      "stateMutability": "view",
      "type": "function"
    },
    {
      "inputs": [
        {
          "internalType": "uint256",
          "name": "tokenId",
          "type": "uint256"
        }
      ],
      "name": "tokenURI",
      "outputs": [
        {
          "internalType": "string",
          "name": "",
          "type": "string"
        }
      ],
      "stateMutability": "view",
      "type": "function"
    },
    {
      "inputs": [
        {
          "internalType": "address",
          "name": "from",
          "type": "address"
        },
        {
          "internalType": "address",
          "name": "to",
          "type": "address"
        },
        {
          "internalType": "uint256",
          "name": "tokenId",
          "type": "uint256"
        }
      ],
      "name": "transferFrom",
      "outputs": [],
      "stateMutability": "nonpayable",
      "type": "function"
    },
    {
      "inputs": [
        {
          "internalType": "uint256",
          "name": "_listingPrice",
          "type": "uint256"
        }
      ],
      "name": "updateListingPrice",
      "outputs": [],
      "stateMutability": "payable",
      "type": "function"
    }
  ],
  "bytecode": "0x60806040526605543df729c000600a553480156200001c57600080fd5b506040518060400160405280601381526020017f4e4654204d657461566172736520546f6b656e000000000000000000000000008152506040518060400160405280600b81526020017f4e6566747942617a61617200000000000000000000000000000000000000000081525081600090816200009a919062000370565b508060019081620000ac919062000370565b50505033600960006101000a81548173ffffffffffffffffffffffffffffffffffffffff021916908373ffffffffffffffffffffffffffffffffffffffff16021790555062000457565b600081519050919050565b7f4e487b7100000000000000000000000000000000000000000000000000000000600052604160045260246000fd5b7f4e487b7100000000000000000000000000000000000000000000000000000000600052602260045260246000fd5b600060028204905060018216806200017857607f821691505b6020821081036200018e576200018d62000130565b5b50919050565b60008190508160005260206000209050919050565b60006020601f8301049050919050565b600082821b905092915050565b600060088302620001f87fffffffffffffffffffffffffffffffffffffffffffffffffffffffffffffffff82620001b9565b620002048683620001b9565b95508019841693508086168417925050509392505050565b6000819050919050565b6000819050919050565b6000620002516200024b62000245846200021c565b62000226565b6200021c565b9050919050565b6000819050919050565b6200026d8362000230565b620002856200027c8262000258565b848454620001c6565b825550505050565b600090565b6200029c6200028d565b620002a981848462000262565b505050565b5b81811015620002d157620002c560008262000292565b600181019050620002af565b5050565b601f8211156200032057620002ea8162000194565b620002f584620001a9565b8101602085101562000305578190505b6200031d6200031485620001a9565b830182620002ae565b50505b505050565b600082821c905092915050565b6000620003456000198460080262000325565b1980831691505092915050565b600062000360838362000332565b9150826002028217905092915050565b6200037b82620000f6565b67ffffffffffffffff81111562000397576200039662000101565b5b620003a382546200015f565b620003b0828285620002d5565b600060209050601f831160018114620003e85760008415620003d3578287015190505b620003df858262000352565b8655506200044f565b601f198416620003f88662000194565b60005b828110156200042257848901518255600182019150602085019450602081019050620003fb565b868310156200044257848901516200043e601f89168262000332565b8355505b6001600288020188555050505b505050505050565b61372d80620004676000396000f3fe60806040526004361061011f5760003560e01c806370a08231116100a0578063ae677aa311610064578063ae677aa3146103ee578063b88d4fde1461040a578063be9af53614610433578063c87b56dd1461044f578063e985e9c51461048c5761011f565b806370a082311461030257806372b3b6201461033f5780638fafd0211461036f57806395d89b411461039a578063a22cb465146103c55761011f565b8063202e3740116100e7578063202e37401461021d57806323b872dd1461024857806342842e0e1461027157806345f8fa801461029a5780636352211e146102c55761011f565b806301ffc9a71461012457806306fdde0314610161578063081812fc1461018c578063095ea7b3146101c957806312e85585146101f2575b600080fd5b34801561013057600080fd5b5061014b60048036038101906101469190612700565b6104c9565b6040516101589190612748565b60405180910390f35b34801561016d57600080fd5b5061017661052a565b60405161018391906127f3565b60405180910390f35b34801561019857600080fd5b506101b360048036038101906101ae919061284b565b6105bc565b6040516101c091906128b9565b60405180910390f35b3480156101d557600080fd5b506101f060048036038101906101eb9190612900565b6105d8565b005b3480156101fe57600080fd5b506102076105ee565b604051610214919061294f565b60405180910390f35b34801561022957600080fd5b506102326105f8565b60405161023f9190612ac0565b60405180910390f35b34801561025457600080fd5b5061026f600480360381019061026a9190612ae2565b61082f565b005b34801561027d57600080fd5b5061029860048036038101906102939190612ae2565b610931565b005b3480156102a657600080fd5b506102af610951565b6040516102bc9190612ac0565b60405180910390f35b3480156102d157600080fd5b506102ec60048036038101906102e7919061284b565b610b88565b6040516102f991906128b9565b60405180910390f35b34801561030e57600080fd5b5061032960048036038101906103249190612b35565b610b9a565b604051610336919061294f565b60405180910390f35b61035960048036038101906103549190612c97565b610c54565b604051610366919061294f565b60405180910390f35b34801561037b57600080fd5b50610384610c9d565b6040516103919190612ac0565b60405180910390f35b3480156103a657600080fd5b506103af610ee9565b6040516103bc91906127f3565b60405180910390f35b3480156103d157600080fd5b506103ec60048036038101906103e79190612d1f565b610f7b565b005b6104086004803603810190610403919061284b565b610f91565b005b34801561041657600080fd5b50610431600480360381019061042c9190612e00565b61102b565b005b61044d6004803603810190610448919061284b565b611048565b005b34801561045b57600080fd5b506104766004803603810190610471919061284b565b611238565b60405161048391906127f3565b60405180910390f35b34801561049857600080fd5b506104b360048036038101906104ae9190612e83565b61134b565b6040516104c09190612748565b60405180910390f35b6000634906490660e01b7bffffffffffffffffffffffffffffffffffffffffffffffffffffffff1916827bffffffffffffffffffffffffffffffffffffffffffffffffffffffff191614806105235750610522826113df565b5b9050919050565b60606000805461053990612ef2565b80601f016020809104026020016040519081016040528092919081815260200182805461056590612ef2565b80156105b25780601f10610587576101008083540402835291602001916105b2565b820191906000526020600020905b81548152906001019060200180831161059557829003601f168201915b5050505050905090565b60006105c7826114c1565b506105d182611549565b9050919050565b6105ea82826105e5611586565b61158e565b5050565b6000600a54905090565b6060600060075490506000808267ffffffffffffffff81111561061e5761061d612b6c565b5b60405190808252806020026020018201604052801561065757816020015b610644612637565b81526020019060019003908161063c5790505b50905060005b83811015610825573373ffffffffffffffffffffffffffffffffffffffff16600b600060018461068d9190612f52565b815260200190815260200160002060020160009054906101000a900473ffffffffffffffffffffffffffffffffffffffff1673ffffffffffffffffffffffffffffffffffffffff1603610812576000600b60006001846106ed9190612f52565b81526020019081526020016000209050806040518060a0016040529081600082015481526020016001820160009054906101000a900473ffffffffffffffffffffffffffffffffffffffff1673ffffffffffffffffffffffffffffffffffffffff1673ffffffffffffffffffffffffffffffffffffffff1681526020016002820160009054906101000a900473ffffffffffffffffffffffffffffffffffffffff1673ffffffffffffffffffffffffffffffffffffffff1673ffffffffffffffffffffffffffffffffffffffff168152602001600382015481526020016004820160009054906101000a900460ff1615151515815250508385815181106107f7576107f6612f86565b5b6020026020010181905250838061080d90612fb5565b945050505b808061081d90612fb5565b91505061065d565b5080935050505090565b600073ffffffffffffffffffffffffffffffffffffffff168273ffffffffffffffffffffffffffffffffffffffff16036108a15760006040517f64a0ae9200000000000000000000000000000000000000000000000000000000815260040161089891906128b9565b60405180910390fd5b60006108b583836108b0611586565b6115a0565b90508373ffffffffffffffffffffffffffffffffffffffff168173ffffffffffffffffffffffffffffffffffffffff161461092b578382826040517f64283d7b00000000000000000000000000000000000000000000000000000000815260040161092293929190612ffd565b60405180910390fd5b50505050565b61094c8383836040518060200160405280600081525061102b565b505050565b6060600060075490506000808267ffffffffffffffff81111561097757610976612b6c565b5b6040519080825280602002602001820160405280156109b057816020015b61099d612637565b8152602001906001900390816109955790505b50905060005b83811015610b7e573373ffffffffffffffffffffffffffffffffffffffff16600b60006001846109e69190612f52565b815260200190815260200160002060010160009054906101000a900473ffffffffffffffffffffffffffffffffffffffff1673ffffffffffffffffffffffffffffffffffffffff1603610b6b576000600b6000600184610a469190612f52565b81526020019081526020016000209050806040518060a0016040529081600082015481526020016001820160009054906101000a900473ffffffffffffffffffffffffffffffffffffffff1673ffffffffffffffffffffffffffffffffffffffff1673ffffffffffffffffffffffffffffffffffffffff1681526020016002820160009054906101000a900473ffffffffffffffffffffffffffffffffffffffff1673ffffffffffffffffffffffffffffffffffffffff1673ffffffffffffffffffffffffffffffffffffffff168152602001600382015481526020016004820160009054906101000a900460ff161515151581525050838581518110610b5057610b4f612f86565b5b60200260200101819052508380610b6690612fb5565b945050505b8080610b7690612fb5565b9150506109b6565b5080935050505090565b6000610b93826114c1565b9050919050565b60008073ffffffffffffffffffffffffffffffffffffffff168273ffffffffffffffffffffffffffffffffffffffff1603610c0d5760006040517f89c62b64000000000000000000000000000000000000000000000000000000008152600401610c0491906128b9565b60405180910390fd5b600360008373ffffffffffffffffffffffffffffffffffffffff1673ffffffffffffffffffffffffffffffffffffffff168152602001908152602001600020549050919050565b600060076000815480929190610c6990612fb5565b919050555060006007549050610c7f33826117ba565b610c8981856118b3565b610c93818461190f565b8091505092915050565b6060600060075490506000600854600754610cb89190613034565b90506000808267ffffffffffffffff811115610cd757610cd6612b6c565b5b604051908082528060200260200182016040528015610d1057816020015b610cfd612637565b815260200190600190039081610cf55790505b50905060005b84811015610ede573073ffffffffffffffffffffffffffffffffffffffff16600b6000600184610d469190612f52565b815260200190815260200160002060020160009054906101000a900473ffffffffffffffffffffffffffffffffffffffff1673ffffffffffffffffffffffffffffffffffffffff1603610ecb576000600b6000600184610da69190612f52565b81526020019081526020016000209050806040518060a0016040529081600082015481526020016001820160009054906101000a900473ffffffffffffffffffffffffffffffffffffffff1673ffffffffffffffffffffffffffffffffffffffff1673ffffffffffffffffffffffffffffffffffffffff1681526020016002820160009054906101000a900473ffffffffffffffffffffffffffffffffffffffff1673ffffffffffffffffffffffffffffffffffffffff1673ffffffffffffffffffffffffffffffffffffffff168152602001600382015481526020016004820160009054906101000a900460ff161515151581525050838581518110610eb057610eaf612f86565b5b60200260200101819052508380610ec690612fb5565b945050505b8080610ed690612fb5565b915050610d16565b508094505050505090565b606060018054610ef890612ef2565b80601f0160208091040260200160405190810160405280929190818152602001828054610f2490612ef2565b8015610f715780601f10610f4657610100808354040283529160200191610f71565b820191906000526020600020905b815481529060010190602001808311610f5457829003601f168201915b5050505050905090565b610f8d610f86611586565b8383611b12565b5050565b600960009054906101000a900473ffffffffffffffffffffffffffffffffffffffff1673ffffffffffffffffffffffffffffffffffffffff163373ffffffffffffffffffffffffffffffffffffffff1614611021576040517f08c379a0000000000000000000000000000000000000000000000000000000008152600401611018906130da565b60405180910390fd5b80600a8190555050565b61103684848461082f565b61104284848484611c81565b50505050565b6000600b60008381526020019081526020016000206003015490508034146110a5576040517f08c379a000000000000000000000000000000000000000000000000000000000815260040161109c9061316c565b60405180910390fd5b33600b600084815260200190815260200160002060020160006101000a81548173ffffffffffffffffffffffffffffffffffffffff021916908373ffffffffffffffffffffffffffffffffffffffff1602179055506001600b600084815260200190815260200160002060040160006101000a81548160ff0219169083151502179055506008600081548092919061113c90612fb5565b919050555061114c303384611e38565b600960009054906101000a900473ffffffffffffffffffffffffffffffffffffffff1673ffffffffffffffffffffffffffffffffffffffff166108fc600a549081150290604051600060405180830381858888f193505050501580156111b6573d6000803e3d6000fd5b50600b600083815260200190815260200160002060010160009054906101000a900473ffffffffffffffffffffffffffffffffffffffff1673ffffffffffffffffffffffffffffffffffffffff166108fc349081150290604051600060405180830381858888f19350505050158015611233573d6000803e3d6000fd5b505050565b6060611243826114c1565b50600060066000848152602001908152602001600020805461126490612ef2565b80601f016020809104026020016040519081016040528092919081815260200182805461129090612ef2565b80156112dd5780601f106112b2576101008083540402835291602001916112dd565b820191906000526020600020905b8154815290600101906020018083116112c057829003601f168201915b5050505050905060006112ee611fa5565b90506000815103611303578192505050611346565b6000825111156113385780826040516020016113209291906131c8565b60405160208183030381529060405292505050611346565b61134184611fbc565b925050505b919050565b6000600560008473ffffffffffffffffffffffffffffffffffffffff1673ffffffffffffffffffffffffffffffffffffffff16815260200190815260200160002060008373ffffffffffffffffffffffffffffffffffffffff1673ffffffffffffffffffffffffffffffffffffffff16815260200190815260200160002060009054906101000a900460ff16905092915050565b60007f80ac58cd000000000000000000000000000000000000000000000000000000007bffffffffffffffffffffffffffffffffffffffffffffffffffffffff1916827bffffffffffffffffffffffffffffffffffffffffffffffffffffffff191614806114aa57507f5b5e139f000000000000000000000000000000000000000000000000000000007bffffffffffffffffffffffffffffffffffffffffffffffffffffffff1916827bffffffffffffffffffffffffffffffffffffffffffffffffffffffff1916145b806114ba57506114b982612025565b5b9050919050565b6000806114cd8361208f565b9050600073ffffffffffffffffffffffffffffffffffffffff168173ffffffffffffffffffffffffffffffffffffffff160361154057826040517f7e273289000000000000000000000000000000000000000000000000000000008152600401611537919061294f565b60405180910390fd5b80915050919050565b60006004600083815260200190815260200160002060009054906101000a900473ffffffffffffffffffffffffffffffffffffffff169050919050565b600033905090565b61159b83838360016120cc565b505050565b6000806115ac8461208f565b9050600073ffffffffffffffffffffffffffffffffffffffff168373ffffffffffffffffffffffffffffffffffffffff16146115ee576115ed818486612291565b5b600073ffffffffffffffffffffffffffffffffffffffff168173ffffffffffffffffffffffffffffffffffffffff161461167f576116306000856000806120cc565b6001600360008373ffffffffffffffffffffffffffffffffffffffff1673ffffffffffffffffffffffffffffffffffffffff168152602001908152602001600020600082825403925050819055505b600073ffffffffffffffffffffffffffffffffffffffff168573ffffffffffffffffffffffffffffffffffffffff1614611702576001600360008773ffffffffffffffffffffffffffffffffffffffff1673ffffffffffffffffffffffffffffffffffffffff168152602001908152602001600020600082825401925050819055505b846002600086815260200190815260200160002060006101000a81548173ffffffffffffffffffffffffffffffffffffffff021916908373ffffffffffffffffffffffffffffffffffffffff160217905550838573ffffffffffffffffffffffffffffffffffffffff168273ffffffffffffffffffffffffffffffffffffffff167fddf252ad1be2c89b69c2b068fc378daa952ba7f163c4a11628f55a4df523b3ef60405160405180910390a4809150509392505050565b600073ffffffffffffffffffffffffffffffffffffffff168273ffffffffffffffffffffffffffffffffffffffff160361182c5760006040517f64a0ae9200000000000000000000000000000000000000000000000000000000815260040161182391906128b9565b60405180910390fd5b600061183a838360006115a0565b9050600073ffffffffffffffffffffffffffffffffffffffff168173ffffffffffffffffffffffffffffffffffffffff16146118ae5760006040517f73c6ac6e0000000000000000000000000000000000000000000000000000000081526004016118a591906128b9565b60405180910390fd5b505050565b806006600084815260200190815260200160002090816118d39190613398565b507ff8e1a15aba9398e019f0b49df1a4fde98ee17ae345cb5f6b5e2c27f5033e8ce782604051611903919061294f565b60405180910390a15050565b60008111611952576040517f08c379a0000000000000000000000000000000000000000000000000000000008152600401611949906134b6565b60405180910390fd5b600a543414611996576040517f08c379a000000000000000000000000000000000000000000000000000000000815260040161198d90613548565b60405180910390fd5b6040518060a001604052808381526020013373ffffffffffffffffffffffffffffffffffffffff1681526020013073ffffffffffffffffffffffffffffffffffffffff16815260200182815260200160001515815250600b60008481526020019081526020016000206000820151816000015560208201518160010160006101000a81548173ffffffffffffffffffffffffffffffffffffffff021916908373ffffffffffffffffffffffffffffffffffffffff16021790555060408201518160020160006101000a81548173ffffffffffffffffffffffffffffffffffffffff021916908373ffffffffffffffffffffffffffffffffffffffff1602179055506060820151816003015560808201518160040160006101000a81548160ff021916908315150217905550905050611acf333084611e38565b817fdebdb32cb5230ab727c9c361b16fdb2015df225c10e6a3e7f60ecd5dc5be45163330846000604051611b069493929190613577565b60405180910390a25050565b600073ffffffffffffffffffffffffffffffffffffffff168273ffffffffffffffffffffffffffffffffffffffff1603611b8357816040517f5b08ba18000000000000000000000000000000000000000000000000000000008152600401611b7a91906128b9565b60405180910390fd5b80600560008573ffffffffffffffffffffffffffffffffffffffff1673ffffffffffffffffffffffffffffffffffffffff16815260200190815260200160002060008473ffffffffffffffffffffffffffffffffffffffff1673ffffffffffffffffffffffffffffffffffffffff16815260200190815260200160002060006101000a81548160ff0219169083151502179055508173ffffffffffffffffffffffffffffffffffffffff168373ffffffffffffffffffffffffffffffffffffffff167f17307eab39ab6107e8899845ad3d59bd9653f200f220920489ca2b5937696c3183604051611c749190612748565b60405180910390a3505050565b60008373ffffffffffffffffffffffffffffffffffffffff163b1115611e32578273ffffffffffffffffffffffffffffffffffffffff1663150b7a02611cc5611586565b8685856040518563ffffffff1660e01b8152600401611ce79493929190613611565b6020604051808303816000875af1925050508015611d2357506040513d601f19601f82011682018060405250810190611d209190613672565b60015b611da7573d8060008114611d53576040519150601f19603f3d011682016040523d82523d6000602084013e611d58565b606091505b506000815103611d9f57836040517f64a0ae92000000000000000000000000000000000000000000000000000000008152600401611d9691906128b9565b60405180910390fd5b805181602001fd5b63150b7a0260e01b7bffffffffffffffffffffffffffffffffffffffffffffffffffffffff1916817bffffffffffffffffffffffffffffffffffffffffffffffffffffffff191614611e3057836040517f64a0ae92000000000000000000000000000000000000000000000000000000008152600401611e2791906128b9565b60405180910390fd5b505b50505050565b600073ffffffffffffffffffffffffffffffffffffffff168273ffffffffffffffffffffffffffffffffffffffff1603611eaa5760006040517f64a0ae92000000000000000000000000000000000000000000000000000000008152600401611ea191906128b9565b60405180910390fd5b6000611eb8838360006115a0565b9050600073ffffffffffffffffffffffffffffffffffffffff168173ffffffffffffffffffffffffffffffffffffffff1603611f2b57816040517f7e273289000000000000000000000000000000000000000000000000000000008152600401611f22919061294f565b60405180910390fd5b8373ffffffffffffffffffffffffffffffffffffffff168173ffffffffffffffffffffffffffffffffffffffff1614611f9f578382826040517f64283d7b000000000000000000000000000000000000000000000000000000008152600401611f9693929190612ffd565b60405180910390fd5b50505050565b606060405180602001604052806000815250905090565b6060611fc7826114c1565b506000611fd2611fa5565b90506000815111611ff2576040518060200160405280600081525061201d565b80611ffc84612355565b60405160200161200d9291906131c8565b6040516020818303038152906040525b915050919050565b60007f01ffc9a7000000000000000000000000000000000000000000000000000000007bffffffffffffffffffffffffffffffffffffffffffffffffffffffff1916827bffffffffffffffffffffffffffffffffffffffffffffffffffffffff1916149050919050565b60006002600083815260200190815260200160002060009054906101000a900473ffffffffffffffffffffffffffffffffffffffff169050919050565b80806121055750600073ffffffffffffffffffffffffffffffffffffffff168273ffffffffffffffffffffffffffffffffffffffff1614155b15612239576000612115846114c1565b9050600073ffffffffffffffffffffffffffffffffffffffff168373ffffffffffffffffffffffffffffffffffffffff161415801561218057508273ffffffffffffffffffffffffffffffffffffffff168173ffffffffffffffffffffffffffffffffffffffff1614155b80156121935750612191818461134b565b155b156121d557826040517fa9fbf51f0000000000000000000000000000000000000000000000000000000081526004016121cc91906128b9565b60405180910390fd5b811561223757838573ffffffffffffffffffffffffffffffffffffffff168273ffffffffffffffffffffffffffffffffffffffff167f8c5be1e5ebec7d5bd14f71427d1e84f3dd0314c0f7b2291e5b200ac8c7c3b92560405160405180910390a45b505b836004600085815260200190815260200160002060006101000a81548173ffffffffffffffffffffffffffffffffffffffff021916908373ffffffffffffffffffffffffffffffffffffffff16021790555050505050565b61229c838383612423565b61235057600073ffffffffffffffffffffffffffffffffffffffff168373ffffffffffffffffffffffffffffffffffffffff160361231157806040517f7e273289000000000000000000000000000000000000000000000000000000008152600401612308919061294f565b60405180910390fd5b81816040517f177e802f00000000000000000000000000000000000000000000000000000000815260040161234792919061369f565b60405180910390fd5b505050565b606060006001612364846124e4565b01905060008167ffffffffffffffff81111561238357612382612b6c565b5b6040519080825280601f01601f1916602001820160405280156123b55781602001600182028036833780820191505090505b509050600082602001820190505b600115612418578080600190039150507f3031323334353637383961626364656600000000000000000000000000000000600a86061a8153600a858161240c5761240b6136c8565b5b049450600085036123c3575b819350505050919050565b60008073ffffffffffffffffffffffffffffffffffffffff168373ffffffffffffffffffffffffffffffffffffffff16141580156124db57508273ffffffffffffffffffffffffffffffffffffffff168473ffffffffffffffffffffffffffffffffffffffff16148061249c575061249b848461134b565b5b806124da57508273ffffffffffffffffffffffffffffffffffffffff166124c283611549565b73ffffffffffffffffffffffffffffffffffffffff16145b5b90509392505050565b600080600090507a184f03e93ff9f4daa797ed6e38ed64bf6a1f0100000000000000008310612542577a184f03e93ff9f4daa797ed6e38ed64bf6a1f0100000000000000008381612538576125376136c8565b5b0492506040810190505b6d04ee2d6d415b85acef8100000000831061257f576d04ee2d6d415b85acef81000000008381612575576125746136c8565b5b0492506020810190505b662386f26fc1000083106125ae57662386f26fc1000083816125a4576125a36136c8565b5b0492506010810190505b6305f5e10083106125d7576305f5e10083816125cd576125cc6136c8565b5b0492506008810190505b61271083106125fc5761271083816125f2576125f16136c8565b5b0492506004810190505b6064831061261f5760648381612615576126146136c8565b5b0492506002810190505b600a831061262e576001810190505b80915050919050565b6040518060a0016040528060008152602001600073ffffffffffffffffffffffffffffffffffffffff168152602001600073ffffffffffffffffffffffffffffffffffffffff168152602001600081526020016000151581525090565b6000604051905090565b600080fd5b600080fd5b60007fffffffff0000000000000000000000000000000000000000000000000000000082169050919050565b6126dd816126a8565b81146126e857600080fd5b50565b6000813590506126fa816126d4565b92915050565b6000602082840312156127165761271561269e565b5b6000612724848285016126eb565b91505092915050565b60008115159050919050565b6127428161272d565b82525050565b600060208201905061275d6000830184612739565b92915050565b600081519050919050565b600082825260208201905092915050565b60005b8381101561279d578082015181840152602081019050612782565b60008484015250505050565b6000601f19601f8301169050919050565b60006127c582612763565b6127cf818561276e565b93506127df81856020860161277f565b6127e8816127a9565b840191505092915050565b6000602082019050818103600083015261280d81846127ba565b905092915050565b6000819050919050565b61282881612815565b811461283357600080fd5b50565b6000813590506128458161281f565b92915050565b6000602082840312156128615761286061269e565b5b600061286f84828501612836565b91505092915050565b600073ffffffffffffffffffffffffffffffffffffffff82169050919050565b60006128a382612878565b9050919050565b6128b381612898565b82525050565b60006020820190506128ce60008301846128aa565b92915050565b6128dd81612898565b81146128e857600080fd5b50565b6000813590506128fa816128d4565b92915050565b600080604083850312156129175761291661269e565b5b6000612925858286016128eb565b925050602061293685828601612836565b9150509250929050565b61294981612815565b82525050565b60006020820190506129646000830184612940565b92915050565b600081519050919050565b600082825260208201905092915050565b6000819050602082019050919050565b61299f81612815565b82525050565b60006129b082612878565b9050919050565b6129c0816129a5565b82525050565b6129cf8161272d565b82525050565b60a0820160008201516129eb6000850182612996565b5060208201516129fe60208501826129b7565b506040820151612a1160408501826129b7565b506060820151612a246060850182612996565b506080820151612a3760808501826129c6565b50505050565b6000612a4983836129d5565b60a08301905092915050565b6000602082019050919050565b6000612a6d8261296a565b612a778185612975565b9350612a8283612986565b8060005b83811015612ab3578151612a9a8882612a3d565b9750612aa583612a55565b925050600181019050612a86565b5085935050505092915050565b60006020820190508181036000830152612ada8184612a62565b905092915050565b600080600060608486031215612afb57612afa61269e565b5b6000612b09868287016128eb565b9350506020612b1a868287016128eb565b9250506040612b2b86828701612836565b9150509250925092565b600060208284031215612b4b57612b4a61269e565b5b6000612b59848285016128eb565b91505092915050565b600080fd5b600080fd5b7f4e487b7100000000000000000000000000000000000000000000000000000000600052604160045260246000fd5b612ba4826127a9565b810181811067ffffffffffffffff82111715612bc357612bc2612b6c565b5b80604052505050565b6000612bd6612694565b9050612be28282612b9b565b919050565b600067ffffffffffffffff821115612c0257612c01612b6c565b5b612c0b826127a9565b9050602081019050919050565b82818337600083830152505050565b6000612c3a612c3584612be7565b612bcc565b905082815260208101848484011115612c5657612c55612b67565b5b612c61848285612c18565b509392505050565b600082601f830112612c7e57612c7d612b62565b5b8135612c8e848260208601612c27565b91505092915050565b60008060408385031215612cae57612cad61269e565b5b600083013567ffffffffffffffff811115612ccc57612ccb6126a3565b5b612cd885828601612c69565b9250506020612ce985828601612836565b9150509250929050565b612cfc8161272d565b8114612d0757600080fd5b50565b600081359050612d1981612cf3565b92915050565b60008060408385031215612d3657612d3561269e565b5b6000612d44858286016128eb565b9250506020612d5585828601612d0a565b9150509250929050565b600067ffffffffffffffff821115612d7a57612d79612b6c565b5b612d83826127a9565b9050602081019050919050565b6000612da3612d9e84612d5f565b612bcc565b905082815260208101848484011115612dbf57612dbe612b67565b5b612dca848285612c18565b509392505050565b600082601f830112612de757612de6612b62565b5b8135612df7848260208601612d90565b91505092915050565b60008060008060808587031215612e1a57612e1961269e565b5b6000612e28878288016128eb565b9450506020612e39878288016128eb565b9350506040612e4a87828801612836565b925050606085013567ffffffffffffffff811115612e6b57612e6a6126a3565b5b612e7787828801612dd2565b91505092959194509250565b60008060408385031215612e9a57612e9961269e565b5b6000612ea8858286016128eb565b9250506020612eb9858286016128eb565b9150509250929050565b7f4e487b7100000000000000000000000000000000000000000000000000000000600052602260045260246000fd5b60006002820490506001821680612f0a57607f821691505b602082108103612f1d57612f1c612ec3565b5b50919050565b7f4e487b7100000000000000000000000000000000000000000000000000000000600052601160045260246000fd5b6000612f5d82612815565b9150612f6883612815565b9250828201905080821115612f8057612f7f612f23565b5b92915050565b7f4e487b7100000000000000000000000000000000000000000000000000000000600052603260045260246000fd5b6000612fc082612815565b91507fffffffffffffffffffffffffffffffffffffffffffffffffffffffffffffffff8203612ff257612ff1612f23565b5b600182019050919050565b600060608201905061301260008301866128aa565b61301f6020830185612940565b61302c60408301846128aa565b949350505050565b600061303f82612815565b915061304a83612815565b925082820390508181111561306257613061612f23565b5b92915050565b7f4f6e6c79204e6566747942617a6161722063616e20706572666f726d2074686960008201527f7320616374696f6e000000000000000000000000000000000000000000000000602082015250565b60006130c460288361276e565b91506130cf82613068565b604082019050919050565b600060208201905081810360008301526130f3816130b7565b9050919050565b7f506c65617365207375626d6974207468652061736b696e67207072696365206960008201527f6e206f7264657220746f20636f6d706c65746520746865207075726368617365602082015250565b600061315660408361276e565b9150613161826130fa565b604082019050919050565b6000602082019050818103600083015261318581613149565b9050919050565b600081905092915050565b60006131a282612763565b6131ac818561318c565b93506131bc81856020860161277f565b80840191505092915050565b60006131d48285613197565b91506131e08284613197565b91508190509392505050565b60008190508160005260206000209050919050565b60006020601f8301049050919050565b600082821b905092915050565b60006008830261324e7fffffffffffffffffffffffffffffffffffffffffffffffffffffffffffffffff82613211565b6132588683613211565b95508019841693508086168417925050509392505050565b6000819050919050565b600061329561329061328b84612815565b613270565b612815565b9050919050565b6000819050919050565b6132af8361327a565b6132c36132bb8261329c565b84845461321e565b825550505050565b600090565b6132d86132cb565b6132e38184846132a6565b505050565b5b81811015613307576132fc6000826132d0565b6001810190506132e9565b5050565b601f82111561334c5761331d816131ec565b61332684613201565b81016020851015613335578190505b61334961334185613201565b8301826132e8565b50505b505050565b600082821c905092915050565b600061336f60001984600802613351565b1980831691505092915050565b6000613388838361335e565b9150826002028217905092915050565b6133a182612763565b67ffffffffffffffff8111156133ba576133b9612b6c565b5b6133c48254612ef2565b6133cf82828561330b565b600060209050601f83116001811461340257600084156133f0578287015190505b6133fa858261337c565b865550613462565b601f198416613410866131ec565b60005b8281101561343857848901518255600182019150602085019450602081019050613413565b868310156134555784890151613451601f89168261335e565b8355505b6001600288020188555050505b505050505050565b7f6e6574207072696365206d7573742062652067726561746572207468616e2030600082015250565b60006134a060208361276e565b91506134ab8261346a565b602082019050919050565b600060208201905081810360008301526134cf81613493565b9050919050565b7f6e6574207072696365206d75737420626520657175616c20746f206c6973746960008201527f6e67207072696365000000000000000000000000000000000000000000000000602082015250565b600061353260288361276e565b915061353d826134d6565b604082019050919050565b6000602082019050818103600083015261356181613525565b9050919050565b613571816129a5565b82525050565b600060808201905061358c6000830187613568565b6135996020830186613568565b6135a66040830185612940565b6135b36060830184612739565b95945050505050565b600081519050919050565b600082825260208201905092915050565b60006135e3826135bc565b6135ed81856135c7565b93506135fd81856020860161277f565b613606816127a9565b840191505092915050565b600060808201905061362660008301876128aa565b61363360208301866128aa565b6136406040830185612940565b818103606083015261365281846135d8565b905095945050505050565b60008151905061366c816126d4565b92915050565b6000602082840312156136885761368761269e565b5b60006136968482850161365d565b91505092915050565b60006040820190506136b460008301856128aa565b6136c16020830184612940565b9392505050565b7f4e487b7100000000000000000000000000000000000000000000000000000000600052601260045260246000fdfea2646970667358221220e6b4d6dce58e1a591236fb23c037d625a05172abe7ac5445e0fabfc501eef52664736f6c63430008140033",
  "linkReferences": {},
  "deployedLinkReferences": {}
}