{
  "_format": "hh-sol-artifact-1",
  "contractName": "NeftyBazaar",
  "sourceName": "contracts/NeftyBazaar.sol",
  "abi": [
    {
      "inputs": [],
      "stateMutability": "nonpayable",
      "type": "constructor"
    },
    {
      "inputs": [
        {
          "internalType": "address",
          "name": "sender",
          "type": "address"
        },
        {
          "internalType": "uint256",
          "name": "tokenId",
          "type": "uint256"
        },
        {
          "internalType": "address",
          "name": "owner",
          "type": "address"
        }
      ],
      "name": "ERC721IncorrectOwner",
      "type": "error"
    },
    {
      "inputs": [
        {
          "internalType": "address",
          "name": "operator",
          "type": "address"
        },
        {
          "internalType": "uint256",
          "name": "tokenId",
          "type": "uint256"
        }
      ],
      "name": "ERC721InsufficientApproval",
      "type": "error"
    },
    {
      "inputs": [
        {
          "internalType": "address",
          "name": "approver",
          "type": "address"
        }
      ],
      "name": "ERC721InvalidApprover",
      "type": "error"
    },
    {
      "inputs": [
        {
          "internalType": "address",
          "name": "operator",
          "type": "address"
        }
      ],
      "name": "ERC721InvalidOperator",
      "type": "error"
    },
    {
      "inputs": [
        {
          "internalType": "address",
          "name": "owner",
          "type": "address"
        }
      ],
      "name": "ERC721InvalidOwner",
      "type": "error"
    },
    {
      "inputs": [
        {
          "internalType": "address",
          "name": "receiver",
          "type": "address"
        }
      ],
      "name": "ERC721InvalidReceiver",
      "type": "error"
    },
    {
      "inputs": [
        {
          "internalType": "address",
          "name": "sender",
          "type": "address"
        }
      ],
      "name": "ERC721InvalidSender",
      "type": "error"
    },
    {
      "inputs": [
        {
          "internalType": "uint256",
          "name": "tokenId",
          "type": "uint256"
        }
      ],
      "name": "ERC721NonexistentToken",
      "type": "error"
    },
    {
      "anonymous": false,
      "inputs": [
        {
          "indexed": true,
          "internalType": "address",
          "name": "owner",
          "type": "address"
        },
        {
          "indexed": true,
          "internalType": "address",
          "name": "approved",
          "type": "address"
        },
        {
          "indexed": true,
          "internalType": "uint256",
          "name": "tokenId",
          "type": "uint256"
        }
      ],
      "name": "Approval",
      "type": "event"
    },
    {
      "anonymous": false,
      "inputs": [
        {
          "indexed": true,
          "internalType": "address",
          "name": "owner",
          "type": "address"
        },
        {
          "indexed": true,
          "internalType": "address",
          "name": "operator",
          "type": "address"
        },
        {
          "indexed": false,
          "internalType": "bool",
          "name": "approved",
          "type": "bool"
        }
      ],
      "name": "ApprovalForAll",
      "type": "event"
    },
    {
      "anonymous": false,
      "inputs": [
        {
          "indexed": false,
          "internalType": "uint256",
          "name": "_fromTokenId",
          "type": "uint256"
        },
        {
          "indexed": false,
          "internalType": "uint256",
          "name": "_toTokenId",
          "type": "uint256"
        }
      ],
      "name": "BatchMetadataUpdate",
      "type": "event"
    },
    {
      "anonymous": false,
      "inputs": [
        {
          "indexed": false,
          "internalType": "uint256",
          "name": "_tokenId",
          "type": "uint256"
        }
      ],
      "name": "MetadataUpdate",
      "type": "event"
    },
    {
      "anonymous": false,
      "inputs": [
        {
          "indexed": true,
          "internalType": "address",
          "name": "from",
          "type": "address"
        },
        {
          "indexed": true,
          "internalType": "address",
          "name": "to",
          "type": "address"
        },
        {
          "indexed": true,
          "internalType": "uint256",
          "name": "tokenId",
          "type": "uint256"
        }
      ],
      "name": "Transfer",
      "type": "event"
    },
    {
      "anonymous": false,
      "inputs": [
        {
          "indexed": true,
          "internalType": "uint256",
          "name": "tokenId",
          "type": "uint256"
        },
        {
          "indexed": false,
          "internalType": "address payable",
          "name": "seller",
          "type": "address"
        },
        {
          "indexed": false,
          "internalType": "address payable",
          "name": "owner",
          "type": "address"
        },
        {
          "indexed": false,
          "internalType": "uint256",
          "name": "price",
          "type": "uint256"
        },
        {
          "indexed": false,
          "internalType": "bool",
          "name": "sold",
          "type": "bool"
        }
      ],
      "name": "idMarketItemCreated",
      "type": "event"
    },
    {
      "inputs": [
        {
          "internalType": "address",
          "name": "to",
          "type": "address"
        },
        {
          "internalType": "uint256",
          "name": "tokenId",
          "type": "uint256"
        }
      ],
      "name": "approve",
      "outputs": [],
      "stateMutability": "nonpayable",
      "type": "function"
    },
    {
      "inputs": [
        {
          "internalType": "address",
          "name": "owner",
          "type": "address"
        }
      ],
      "name": "balanceOf",
      "outputs": [
        {
          "internalType": "uint256",
          "name": "",
          "type": "uint256"
        }
      ],
      "stateMutability": "view",
      "type": "function"
    },
    {
      "inputs": [
        {
          "internalType": "uint256",
          "name": "tokenId",
          "type": "uint256"
        }
      ],
      "name": "createMarketSale",
      "outputs": [],
      "stateMutability": "payable",
      "type": "function"
    },
    {
      "inputs": [
        {
          "internalType": "string",
          "name": "tokenURI",
          "type": "string"
        },
        {
          "internalType": "uint256",
          "name": "price",
          "type": "uint256"
        }
      ],
      "name": "createToken",
      "outputs": [
        {
          "internalType": "uint256",
          "name": "",
          "type": "uint256"
        }
      ],
      "stateMutability": "payable",
      "type": "function"
    },
    {
      "inputs": [],
      "name": "fetchItemsListed",
      "outputs": [
        {
          "components": [
            {
              "internalType": "uint256",
              "name": "tokenId",
              "type": "uint256"
            },
            {
              "internalType": "address payable",
              "name": "seller",
              "type": "address"
            },
            {
              "internalType": "address payable",
              "name": "owner",
              "type": "address"
            },
            {
              "internalType": "uint256",
              "name": "price",
              "type": "uint256"
            },
            {
              "internalType": "bool",
              "name": "sold",
              "type": "bool"
            }
          ],
          "internalType": "struct NeftyBazaar.MarketItem[]",
          "name": "",
          "type": "tuple[]"
        }
      ],
      "stateMutability": "view",
      "type": "function"
    },
    {
      "inputs": [],
      "name": "fetchMarketItem",
      "outputs": [
        {
          "components": [
            {
              "internalType": "uint256",
              "name": "tokenId",
              "type": "uint256"
            },
            {
              "internalType": "address payable",
              "name": "seller",
              "type": "address"
            },
            {
              "internalType": "address payable",
              "name": "owner",
              "type": "address"
            },
            {
              "internalType": "uint256",
              "name": "price",
              "type": "uint256"
            },
            {
              "internalType": "bool",
              "name": "sold",
              "type": "bool"
            }
          ],
          "internalType": "struct NeftyBazaar.MarketItem[]",
          "name": "",
          "type": "tuple[]"
        }
      ],
      "stateMutability": "view",
      "type": "function"
    },
    {
      "inputs": [],
      "name": "fetchMyNFTs",
      "outputs": [
        {
          "components": [
            {
              "internalType": "uint256",
              "name": "tokenId",
              "type": "uint256"
            },
            {
              "internalType": "address payable",
              "name": "seller",
              "type": "address"
            },
            {
              "internalType": "address payable",
              "name": "owner",
              "type": "address"
            },
            {
              "internalType": "uint256",
              "name": "price",
              "type": "uint256"
            },
            {
              "internalType": "bool",
              "name": "sold",
              "type": "bool"
            }
          ],
          "internalType": "struct NeftyBazaar.MarketItem[]",
          "name": "",
          "type": "tuple[]"
        }
      ],
      "stateMutability": "view",
      "type": "function"
    },
    {
      "inputs": [
        {
          "internalType": "uint256",
          "name": "tokenId",
          "type": "uint256"
        }
      ],
      "name": "getApproved",
      "outputs": [
        {
          "internalType": "address",
          "name": "",
          "type": "address"
        }
      ],
      "stateMutability": "view",
      "type": "function"
    },
    {
      "inputs": [],
      "name": "getListingPrice",
      "outputs": [
        {
          "internalType": "uint256",
          "name": "",
          "type": "uint256"
        }
      ],
      "stateMutability": "view",
      "type": "function"
    },
    {
      "inputs": [
        {
          "internalType": "address",
          "name": "owner",
          "type": "address"
        },
        {
          "internalType": "address",
          "name": "operator",
          "type": "address"
        }
      ],
      "name": "isApprovedForAll",
      "outputs": [
        {
          "internalType": "bool",
          "name": "",
          "type": "bool"
        }
      ],
      "stateMutability": "view",
      "type": "function"
    },
    {
      "inputs": [],
      "name": "name",
      "outputs": [
        {
          "internalType": "string",
          "name": "",
          "type": "string"
        }
      ],
      "stateMutability": "view",
      "type": "function"
    },
    {
      "inputs": [
        {
          "internalType": "uint256",
          "name": "tokenId",
          "type": "uint256"
        }
      ],
      "name": "ownerOf",
      "outputs": [
        {
          "internalType": "address",
          "name": "",
          "type": "address"
        }
      ],
      "stateMutability": "view",
      "type": "function"
    },
    {
      "inputs": [
        {
          "internalType": "uint256",
          "name": "tokenId",
          "type": "uint256"
        },
        {
          "internalType": "uint256",
          "name": "price",
          "type": "uint256"
        }
      ],
      "name": "reSaleToken",
      "outputs": [],
      "stateMutability": "payable",
      "type": "function"
    },
    {
      "inputs": [
        {
          "internalType": "address",
          "name": "from",
          "type": "address"
        },
        {
          "internalType": "address",
          "name": "to",
          "type": "address"
        },
        {
          "internalType": "uint256",
          "name": "tokenId",
          "type": "uint256"
        }
      ],
      "name": "safeTransferFrom",
      "outputs": [],
      "stateMutability": "nonpayable",
      "type": "function"
    },
    {
      "inputs": [
        {
          "internalType": "address",
          "name": "from",
          "type": "address"
        },
        {
          "internalType": "address",
          "name": "to",
          "type": "address"
        },
        {
          "internalType": "uint256",
          "name": "tokenId",
          "type": "uint256"
        },
        {
          "internalType": "bytes",
          "name": "data",
          "type": "bytes"
        }
      ],
      "name": "safeTransferFrom",
      "outputs": [],
      "stateMutability": "nonpayable",
      "type": "function"
    },
    {
      "inputs": [
        {
          "internalType": "address",
          "name": "operator",
          "type": "address"
        },
        {
          "internalType": "bool",
          "name": "approved",
          "type": "bool"
        }
      ],
      "name": "setApprovalForAll",
      "outputs": [],
      "stateMutability": "nonpayable",
      "type": "function"
    },
    {
      "inputs": [
        {
          "internalType": "bytes4",
          "name": "interfaceId",
          "type": "bytes4"
        }
      ],
      "name": "supportsInterface",
      "outputs": [
        {
          "internalType": "bool",
          "name": "",
          "type": "bool"
        }
      ],
      "stateMutability": "view",
      "type": "function"
    },
    {
      "inputs": [],
      "name": "symbol",
      "outputs": [
        {
          "internalType": "string",
          "name": "",
          "type": "string"
        }
      ],
      "stateMutability": "view",
      "type": "function"
    },
    {
      "inputs": [
        {
          "internalType": "uint256",
          "name": "tokenId",
          "type": "uint256"
        }
      ],
      "name": "tokenURI",
      "outputs": [
        {
          "internalType": "string",
          "name": "",
          "type": "string"
        }
      ],
      "stateMutability": "view",
      "type": "function"
    },
    {
      "inputs": [
        {
          "internalType": "address",
          "name": "from",
          "type": "address"
        },
        {
          "internalType": "address",
          "name": "to",
          "type": "address"
        },
        {
          "internalType": "uint256",
          "name": "tokenId",
          "type": "uint256"
        }
      ],
      "name": "transferFrom",
      "outputs": [],
      "stateMutability": "nonpayable",
      "type": "function"
    },
    {
      "inputs": [
        {
          "internalType": "uint256",
          "name": "_listingPrice",
          "type": "uint256"
        }
      ],
      "name": "updateListingPrice",
      "outputs": [],
      "stateMutability": "payable",
      "type": "function"
    }
  ],
  "bytecode": "0x60806040526605543df729c000600a553480156200001c57600080fd5b506040518060400160405280601381526020017f4e4654204d657461566172736520546f6b656e000000000000000000000000008152506040518060400160405280600b81526020017f4e6566747942617a61617200000000000000000000000000000000000000000081525081600090816200009a919062000370565b508060019081620000ac919062000370565b50505033600960006101000a81548173ffffffffffffffffffffffffffffffffffffffff021916908373ffffffffffffffffffffffffffffffffffffffff16021790555062000457565b600081519050919050565b7f4e487b7100000000000000000000000000000000000000000000000000000000600052604160045260246000fd5b7f4e487b7100000000000000000000000000000000000000000000000000000000600052602260045260246000fd5b600060028204905060018216806200017857607f821691505b6020821081036200018e576200018d62000130565b5b50919050565b60008190508160005260206000209050919050565b60006020601f8301049050919050565b600082821b905092915050565b600060088302620001f87fffffffffffffffffffffffffffffffffffffffffffffffffffffffffffffffff82620001b9565b620002048683620001b9565b95508019841693508086168417925050509392505050565b6000819050919050565b6000819050919050565b6000620002516200024b62000245846200021c565b62000226565b6200021c565b9050919050565b6000819050919050565b6200026d8362000230565b620002856200027c8262000258565b848454620001c6565b825550505050565b600090565b6200029c6200028d565b620002a981848462000262565b505050565b5b81811015620002d157620002c560008262000292565b600181019050620002af565b5050565b601f8211156200032057620002ea8162000194565b620002f584620001a9565b8101602085101562000305578190505b6200031d6200031485620001a9565b830182620002ae565b50505b505050565b600082821c905092915050565b6000620003456000198460080262000325565b1980831691505092915050565b600062000360838362000332565b9150826002028217905092915050565b6200037b82620000f6565b67ffffffffffffffff81111562000397576200039662000101565b5b620003a382546200015f565b620003b0828285620002d5565b600060209050601f831160018114620003e85760008415620003d3578287015190505b620003df858262000352565b8655506200044f565b601f198416620003f88662000194565b60005b828110156200042257848901518255600182019150602085019450602081019050620003fb565b868310156200044257848901516200043e601f89168262000332565b8355505b6001600288020188555050505b505050505050565b613c0b80620004676000396000f3fe60806040526004361061012a5760003560e01c80636352211e116100ab578063a22cb4651161006f578063a22cb465146103ec578063ae677aa314610415578063b88d4fde14610431578063be9af5361461045a578063c87b56dd14610476578063e985e9c5146104b35761012a565b80636352211e146102ec57806370a082311461032957806372b3b620146103665780638fafd0211461039657806395d89b41146103c15761012a565b8063202e3740116100f2578063202e37401461022857806323b872dd146102535780633aa15f311461027c57806342842e0e1461029857806345f8fa80146102c15761012a565b806301ffc9a71461012f57806306fdde031461016c578063081812fc14610197578063095ea7b3146101d457806312e85585146101fd575b600080fd5b34801561013b57600080fd5b5061015660048036038101906101519190612ae3565b6104f0565b6040516101639190612b2b565b60405180910390f35b34801561017857600080fd5b50610181610551565b60405161018e9190612bd6565b60405180910390f35b3480156101a357600080fd5b506101be60048036038101906101b99190612c2e565b6105e3565b6040516101cb9190612c9c565b60405180910390f35b3480156101e057600080fd5b506101fb60048036038101906101f69190612ce3565b6105ff565b005b34801561020957600080fd5b50610212610615565b60405161021f9190612d32565b60405180910390f35b34801561023457600080fd5b5061023d61061f565b60405161024a9190612ea3565b60405180910390f35b34801561025f57600080fd5b5061027a60048036038101906102759190612ec5565b610904565b005b61029660048036038101906102919190612f18565b610a06565b005b3480156102a457600080fd5b506102bf60048036038101906102ba9190612ec5565b610c09565b005b3480156102cd57600080fd5b506102d6610c29565b6040516102e39190612ea3565b60405180910390f35b3480156102f857600080fd5b50610313600480360381019061030e9190612c2e565b610f0e565b6040516103209190612c9c565b60405180910390f35b34801561033557600080fd5b50610350600480360381019061034b9190612f58565b610f20565b60405161035d9190612d32565b60405180910390f35b610380600480360381019061037b91906130ba565b610fda565b60405161038d9190612d32565b60405180910390f35b3480156103a257600080fd5b506103ab611024565b6040516103b89190612ea3565b60405180910390f35b3480156103cd57600080fd5b506103d6611276565b6040516103e39190612bd6565b60405180910390f35b3480156103f857600080fd5b50610413600480360381019061040e9190613142565b611308565b005b61042f600480360381019061042a9190612c2e565b61131e565b005b34801561043d57600080fd5b5061045860048036038101906104539190613223565b6113b8565b005b610474600480360381019061046f9190612c2e565b6113d5565b005b34801561048257600080fd5b5061049d60048036038101906104989190612c2e565b61161b565b6040516104aa9190612bd6565b60405180910390f35b3480156104bf57600080fd5b506104da60048036038101906104d591906132a6565b61172e565b6040516104e79190612b2b565b60405180910390f35b6000634906490660e01b7bffffffffffffffffffffffffffffffffffffffffffffffffffffffff1916827bffffffffffffffffffffffffffffffffffffffffffffffffffffffff1916148061054a5750610549826117c2565b5b9050919050565b60606000805461056090613315565b80601f016020809104026020016040519081016040528092919081815260200182805461058c90613315565b80156105d95780601f106105ae576101008083540402835291602001916105d9565b820191906000526020600020905b8154815290600101906020018083116105bc57829003601f168201915b5050505050905090565b60006105ee826118a4565b506105f88261192c565b9050919050565b610611828261060c611969565b611971565b5050565b6000600a54905090565b60606000600754905060008060005b838110156106ce573373ffffffffffffffffffffffffffffffffffffffff16600b600060018461065e9190613375565b815260200190815260200160002060020160009054906101000a900473ffffffffffffffffffffffffffffffffffffffff1673ffffffffffffffffffffffffffffffffffffffff16036106bb576001836106b89190613375565b92505b80806106c6906133a9565b91505061062e565b5060008267ffffffffffffffff8111156106eb576106ea612f8f565b5b60405190808252806020026020018201604052801561072457816020015b610711612a1a565b8152602001906001900390816107095790505b50905060005b848110156108f9573373ffffffffffffffffffffffffffffffffffffffff16600b600060018461075a9190613375565b815260200190815260200160002060020160009054906101000a900473ffffffffffffffffffffffffffffffffffffffff1673ffffffffffffffffffffffffffffffffffffffff16036108e65760006001826107b69190613375565b90506000600b60008381526020019081526020016000209050806040518060a0016040529081600082015481526020016001820160009054906101000a900473ffffffffffffffffffffffffffffffffffffffff1673ffffffffffffffffffffffffffffffffffffffff1673ffffffffffffffffffffffffffffffffffffffff1681526020016002820160009054906101000a900473ffffffffffffffffffffffffffffffffffffffff1673ffffffffffffffffffffffffffffffffffffffff1673ffffffffffffffffffffffffffffffffffffffff168152602001600382015481526020016004820160009054906101000a900460ff1615151515815250508486815181106108c9576108c86133f1565b5b60200260200101819052506001856108e19190613375565b945050505b80806108f1906133a9565b91505061072a565b508094505050505090565b600073ffffffffffffffffffffffffffffffffffffffff168273ffffffffffffffffffffffffffffffffffffffff16036109765760006040517f64a0ae9200000000000000000000000000000000000000000000000000000000815260040161096d9190612c9c565b60405180910390fd5b600061098a8383610985611969565b611983565b90508373ffffffffffffffffffffffffffffffffffffffff168173ffffffffffffffffffffffffffffffffffffffff1614610a00578382826040517f64283d7b0000000000000000000000000000000000000000000000000000000081526004016109f793929190613420565b60405180910390fd5b50505050565b3373ffffffffffffffffffffffffffffffffffffffff16600b600084815260200190815260200160002060020160009054906101000a900473ffffffffffffffffffffffffffffffffffffffff1673ffffffffffffffffffffffffffffffffffffffff1614610aaa576040517f08c379a0000000000000000000000000000000000000000000000000000000008152600401610aa1906134c9565b60405180910390fd5b600a543411610aee576040517f08c379a0000000000000000000000000000000000000000000000000000000008152600401610ae59061355b565b60405180910390fd5b6000600b600084815260200190815260200160002060040160006101000a81548160ff02191690831515021790555080600b60008481526020019081526020016000206003018190555033600b600084815260200190815260200160002060010160006101000a81548173ffffffffffffffffffffffffffffffffffffffff021916908373ffffffffffffffffffffffffffffffffffffffff16021790555030600b600084815260200190815260200160002060020160006101000a81548173ffffffffffffffffffffffffffffffffffffffff021916908373ffffffffffffffffffffffffffffffffffffffff16021790555060086000815480929190610bf59061357b565b9190505550610c05333084611b9d565b5050565b610c24838383604051806020016040528060008152506113b8565b505050565b60606000600754905060008060005b83811015610cd8573373ffffffffffffffffffffffffffffffffffffffff16600b6000600184610c689190613375565b815260200190815260200160002060010160009054906101000a900473ffffffffffffffffffffffffffffffffffffffff1673ffffffffffffffffffffffffffffffffffffffff1603610cc557600183610cc29190613375565b92505b8080610cd0906133a9565b915050610c38565b5060008267ffffffffffffffff811115610cf557610cf4612f8f565b5b604051908082528060200260200182016040528015610d2e57816020015b610d1b612a1a565b815260200190600190039081610d135790505b50905060005b84811015610f03573373ffffffffffffffffffffffffffffffffffffffff16600b6000600184610d649190613375565b815260200190815260200160002060010160009054906101000a900473ffffffffffffffffffffffffffffffffffffffff1673ffffffffffffffffffffffffffffffffffffffff1603610ef0576000600182610dc09190613375565b90506000600b60008381526020019081526020016000209050806040518060a0016040529081600082015481526020016001820160009054906101000a900473ffffffffffffffffffffffffffffffffffffffff1673ffffffffffffffffffffffffffffffffffffffff1673ffffffffffffffffffffffffffffffffffffffff1681526020016002820160009054906101000a900473ffffffffffffffffffffffffffffffffffffffff1673ffffffffffffffffffffffffffffffffffffffff1673ffffffffffffffffffffffffffffffffffffffff168152602001600382015481526020016004820160009054906101000a900460ff161515151581525050848681518110610ed357610ed26133f1565b5b6020026020010181905250600185610eeb9190613375565b945050505b8080610efb906133a9565b915050610d34565b508094505050505090565b6000610f19826118a4565b9050919050565b60008073ffffffffffffffffffffffffffffffffffffffff168273ffffffffffffffffffffffffffffffffffffffff1603610f935760006040517f89c62b64000000000000000000000000000000000000000000000000000000008152600401610f8a9190612c9c565b60405180910390fd5b600360008373ffffffffffffffffffffffffffffffffffffffff1673ffffffffffffffffffffffffffffffffffffffff168152602001908152602001600020549050919050565b6000806007549050610fec3382611d0a565b610ff68185611e03565b6001600760008282546110099190613375565b9250508190555061101a8184611e5f565b8091505092915050565b606060006007549050600060085460075461103f91906135a4565b90506000808267ffffffffffffffff81111561105e5761105d612f8f565b5b60405190808252806020026020018201604052801561109757816020015b611084612a1a565b81526020019060019003908161107c5790505b50905060005b8481101561126b573073ffffffffffffffffffffffffffffffffffffffff16600b60006001846110cd9190613375565b815260200190815260200160002060020160009054906101000a900473ffffffffffffffffffffffffffffffffffffffff1673ffffffffffffffffffffffffffffffffffffffff16036112585760006001826111299190613375565b90506000600b60008381526020019081526020016000209050806040518060a0016040529081600082015481526020016001820160009054906101000a900473ffffffffffffffffffffffffffffffffffffffff1673ffffffffffffffffffffffffffffffffffffffff1673ffffffffffffffffffffffffffffffffffffffff1681526020016002820160009054906101000a900473ffffffffffffffffffffffffffffffffffffffff1673ffffffffffffffffffffffffffffffffffffffff1673ffffffffffffffffffffffffffffffffffffffff168152602001600382015481526020016004820160009054906101000a900460ff16151515158152505084868151811061123c5761123b6133f1565b5b60200260200101819052508480611252906133a9565b95505050505b8080611263906133a9565b91505061109d565b508094505050505090565b60606001805461128590613315565b80601f01602080910402602001604051908101604052809291908181526020018280546112b190613315565b80156112fe5780601f106112d3576101008083540402835291602001916112fe565b820191906000526020600020905b8154815290600101906020018083116112e157829003601f168201915b5050505050905090565b61131a611313611969565b8383612062565b5050565b600960009054906101000a900473ffffffffffffffffffffffffffffffffffffffff1673ffffffffffffffffffffffffffffffffffffffff163373ffffffffffffffffffffffffffffffffffffffff16146113ae576040517f08c379a00000000000000000000000000000000000000000000000000000000081526004016113a59061364a565b60405180910390fd5b80600a8190555050565b6113c3848484610904565b6113cf848484846121d1565b50505050565b6000600b6000838152602001908152602001600020600301549050803414611432576040517f08c379a0000000000000000000000000000000000000000000000000000000008152600401611429906136dc565b60405180910390fd5b33600b600084815260200190815260200160002060020160006101000a81548173ffffffffffffffffffffffffffffffffffffffff021916908373ffffffffffffffffffffffffffffffffffffffff1602179055506001600b600084815260200190815260200160002060040160006101000a81548160ff0219169083151502179055506000600b600084815260200190815260200160002060020160006101000a81548173ffffffffffffffffffffffffffffffffffffffff021916908373ffffffffffffffffffffffffffffffffffffffff1602179055506008600081548092919061151f906133a9565b919050555061152f303384611b9d565b600960009054906101000a900473ffffffffffffffffffffffffffffffffffffffff1673ffffffffffffffffffffffffffffffffffffffff166108fc600a549081150290604051600060405180830381858888f19350505050158015611599573d6000803e3d6000fd5b50600b600083815260200190815260200160002060010160009054906101000a900473ffffffffffffffffffffffffffffffffffffffff1673ffffffffffffffffffffffffffffffffffffffff166108fc349081150290604051600060405180830381858888f19350505050158015611616573d6000803e3d6000fd5b505050565b6060611626826118a4565b50600060066000848152602001908152602001600020805461164790613315565b80601f016020809104026020016040519081016040528092919081815260200182805461167390613315565b80156116c05780601f10611695576101008083540402835291602001916116c0565b820191906000526020600020905b8154815290600101906020018083116116a357829003601f168201915b5050505050905060006116d1612388565b905060008151036116e6578192505050611729565b60008251111561171b578082604051602001611703929190613738565b60405160208183030381529060405292505050611729565b6117248461239f565b925050505b919050565b6000600560008473ffffffffffffffffffffffffffffffffffffffff1673ffffffffffffffffffffffffffffffffffffffff16815260200190815260200160002060008373ffffffffffffffffffffffffffffffffffffffff1673ffffffffffffffffffffffffffffffffffffffff16815260200190815260200160002060009054906101000a900460ff16905092915050565b60007f80ac58cd000000000000000000000000000000000000000000000000000000007bffffffffffffffffffffffffffffffffffffffffffffffffffffffff1916827bffffffffffffffffffffffffffffffffffffffffffffffffffffffff1916148061188d57507f5b5e139f000000000000000000000000000000000000000000000000000000007bffffffffffffffffffffffffffffffffffffffffffffffffffffffff1916827bffffffffffffffffffffffffffffffffffffffffffffffffffffffff1916145b8061189d575061189c82612408565b5b9050919050565b6000806118b083612472565b9050600073ffffffffffffffffffffffffffffffffffffffff168173ffffffffffffffffffffffffffffffffffffffff160361192357826040517f7e27328900000000000000000000000000000000000000000000000000000000815260040161191a9190612d32565b60405180910390fd5b80915050919050565b60006004600083815260200190815260200160002060009054906101000a900473ffffffffffffffffffffffffffffffffffffffff169050919050565b600033905090565b61197e83838360016124af565b505050565b60008061198f84612472565b9050600073ffffffffffffffffffffffffffffffffffffffff168373ffffffffffffffffffffffffffffffffffffffff16146119d1576119d0818486612674565b5b600073ffffffffffffffffffffffffffffffffffffffff168173ffffffffffffffffffffffffffffffffffffffff1614611a6257611a136000856000806124af565b6001600360008373ffffffffffffffffffffffffffffffffffffffff1673ffffffffffffffffffffffffffffffffffffffff168152602001908152602001600020600082825403925050819055505b600073ffffffffffffffffffffffffffffffffffffffff168573ffffffffffffffffffffffffffffffffffffffff1614611ae5576001600360008773ffffffffffffffffffffffffffffffffffffffff1673ffffffffffffffffffffffffffffffffffffffff168152602001908152602001600020600082825401925050819055505b846002600086815260200190815260200160002060006101000a81548173ffffffffffffffffffffffffffffffffffffffff021916908373ffffffffffffffffffffffffffffffffffffffff160217905550838573ffffffffffffffffffffffffffffffffffffffff168273ffffffffffffffffffffffffffffffffffffffff167fddf252ad1be2c89b69c2b068fc378daa952ba7f163c4a11628f55a4df523b3ef60405160405180910390a4809150509392505050565b600073ffffffffffffffffffffffffffffffffffffffff168273ffffffffffffffffffffffffffffffffffffffff1603611c0f5760006040517f64a0ae92000000000000000000000000000000000000000000000000000000008152600401611c069190612c9c565b60405180910390fd5b6000611c1d83836000611983565b9050600073ffffffffffffffffffffffffffffffffffffffff168173ffffffffffffffffffffffffffffffffffffffff1603611c9057816040517f7e273289000000000000000000000000000000000000000000000000000000008152600401611c879190612d32565b60405180910390fd5b8373ffffffffffffffffffffffffffffffffffffffff168173ffffffffffffffffffffffffffffffffffffffff1614611d04578382826040517f64283d7b000000000000000000000000000000000000000000000000000000008152600401611cfb93929190613420565b60405180910390fd5b50505050565b600073ffffffffffffffffffffffffffffffffffffffff168273ffffffffffffffffffffffffffffffffffffffff1603611d7c5760006040517f64a0ae92000000000000000000000000000000000000000000000000000000008152600401611d739190612c9c565b60405180910390fd5b6000611d8a83836000611983565b9050600073ffffffffffffffffffffffffffffffffffffffff168173ffffffffffffffffffffffffffffffffffffffff1614611dfe5760006040517f73c6ac6e000000000000000000000000000000000000000000000000000000008152600401611df59190612c9c565b60405180910390fd5b505050565b80600660008481526020019081526020016000209081611e239190613908565b507ff8e1a15aba9398e019f0b49df1a4fde98ee17ae345cb5f6b5e2c27f5033e8ce782604051611e539190612d32565b60405180910390a15050565b60008111611ea2576040517f08c379a0000000000000000000000000000000000000000000000000000000008152600401611e9990613a26565b60405180910390fd5b600a543414611ee6576040517f08c379a0000000000000000000000000000000000000000000000000000000008152600401611edd9061355b565b60405180910390fd5b6040518060a001604052808381526020013373ffffffffffffffffffffffffffffffffffffffff1681526020013073ffffffffffffffffffffffffffffffffffffffff16815260200182815260200160001515815250600b60008481526020019081526020016000206000820151816000015560208201518160010160006101000a81548173ffffffffffffffffffffffffffffffffffffffff021916908373ffffffffffffffffffffffffffffffffffffffff16021790555060408201518160020160006101000a81548173ffffffffffffffffffffffffffffffffffffffff021916908373ffffffffffffffffffffffffffffffffffffffff1602179055506060820151816003015560808201518160040160006101000a81548160ff02191690831515021790555090505061201f333084611b9d565b817fdebdb32cb5230ab727c9c361b16fdb2015df225c10e6a3e7f60ecd5dc5be451633308460006040516120569493929190613a55565b60405180910390a25050565b600073ffffffffffffffffffffffffffffffffffffffff168273ffffffffffffffffffffffffffffffffffffffff16036120d357816040517f5b08ba180000000000000000000000000000000000000000000000000000000081526004016120ca9190612c9c565b60405180910390fd5b80600560008573ffffffffffffffffffffffffffffffffffffffff1673ffffffffffffffffffffffffffffffffffffffff16815260200190815260200160002060008473ffffffffffffffffffffffffffffffffffffffff1673ffffffffffffffffffffffffffffffffffffffff16815260200190815260200160002060006101000a81548160ff0219169083151502179055508173ffffffffffffffffffffffffffffffffffffffff168373ffffffffffffffffffffffffffffffffffffffff167f17307eab39ab6107e8899845ad3d59bd9653f200f220920489ca2b5937696c31836040516121c49190612b2b565b60405180910390a3505050565b60008373ffffffffffffffffffffffffffffffffffffffff163b1115612382578273ffffffffffffffffffffffffffffffffffffffff1663150b7a02612215611969565b8685856040518563ffffffff1660e01b81526004016122379493929190613aef565b6020604051808303816000875af192505050801561227357506040513d601f19601f820116820180604052508101906122709190613b50565b60015b6122f7573d80600081146122a3576040519150601f19603f3d011682016040523d82523d6000602084013e6122a8565b606091505b5060008151036122ef57836040517f64a0ae920000000000000000000000000000000000000000000000000000000081526004016122e69190612c9c565b60405180910390fd5b805181602001fd5b63150b7a0260e01b7bffffffffffffffffffffffffffffffffffffffffffffffffffffffff1916817bffffffffffffffffffffffffffffffffffffffffffffffffffffffff19161461238057836040517f64a0ae920000000000000000000000000000000000000000000000000000000081526004016123779190612c9c565b60405180910390fd5b505b50505050565b606060405180602001604052806000815250905090565b60606123aa826118a4565b5060006123b5612388565b905060008151116123d55760405180602001604052806000815250612400565b806123df84612738565b6040516020016123f0929190613738565b6040516020818303038152906040525b915050919050565b60007f01ffc9a7000000000000000000000000000000000000000000000000000000007bffffffffffffffffffffffffffffffffffffffffffffffffffffffff1916827bffffffffffffffffffffffffffffffffffffffffffffffffffffffff1916149050919050565b60006002600083815260200190815260200160002060009054906101000a900473ffffffffffffffffffffffffffffffffffffffff169050919050565b80806124e85750600073ffffffffffffffffffffffffffffffffffffffff168273ffffffffffffffffffffffffffffffffffffffff1614155b1561261c5760006124f8846118a4565b9050600073ffffffffffffffffffffffffffffffffffffffff168373ffffffffffffffffffffffffffffffffffffffff161415801561256357508273ffffffffffffffffffffffffffffffffffffffff168173ffffffffffffffffffffffffffffffffffffffff1614155b80156125765750612574818461172e565b155b156125b857826040517fa9fbf51f0000000000000000000000000000000000000000000000000000000081526004016125af9190612c9c565b60405180910390fd5b811561261a57838573ffffffffffffffffffffffffffffffffffffffff168273ffffffffffffffffffffffffffffffffffffffff167f8c5be1e5ebec7d5bd14f71427d1e84f3dd0314c0f7b2291e5b200ac8c7c3b92560405160405180910390a45b505b836004600085815260200190815260200160002060006101000a81548173ffffffffffffffffffffffffffffffffffffffff021916908373ffffffffffffffffffffffffffffffffffffffff16021790555050505050565b61267f838383612806565b61273357600073ffffffffffffffffffffffffffffffffffffffff168373ffffffffffffffffffffffffffffffffffffffff16036126f457806040517f7e2732890000000000000000000000000000000000000000000000000000000081526004016126eb9190612d32565b60405180910390fd5b81816040517f177e802f00000000000000000000000000000000000000000000000000000000815260040161272a929190613b7d565b60405180910390fd5b505050565b606060006001612747846128c7565b01905060008167ffffffffffffffff81111561276657612765612f8f565b5b6040519080825280601f01601f1916602001820160405280156127985781602001600182028036833780820191505090505b509050600082602001820190505b6001156127fb578080600190039150507f3031323334353637383961626364656600000000000000000000000000000000600a86061a8153600a85816127ef576127ee613ba6565b5b049450600085036127a6575b819350505050919050565b60008073ffffffffffffffffffffffffffffffffffffffff168373ffffffffffffffffffffffffffffffffffffffff16141580156128be57508273ffffffffffffffffffffffffffffffffffffffff168473ffffffffffffffffffffffffffffffffffffffff16148061287f575061287e848461172e565b5b806128bd57508273ffffffffffffffffffffffffffffffffffffffff166128a58361192c565b73ffffffffffffffffffffffffffffffffffffffff16145b5b90509392505050565b600080600090507a184f03e93ff9f4daa797ed6e38ed64bf6a1f0100000000000000008310612925577a184f03e93ff9f4daa797ed6e38ed64bf6a1f010000000000000000838161291b5761291a613ba6565b5b0492506040810190505b6d04ee2d6d415b85acef81000000008310612962576d04ee2d6d415b85acef8100000000838161295857612957613ba6565b5b0492506020810190505b662386f26fc10000831061299157662386f26fc10000838161298757612986613ba6565b5b0492506010810190505b6305f5e10083106129ba576305f5e10083816129b0576129af613ba6565b5b0492506008810190505b61271083106129df5761271083816129d5576129d4613ba6565b5b0492506004810190505b60648310612a0257606483816129f8576129f7613ba6565b5b0492506002810190505b600a8310612a11576001810190505b80915050919050565b6040518060a0016040528060008152602001600073ffffffffffffffffffffffffffffffffffffffff168152602001600073ffffffffffffffffffffffffffffffffffffffff168152602001600081526020016000151581525090565b6000604051905090565b600080fd5b600080fd5b60007fffffffff0000000000000000000000000000000000000000000000000000000082169050919050565b612ac081612a8b565b8114612acb57600080fd5b50565b600081359050612add81612ab7565b92915050565b600060208284031215612af957612af8612a81565b5b6000612b0784828501612ace565b91505092915050565b60008115159050919050565b612b2581612b10565b82525050565b6000602082019050612b406000830184612b1c565b92915050565b600081519050919050565b600082825260208201905092915050565b60005b83811015612b80578082015181840152602081019050612b65565b60008484015250505050565b6000601f19601f8301169050919050565b6000612ba882612b46565b612bb28185612b51565b9350612bc2818560208601612b62565b612bcb81612b8c565b840191505092915050565b60006020820190508181036000830152612bf08184612b9d565b905092915050565b6000819050919050565b612c0b81612bf8565b8114612c1657600080fd5b50565b600081359050612c2881612c02565b92915050565b600060208284031215612c4457612c43612a81565b5b6000612c5284828501612c19565b91505092915050565b600073ffffffffffffffffffffffffffffffffffffffff82169050919050565b6000612c8682612c5b565b9050919050565b612c9681612c7b565b82525050565b6000602082019050612cb16000830184612c8d565b92915050565b612cc081612c7b565b8114612ccb57600080fd5b50565b600081359050612cdd81612cb7565b92915050565b60008060408385031215612cfa57612cf9612a81565b5b6000612d0885828601612cce565b9250506020612d1985828601612c19565b9150509250929050565b612d2c81612bf8565b82525050565b6000602082019050612d476000830184612d23565b92915050565b600081519050919050565b600082825260208201905092915050565b6000819050602082019050919050565b612d8281612bf8565b82525050565b6000612d9382612c5b565b9050919050565b612da381612d88565b82525050565b612db281612b10565b82525050565b60a082016000820151612dce6000850182612d79565b506020820151612de16020850182612d9a565b506040820151612df46040850182612d9a565b506060820151612e076060850182612d79565b506080820151612e1a6080850182612da9565b50505050565b6000612e2c8383612db8565b60a08301905092915050565b6000602082019050919050565b6000612e5082612d4d565b612e5a8185612d58565b9350612e6583612d69565b8060005b83811015612e96578151612e7d8882612e20565b9750612e8883612e38565b925050600181019050612e69565b5085935050505092915050565b60006020820190508181036000830152612ebd8184612e45565b905092915050565b600080600060608486031215612ede57612edd612a81565b5b6000612eec86828701612cce565b9350506020612efd86828701612cce565b9250506040612f0e86828701612c19565b9150509250925092565b60008060408385031215612f2f57612f2e612a81565b5b6000612f3d85828601612c19565b9250506020612f4e85828601612c19565b9150509250929050565b600060208284031215612f6e57612f6d612a81565b5b6000612f7c84828501612cce565b91505092915050565b600080fd5b600080fd5b7f4e487b7100000000000000000000000000000000000000000000000000000000600052604160045260246000fd5b612fc782612b8c565b810181811067ffffffffffffffff82111715612fe657612fe5612f8f565b5b80604052505050565b6000612ff9612a77565b90506130058282612fbe565b919050565b600067ffffffffffffffff82111561302557613024612f8f565b5b61302e82612b8c565b9050602081019050919050565b82818337600083830152505050565b600061305d6130588461300a565b612fef565b90508281526020810184848401111561307957613078612f8a565b5b61308484828561303b565b509392505050565b600082601f8301126130a1576130a0612f85565b5b81356130b184826020860161304a565b91505092915050565b600080604083850312156130d1576130d0612a81565b5b600083013567ffffffffffffffff8111156130ef576130ee612a86565b5b6130fb8582860161308c565b925050602061310c85828601612c19565b9150509250929050565b61311f81612b10565b811461312a57600080fd5b50565b60008135905061313c81613116565b92915050565b6000806040838503121561315957613158612a81565b5b600061316785828601612cce565b92505060206131788582860161312d565b9150509250929050565b600067ffffffffffffffff82111561319d5761319c612f8f565b5b6131a682612b8c565b9050602081019050919050565b60006131c66131c184613182565b612fef565b9050828152602081018484840111156131e2576131e1612f8a565b5b6131ed84828561303b565b509392505050565b600082601f83011261320a57613209612f85565b5b813561321a8482602086016131b3565b91505092915050565b6000806000806080858703121561323d5761323c612a81565b5b600061324b87828801612cce565b945050602061325c87828801612cce565b935050604061326d87828801612c19565b925050606085013567ffffffffffffffff81111561328e5761328d612a86565b5b61329a878288016131f5565b91505092959194509250565b600080604083850312156132bd576132bc612a81565b5b60006132cb85828601612cce565b92505060206132dc85828601612cce565b9150509250929050565b7f4e487b7100000000000000000000000000000000000000000000000000000000600052602260045260246000fd5b6000600282049050600182168061332d57607f821691505b6020821081036133405761333f6132e6565b5b50919050565b7f4e487b7100000000000000000000000000000000000000000000000000000000600052601160045260246000fd5b600061338082612bf8565b915061338b83612bf8565b92508282019050808211156133a3576133a2613346565b5b92915050565b60006133b482612bf8565b91507fffffffffffffffffffffffffffffffffffffffffffffffffffffffffffffffff82036133e6576133e5613346565b5b600182019050919050565b7f4e487b7100000000000000000000000000000000000000000000000000000000600052603260045260246000fd5b60006060820190506134356000830186612c8d565b6134426020830185612d23565b61344f6040830184612c8d565b949350505050565b7f4f6e6c79206974656d206f776e65722063616e20706572666f726d207468697360008201527f20616374696f6e20000000000000000000000000000000000000000000000000602082015250565b60006134b3602883612b51565b91506134be82613457565b604082019050919050565b600060208201905081810360008301526134e2816134a6565b9050919050565b7f6e6574207072696365206d7573742062652067726561746572207468616e204c60008201527f697374696e672050726963650000000000000000000000000000000000000000602082015250565b6000613545602c83612b51565b9150613550826134e9565b604082019050919050565b6000602082019050818103600083015261357481613538565b9050919050565b600061358682612bf8565b91506000820361359957613598613346565b5b600182039050919050565b60006135af82612bf8565b91506135ba83612bf8565b92508282039050818111156135d2576135d1613346565b5b92915050565b7f4f6e6c79204e6566747942617a6161722063616e20706572666f726d2074686960008201527f7320616374696f6e000000000000000000000000000000000000000000000000602082015250565b6000613634602883612b51565b915061363f826135d8565b604082019050919050565b6000602082019050818103600083015261366381613627565b9050919050565b7f506c657365205375626d6974207468652061736b696e6720707269636520696e60008201527f206f7264657220746f20636f6d706c6574652074686520707572636865730000602082015250565b60006136c6603e83612b51565b91506136d18261366a565b604082019050919050565b600060208201905081810360008301526136f5816136b9565b9050919050565b600081905092915050565b600061371282612b46565b61371c81856136fc565b935061372c818560208601612b62565b80840191505092915050565b60006137448285613707565b91506137508284613707565b91508190509392505050565b60008190508160005260206000209050919050565b60006020601f8301049050919050565b600082821b905092915050565b6000600883026137be7fffffffffffffffffffffffffffffffffffffffffffffffffffffffffffffffff82613781565b6137c88683613781565b95508019841693508086168417925050509392505050565b6000819050919050565b60006138056138006137fb84612bf8565b6137e0565b612bf8565b9050919050565b6000819050919050565b61381f836137ea565b61383361382b8261380c565b84845461378e565b825550505050565b600090565b61384861383b565b613853818484613816565b505050565b5b818110156138775761386c600082613840565b600181019050613859565b5050565b601f8211156138bc5761388d8161375c565b61389684613771565b810160208510156138a5578190505b6138b96138b185613771565b830182613858565b50505b505050565b600082821c905092915050565b60006138df600019846008026138c1565b1980831691505092915050565b60006138f883836138ce565b9150826002028217905092915050565b61391182612b46565b67ffffffffffffffff81111561392a57613929612f8f565b5b6139348254613315565b61393f82828561387b565b600060209050601f8311600181146139725760008415613960578287015190505b61396a85826138ec565b8655506139d2565b601f1984166139808661375c565b60005b828110156139a857848901518255600182019150602085019450602081019050613983565b868310156139c557848901516139c1601f8916826138ce565b8355505b6001600288020188555050505b505050505050565b7f6e6574207072696365206d7573742062652067726561746572207468616e2030600082015250565b6000613a10602083612b51565b9150613a1b826139da565b602082019050919050565b60006020820190508181036000830152613a3f81613a03565b9050919050565b613a4f81612d88565b82525050565b6000608082019050613a6a6000830187613a46565b613a776020830186613a46565b613a846040830185612d23565b613a916060830184612b1c565b95945050505050565b600081519050919050565b600082825260208201905092915050565b6000613ac182613a9a565b613acb8185613aa5565b9350613adb818560208601612b62565b613ae481612b8c565b840191505092915050565b6000608082019050613b046000830187612c8d565b613b116020830186612c8d565b613b1e6040830185612d23565b8181036060830152613b308184613ab6565b905095945050505050565b600081519050613b4a81612ab7565b92915050565b600060208284031215613b6657613b65612a81565b5b6000613b7484828501613b3b565b91505092915050565b6000604082019050613b926000830185612c8d565b613b9f6020830184612d23565b9392505050565b7f4e487b7100000000000000000000000000000000000000000000000000000000600052601260045260246000fdfea2646970667358221220f4204d66ddbb8effb160e05ac11444f857ee8b248b6d1df8962ce700845c677e64736f6c63430008140033",
  "linkReferences": {},
  "deployedLinkReferences": {}
}